:100000000C9465000C948D000C948D000C948D0064
:100010000C948D000C948D000C948D000C9409317F
:100020000C948D000C948D000C948D000C94D426AF
:100030000C948D000C948D000C948D000C948D000C
:100040000C94F22A0C948D000C949C2C0C94EA2CA9
:100050000C948D000C948D000C948D000C948D00EC
:100060000C945E280C948D000000000024002700F2
:100070002A0000000000250028002B0000000000DE
:1000800023002600290004040404040404040202DA
:100090000202020203030303030301020408102007
:1000A0004080010204081020010204081020000012
:1000B0000007000201000003040600000000000029
:1000C00000000200AB00472A562E11241FBECFEFBE
:1000D000D8E0DEBFCDBF14E0A0E0B1E0E4EFFCE685
:1000E00002C005900D92A03FB107D9F717E0A0EF2D
:1000F000B4E001C01D92AE3FB107E1F710E0CAECD9
:10010000D0E004C02297FE010E947436C43CD1079F
:10011000C9F70E94AC2E0C9478360C9400006091C4
:100120000106709102068091FF0590910006680F0C
:10013000791F6230710524F09B013595279509C020
:10014000CB0162E070E00E940E3622273327261B87
:10015000370BC90108958F92AF92CF92EF920F9310
:1001600000D00F9283E0EDB7FEB781831382128235
:1001700080EF94E067E242E021E000E0E4E0EE2E70
:1001800075E0C72E56E0A52E37E0832E0E94C124CD
:100190000F900F900F9089E095E00E9490258CE0E1
:1001A00095E00E94292381E295E00E94FB220F91B5
:1001B000EF90CF90AF908F9008952F923F924F92F3
:1001C0005F926F927F928F929F92AF92BF92CF92E7
:1001D000DF92EF92FF920F931F931B012C018091EE
:1001E0001F068823E1F48FE196E00E94BB2E892B45
:1001F000B1F06091D5057091D605882777FD80957F
:10020000982F0E94C83460932B0670932C0680931D
:100210002D0690932E068FE196E00E94C52E6091E8
:100220009704709198048091990490919A04209178
:10023000AB033091AC034091AD035091AE030E94EB
:10024000C5333B014C012091AF033091B003409185
:10025000B1035091B2030E94C5339B01AC01C401AC
:10026000B3010E942D345B016C01609327067093EB
:1002700028068093290690932A06E0902B06F0909A
:100280002C0600912D0610912E06C201B101A80185
:1002900097010E94C4339B01AC01C601B5010E94C5
:1002A0007C359B01AC01C801B7010E94C5337B01BD
:1002B0008C01CB01D80180932B0690932C06A09340
:1002C0002D06B0932E0660E070E080E89FE3A60163
:1002D00095010E94C433A40193010E947C35609370
:1002E0009704709398048093990490939A04B701AB
:1002F000C8011F910F91FF90EF90DF90CF90BF90BA
:10030000AF909F908F907F906F905F904F903F90B5
:100310002F9008952F923F924F925F926F927F920B
:100320008F929F92AF92BF92CF92DF92EF92FF9205
:100330000F931F931B012C0180912F068823E1F45A
:100340008FE296E00E94BB2E892BB1F06091D3051D
:100350007091D405882777FD8095982F0E94C83426
:1003600060933B0670933C0680933D0690933E0657
:100370008FE296E00E94C52E60919B0470919C04D0
:1003800080919D0490919E042091A3033091A40339
:100390004091A5035091A6030E94C5333B014C0137
:1003A0002091A7033091A8034091A9035091AA037B
:1003B0000E94C5339B01AC01C401B3010E942D34DE
:1003C0005B016C01609337067093380680933906A1
:1003D00090933A06E0903B06F0903C0600913D0673
:1003E00010913E06C201B101A80197010E94C433D9
:1003F0009B01AC01C601B5010E947C359B01AC019B
:10040000C801B7010E94C5337B018C01CB01D80123
:1004100080933B0690933C06A0933D06B0933E0626
:1004200060E070E080E89FE3A60195010E94C4337C
:10043000A40193010E947C3560939B0470939C04FB
:1004400080939D0490939E04B701C8011F910F9162
:10045000FF90EF90DF90CF90BF90AF909F908F90E4
:100460007F906F905F904F903F902F9008952F92C4
:100470003F924F925F926F927F928F929F92AF9234
:10048000BF92CF92DF92EF92FF920F931F931B01C7
:100490002C0180913F068823E1F48FE396E00E94CF
:1004A000BB2E892BB1F06091DB057091DC058827AC
:1004B00077FD8095982F0E94C83460934B06709307
:1004C0004C0680934D0690934E068FE396E00E9473
:1004D000C52E60919F047091A0048091A104909119
:1004E000A20420919B0330919C0340919D03509165
:1004F0009E030E94C5333B014C0120919F03309124
:10050000A0034091A1035091A2030E94C5339B0117
:10051000AC01C401B3010E942D345B016C016093F6
:100520004706709348068093490690934A06E090E8
:100530004B06F0904C0600914D0610914E06C201FC
:10054000B101A80197010E94C4339B01AC01C6010F
:10055000B5010E947C359B01AC01C801B7010E9426
:10056000C5337B018C01CB01D80180934B0690935E
:100570004C06A0934D06B0934E0660E070E080E814
:100580009FE3A60195010E94C433A40193010E9438
:100590007C3560939F047093A0048093A104909392
:1005A000A204B701C8011F910F91FF90EF90DF9057
:1005B000CF90BF90AF909F908F907F906F905F9003
:1005C0004F903F902F900895CF93DF93EC0180914F
:1005D0009703909198030197D9F480EF94E060E03D
:1005E00041E00E94FE2080EF94E060E071E00E9414
:1005F000E72F80EF94E060E041E00E94FE2080EF72
:1006000094E0BE010E94E72F109298031092970386
:10061000DF91CF910895809105069091060601978C
:1006200009F046C080EF94E060E041E00E94FE20C7
:1006300080EF94E061E171E00E94E72F6091D705BF
:100640007091D80580EF94E04AE050E00E94D42FEA
:100650008091D7059091D8058436910534F480EFC8
:1006600094E063E171E00E94E72F80EF94E065E0A1
:1006700041E00E94FE2080EF94E065E171E00E947D
:10068000E72F6091D9057091DA0580EF94E04AE098
:1006900050E00E94D42F8091D9059091DA058436DC
:1006A000910534F480EF94E063E171E00E94E72F5C
:1006B0000895EF92FF920F931F9300EF14E0C8018B
:1006C00060E040E00E94FE20C80167E171E00E9406
:1006D000E72F6091F5057091F6056F5F7F4FC801B8
:1006E0004AE050E00E94D42F6091F3057091F40528
:1006F0006F5F7F4FC8014AE050E00E94D42FE09125
:10070000F505F091F605B3E0EE0FFF1FBA95E1F79E
:100710008091F3059091F405E80FF91FEE0FFF1F8C
:10072000E95DFB4FE080F180C80163E171E00E9468
:10073000E72FC801B7014AE050E00E94832F1F91C4
:100740000F91FF90EF900895EF92FF920F931F93F8
:1007500085E10E94E62B85E10E94E62BAA2797FD02
:10076000A095BA2FBC01CD010E94C8342CE032E81C
:1007700040E45CE30E947C357B018C012091F7050D
:100780003091F8054091F9055091FA050E942934FD
:1007900018164CF084E068EB7BE024EF31E040E099
:1007A00050E00E946531B701C8011F910F91FF9081
:1007B000EF900895CF92DF92EF92FF920F931F93E5
:1007C0000E94A4036B017C0100EF14E0C8016AE001
:1007D00040E00E94FE20C801B701A60122E030E0FF
:1007E0000E94CE30C8016AE171E00E94E72F1F919C
:1007F0000F91FF90EF90DF90CF900895EF92FF92CE
:100800000F931F93CF93DF93E82EF62EC0E0D0E036
:1008100000E010E0CD2B79F480EF94E06E2D4F2DA9
:100820000E94FE2080EF94E06CE171E00E94E72FCF
:10083000C1E0D0E00EC080EF94E06E2D4F2D0E94FD
:10084000FE2080EF94E06EE171E00E94E72FC0E0AF
:10085000D0E064E670E080E090E00E94482B0F5FFB
:100860001F4F0A301105B1F6DF91CF911F910F9103
:10087000FF90EF900895909308068093070681E01B
:1008800090E0909398038093970364EF71E080E089
:1008900090E00E94482B08950F931F9300EF14E0FF
:1008A000C80160E041E00E94FE20C80160E271E002
:1008B0000E94E72F64EF71E080E090E00E94482BF7
:1008C0001F910F910895809105069091060601975A
:1008D00021F58091D7059091D8050A9734F0809141
:1008E000D9059091DA050A97C4F484E068EB7BE0BF
:1008F00024EF31E040E050E00E94653168EC70E0A8
:1009000080E090E00E94482B84E068EB7BE024EFDD
:1009100031E040E050E00E94653108951F93182FA8
:1009200088EC90E00E94A12B812F61E00E94472C6F
:1009300088EC90E00E94A12B1F9108951F93182F1F
:1009400088EC90E00E94A12B812F60E00E94472C50
:1009500088EC90E00E94A12B1F9108958BE060E04D
:100960000E94472C8CE291E00E94A12B8AE060E07B
:100970000E94472C8CE291E00E94A12B8BE061E069
:100980000E94472C8CE291E00E94A12B8BE060E05A
:100990000E94472C8CE291E00E94A12B08958BE0ED
:1009A00060E00E94472C8CE291E00E94A12B8AE03B
:1009B00061E00E94472C8CE291E00E94A12B8BE029
:1009C00061E00E94472C8CE291E00E94A12B8BE019
:1009D00060E00E94472C8CE291E00E94A12B0895D8
:1009E000FF920F931F93CF93DF93082FF92EFB01F4
:1009F00023E0EE0FFF1F2A95E1F7E40FF51FEE0F3E
:100A0000FF1FE954FC4FC081D1819F2D0E948E04AD
:100A100062E070E080E090E00E94482B802F9F2DE4
:100A20000E949E040E94AE040E94AE040E94AE0486
:100A30000E94CF040E94AE0414E10E94AE04115043
:100A4000E1F7802F9F2D0E948E0462E070E080E02D
:100A500090E00E94482B802F9F2D0E949E04802FA3
:100A60009F2D0E948E0462E070E080E090E00E9482
:100A7000482B802F9F2D0E949E040E94CF040E942D
:100A8000AE040E94AE040E94AE040E94CF0410E1A6
:100A9000C0FF03C00E94CF0402C00E94AE041150E8
:100AA00019F0D695C795F4CF0E94AE040E94AE040B
:100AB0000E94AE040E94AE04802F9F2D0E948E04DF
:100AC00062E070E080E090E00E94482B802F60E0C0
:100AD0000E94472C8BE060E00E94472C8AE060E097
:100AE0000E94472CDF91CF911F910F91FF900895A5
:100AF000CF92DF92EF92FF920F931F93CF93DF93EA
:100B00008C017B016A0186E090E0B801A7010E9498
:100B1000F00487E090E0B801A7010E94F00488E0AB
:100B200090E0B801A7010E94F00489E090E0B801CC
:100B3000A7010E94F00468EC70E080E090E00E9461
:100B4000482BC0E0D0E00091D7051091D8058EE089
:100B50000E94E62B080F191F1093D8050093D705A4
:100B60000091D9051091DA0580E10E94E62BFC0185
:100B7000E00FF11FF093DA05E093D9052196C23317
:100B8000D10509F78091D7059091D80562E370E00F
:100B90000E940E369B017093D8056093D705CF0154
:100BA00062E370E00E940E36FB017093DA056093F9
:100BB000D905CB01820F931F62E070E00E940E36D0
:100BC000EB0126393105CCF0E639F105B4F081E0CE
:100BD000C816D10449F484E068EB7BE024EF31E0EF
:100BE00040E050E00E9465310E94590381E0C81640
:100BF000D10459F4C1E0D0E008C00E94590381E05B
:100C0000C816D10411F4C0E0D0E0CE01DF91CF913D
:100C10001F910F91FF90EF90DF90CF900895CF92AA
:100C2000DF92EF92FF920F931F937C018B0135E7C8
:100C3000C32E36E0D32EC601B7010E949227F801D9
:100C400080830894E11CF11CC601B7010E94922721
:100C5000F801818382E090E01F910F91FF90EF9067
:100C6000DF90CF900895CF92DF92EF92FF920F9393
:100C70001F937C018B0145E7C42E46E0D42EC601AC
:100C8000B701F80140810E9499270894E11CF11CEA
:100C9000C601B701F80141810E94992782E090E0E6
:100CA0001F910F91FF90EF90DF90CF900895EF92FA
:100CB000FF920F931F93CF93DF9380EF94E060E058
:100CC00041E00E94FE2080EF94E063E271E00E9428
:100CD000E72F1092E6051092E5058EE00E94E62BC4
:100CE000EE24FF24C0E0D0E00091E5051091E60578
:100CF0008EE00E94E62B080F191F1093E605009363
:100D0000E505CD2B79F480EF94E06CE041E00E94A2
:100D1000FE2080EF94E06CE171E00E94E72FC1E0DB
:100D2000D0E00EC080EF94E06CE041E00E94FE2035
:100D300080EF94E06EE171E00E94E72FC0E0D0E028
:100D400062E370E080E090E00E94482B0894E11C90
:100D5000F11C82E3E816F10439F68091E5059091E3
:100D6000E60562E370E00E940E36CB0177FF03C018
:100D7000909581959F4F9093E6058093E50510929D
:100D8000E8051092E70580E10E94E62BEE24FF249F
:100D9000C0E0D0E00091E7051091E80580E10E94F5
:100DA000E62B080F191F1093E8050093E705CD2BDC
:100DB00079F480EF94E06CE041E00E94FE2080EF47
:100DC00094E06CE171E00E94E72FC1E0D0E00EC03A
:100DD00080EF94E06CE041E00E94FE2080EF94E020
:100DE0006EE171E00E94E72FC0E0D0E062E370E0C6
:100DF00080E090E00E94482B0894E11CF11C82E303
:100E0000E816F10439F68091E7059091E80562E370
:100E100070E00E940E36CB0177FF03C0909581955C
:100E20009F4F9093E8058093E7051092EE0510928E
:100E3000ED058FE00E94E62BEE24FF24C0E0D0E019
:100E40000091ED051091EE058FE00E94E62B080F52
:100E5000191F1093EE050093ED05CD2B79F480EF6B
:100E600094E06CE041E00E94FE2080EF94E06CE1B1
:100E700071E00E94E72FC1E0D0E00EC080EF94E067
:100E80006CE041E00E94FE2080EF94E06EE171E0B2
:100E90000E94E72FC0E0D0E062E370E080E090E0E5
:100EA0000E94482B0894E11CF11C82E3E816F1042F
:100EB00039F68091ED059091EE0562E370E00E94B5
:100EC0000E36CB0177FF03C0909581959F4F90938D
:100ED000EE058093ED051092F0051092EF0584E188
:100EE0000E94E62BEE24FF24C0E0D0E00091EF0545
:100EF0001091F00584E10E94E62B080F191F109352
:100F0000F0050093EF05CD2B79F480EF94E06CE0D1
:100F100041E00E94FE2080EF94E06CE171E00E94CD
:100F2000E72FC1E0D0E00EC080EF94E06CE041E03C
:100F30000E94FE2080EF94E06EE171E00E94E72FB6
:100F4000C0E0D0E062E370E080E090E00E94482BD7
:100F50000894E11CF11C82E3E816F10439F6809153
:100F6000EF059091F00562E370E00E940E36CB0130
:100F700077FF03C0909581959F4F9093F0058093E4
:100F8000EF0588EC90E065EE75E00E94330682ED97
:100F900090E067EE75E00E9433068CED90E06DEE18
:100FA00075E00E94330686EE90E06FEE75E00E94D9
:100FB000330680EF94E060E041E00E94FE2080EF85
:100FC00094E064E371E00E94E72F82E090E0909368
:100FD00006068093050681E090E0909308068093D2
:100FE00007069093980380939703DF91CF911F9109
:100FF0000F91FF90EF900895EF92FF920F931F9340
:10100000DF93CF93CDB7DEB7A8970FB6F894DEBFC6
:101010000FBECDBF85E796E060E070E00E949227AA
:10102000813039F48091B3030E94E62B06970CF4CB
:10103000F4C180EF94E060E040E00E94FE2080EF89
:1010400094E063E471E00E94E72F00E010E0EE24FA
:10105000FF2485E796E0B70140E00E949927012B25
:1010600079F480EF94E060E041E00E94FE2080EFA0
:1010700094E06CE171E00E94E72F01E010E00EC007
:1010800080EF94E060E041E00E94FE2080EF94E079
:101090006EE171E00E94E72F00E010E065E070E093
:1010A00080E090E00E94482B0894E11CF11C80E055
:1010B000E81682E0F80669F681E090E09A83898379
:1010C00080E090E0BE016F5F7F4F0E9433061C827C
:1010D0001B828EE190E0BE016D5F7F4F0E94330660
:1010E0001E821D828DE290E0BE016B5F7F4F0E94E9
:1010F00033068FE090E098878F8383E290E0BE0113
:10110000695F7F4F0E94330686E990E09A8789875E
:1011100089E190E0BE01675F7F4F0E94330683E361
:1011200093E3A3E3B1E48DA39EA3AFA3B8A755E2D5
:10113000E52EF12CEC0EFD1E68E270E08B010F5FD6
:101140001F4FF70141917F0185E796E00E949927A3
:10115000B8010C32110591F708EC15E01C870B87DC
:101160008AE090E0BE01655F7F4F0E9433061E87D4
:101170000D878FE090E0BE01635F7F4F0E943306D2
:10118000188A1F8684E190E0BE01615F7F4F0E9454
:10119000330685E090E09A8B898B8AEA90E0BE0165
:1011A0006F5E7F4F0E9433061C8A1B8A86E990E09F
:1011B000BE016D5E7F4F0E9433061E8A1D8A80EA43
:1011C00090E0BE016B5E7F4F0E943306188E1F8A2F
:1011D00084EB90E0BE01695E7F4F0E9433061A8E59
:1011E000198E8EEB90E0BE01675E7F4F0E94330642
:1011F0001C8E1B8E88EC90E0BE01655E7F4F0E94C6
:1012000033061E8E1D8E82ED90E0BE01635E7F4F21
:101210000E94330618A21F8E8CED90E0BE01615E25
:101220007F4F0E9433061AA219A286EE90E0BE01FB
:101230006F5D7F4F0E94330684E690E09CA38BA3F2
:101240008AEF90E0BE016D5D7F4F0E94330680EF14
:1012500094E00E94282180EF94E060E040E00E944A
:10126000FE2080EF94E064E571E00E94E72FEE2419
:10127000FF24E114F10469F480EF94E060E041E0C0
:101280000E94FE2080EF94E06EE571E00E94E72F5F
:101290002DC0F1E0EF16F10459F480EF94E060E026
:1012A00041E00E94FE2080EF94E067E671E02CC0F0
:1012B00082E0E816F10459F480EF94E060E041E048
:1012C0000E94FE2080EF94E060E771E01DC0E3E043
:1012D000EE16F10459F480EF94E060E041E00E94E2
:1012E000FE2080EF94E069E771E00EC0F4E0EF16B5
:1012F000F10461F480EF94E060E041E00E94FE20A0
:1013000080EF94E062E871E00E94E72F80EF94E0C4
:1013100068E041E00E94FE2080EF94E06BE871E01D
:101320000E94E72F8091B3030E94E62B97FDFACF2E
:1013300080EF94E068E041E00E94FE2060EA7FE0F8
:1013400080E090E00E94482B8091B3030E94E62B3E
:101350008C0180EF94E068E971E00E94E72F80EF54
:1013600094E0B8014AE050E00E94D42F64EF71E0AD
:1013700080E090E00E94482BE114F10459F41093AE
:1013800014060093130684E690E063E176E00E9481
:10139000330627C081E0E816F10449F410931606DD
:1013A000009315068EE690E065E176E026C0E2E067
:1013B000EE16F10449F4109318060093170688E717
:1013C00090E067E176E019C0F3E0EF16F10449F42C
:1013D00010931A060093190682E890E069E176E01E
:1013E0000CC084E0E816F10451F410931C0600933D
:1013F0001B068CE890E06BE176E00E94330668EE15
:1014000073E080E090E00E94482B0894E11CF11CFE
:10141000E5E0EE16F10409F02CCF80EF94E00E9495
:101420002821A8960FB6F894DEBF0FBECDBFCF918E
:10143000DF911F910F91FF90EF9008958CE095E060
:101440000E944D232FEF8F3F920719F420E030E0E8
:101450001EC08330910519F423E030E018C08430B9
:10146000910519F424E030E012C08230910519F49E
:1014700022E030E00CC08530910519F425E030E021
:1014800006C020E030E0019711F421E030E0C9010E
:1014900008950F931F93CF93DF93C7EFD5E068E2D2
:1014A00070E08B010F5F1F4F85E796E00E94922747
:1014B0008993B8010C321105A1F780EF94E060E048
:1014C00041E00E94FE2080EF94E06CE971E00E9410
:1014D000E72F80EF94E06AE041E00E94FE20409117
:1014E000F7055091F8056091F9057091FA0580EFC4
:1014F00094E022E030E00E94CE300E941E0A9093D9
:10150000CE058093CD05059709F066C064EF71E0C4
:1015100080E090E00E94482B6091F7057091F805FB
:101520008091F9059091FA052DEC3CEC4CEC5DE3D3
:101530000E94C5336093F7057093F8058093F90511
:101540009093FA0520E030E040E451E40E947835C1
:10155000181664F480E090E0A0E4B1E48093F7050D
:101560009093F805A093F905B093FA0580EF94E005
:101570006AE041E00E94FE204091F7055091F80595
:101580006091F9057091FA0580EF94E022E030E077
:101590000E94CE3080EF94E063E171E00E94E72F7B
:1015A0006091F7057091F8058091F9059091FA0521
:1015B00020E030E040E251E40E942934882364F4C2
:1015C00080EF94E069E041E00E94FE2080EF94E02B
:1015D00063E171E00E94E72F8091CD059091CE05E7
:1015E000029709F066C064EF71E080E090E00E942D
:1015F000482B6091F7057091F8058091F90590915D
:10160000FA052DEC3CEC4CEC5DE30E94C433609396
:10161000F7057093F8058093F9059093FA0520E09B
:1016200030E040EC50E40E942934882364F480E0E8
:1016300090E0A0ECB0E48093F7059093F805A093B8
:10164000F905B093FA0580EF94E06AE041E00E946A
:10165000FE204091F7055091F8056091F9057091D1
:10166000FA0580EF94E022E030E00E94CE3080EF77
:1016700094E063E171E00E94E72F6091F7057091BB
:10168000F8058091F9059091FA0520E030E040E2FC
:1016900051E40E942934882364F480EF94E069E0E7
:1016A00041E00E94FE2080EF94E063E171E00E943F
:1016B000E72F8091CD059091CE05019709F01DCFC0
:1016C00064EF71E080E090E00E94482BC7EFD5E026
:1016D00068E270E08B010F5F1F4F499185E796E04C
:1016E0000E949927B8010C321105A1F78FE090E014
:1016F00061E070E00E94FE0382E090E090930606B5
:101700008093050681E090E0909308068093070699
:101710009093980380939703DF91CF911F910F913E
:1017200008950F931F93CF93DF9384E190E063E0DC
:1017300076E00E940F0680EF94E060E041E00E94B6
:10174000FE2080EF94E06EEA71E00E94E72F80EFC8
:1017500094E06FE041E00E94FE20809103069091AA
:101760000406892B29F480EF94E06FEB71E004C04C
:1017700080EF94E061EC71E00E94E72F01E010E05F
:101780000E941E0A9093CE058093CD058530910569
:1017900011F0029761F564EF71E080E090E00E9443
:1017A000482B8091030690910406892B29F410930D
:1017B00004060093030604C0109204061092030668
:1017C00080EF94E06FE041E00E94FE2080910306EC
:1017D00090910406892B29F480EF94E06FEB71E07F
:1017E00004C080EF94E061EC71E00E94E72FC091AB
:1017F000CD05D091CE05C130D10511F664EF71E071
:1018000080E090E00E94482B84E190E063E076E085
:101810000E9433068FE090E061E070E00E94FE03DA
:1018200082E090E09093060680930506D093080628
:10183000C0930706D0939803C0939703DF91CF918D
:101840001F910F910895CF92DF92EF92FF920F9325
:101850001F93DF93CF9300D0CDB7DEB78AEF90E030
:10186000BE016F5F7F4F0E940F0680EF94E060E043
:1018700041E00E94FE2080EF94E063EC71E00E9462
:10188000E72F80EF94E06CE041E00E94FE20698148
:101890007A8180EF94E04AE050E00E94D42F898161
:1018A0009A810A9734F480EF94E063E171E00E943A
:1018B000E72F78ECE72EF12C61E0C62ED12C0E94A8
:1018C0001E0A9093CE058093CD05059799F564EF98
:1018D00071E080E090E00E94482B89819A81019616
:1018E0009A838983893C910514F0FA82E98280EF1A
:1018F00094E06CE041E00E94FE2069817A8180EFF3
:1019000094E04AE050E00E94D42F89819A810A979E
:1019100034F480EF94E063E171E00E94E72F898165
:101920009A818436910534F480EF94E063E171E0AC
:101930000E94E72F8091CD059091CE05029799F5F1
:1019400064EF71E080E090E00E94482B89819A81E9
:1019500001979A8389831816190614F0DA82C982CE
:1019600080EF94E06CE041E00E94FE2069817A8182
:1019700080EF94E04AE050E00E94D42F89819A8160
:101980000A9734F480EF94E063E171E00E94E72F5E
:1019900089819A818436910534F480EF94E063E183
:1019A00071E00E94E72F8091CD059091CE050397BD
:1019B00099F564EF71E080E090E00E94482B898106
:1019C0009A810A969A838983893C910514F0FA8258
:1019D000E98280EF94E06CE041E00E94FE206981A2
:1019E0007A8180EF94E04AE050E00E94D42F898110
:1019F0009A810A9734F480EF94E063E171E00E94E9
:101A0000E72F89819A818436910534F480EF94E040
:101A100063E171E00E94E72F8091CD059091CE05A2
:101A2000049799F564EF71E080E090E00E94482B04
:101A300089819A810A979A838983893C910514F058
:101A4000FA82E98280EF94E06CE041E00E94FE209F
:101A500069817A8180EF94E04AE050E00E94D42FBF
:101A600089819A810A9734F480EF94E063E171E010
:101A70000E94E72F89819A818436910534F480EFA2
:101A800094E063E171E00E94E72F0091CD05109191
:101A9000CE050130110509F012CF64EF71E080E04E
:101AA00090E00E94482B8AEF90E0BE016F5F7F4F6D
:101AB0000E94330669817A81882777FD8095982F67
:101AC0000E94C8346093A7037093A8038093A9036E
:101AD0009093AA036093AF037093B0038093B10314
:101AE0009093B2038FE090E061E070E00E94FE030B
:101AF00082E090E090930606809305061093080616
:101B00000093070610939803009397030F900F908C
:101B1000CF91DF911F910F91FF90EF90DF90CF90C9
:101B20000895CF92DF92EF92FF920F931F93DF936E
:101B3000CF9300D0CDB7DEB789E190E0BE016F5FF3
:101B40007F4F0E940F0680EF94E060E041E00E942A
:101B5000FE2080EF94E061ED71E00E94E72F80EFBE
:101B600094E06CE041E00E94FE2069817A8180EF80
:101B700094E04AE050E00E94D42F89819A810A972C
:101B800034F480EF94E063E171E00E94E72FF8EC19
:101B9000EF2EF12CE1E0CE2ED12C0E941E0A909364
:101BA000CE058093CD05059709F03FC064EF71E045
:101BB00080E090E00E94482B89819A8101969A8367
:101BC0008983893C910514F0FA82E98280EF94E0E0
:101BD0006CE041E00E94FE2069817A8180EF94E010
:101BE0004AE050E00E94D42F60919F037091A003BF
:101BF0008091A1039091A20320E030E040E251E403
:101C00000E942934882334F480EF94E063E171E08A
:101C10000E94E72F89819A818436910534F480EF00
:101C200094E063E171E00E94E72F8091CD059091EF
:101C3000CE05029799F564EF71E080E090E00E9494
:101C4000482B89819A8101979A83898318161906EE
:101C500014F0DA82C98280EF94E06CE041E00E94E7
:101C6000FE2069817A8180EF94E04AE050E00E9492
:101C7000D42F89819A810A9734F480EF94E063E14C
:101C800071E00E94E72F89819A818436910534F4AE
:101C900080EF94E063E171E00E94E72F8091CD0531
:101CA0009091CE05039709F03FC064EF71E080E0AA
:101CB00090E00E94482B89819A810A969A838983B1
:101CC000893C910514F0FA82E98280EF94E06CE09F
:101CD00041E00E94FE2069817A8180EF94E04AE031
:101CE00050E00E94D42F60919F037091A0038091D7
:101CF000A1039091A20320E030E040E251E40E9471
:101D00002934882334F480EF94E063E171E00E9489
:101D1000E72F89819A818436910534F480EF94E02D
:101D200063E171E00E94E72F8091CD059091CE058F
:101D3000049709F03FC064EF71E080E090E00E94FA
:101D4000482B89819A810A979A838983893C9105D6
:101D500014F0FA82E98280EF94E06CE041E00E94A6
:101D6000FE2069817A8180EF94E04AE050E00E9491
:101D7000D42F60919F037091A0038091A103909153
:101D8000A20320E030E040E251E40E94293488239D
:101D900034F480EF94E063E171E00E94E72F8981E1
:101DA0009A818436910534F480EF94E063E171E028
:101DB0000E94E72F0091CD051091CE05013011054D
:101DC00009F0EBCE64EF71E080E090E00E94482BD8
:101DD00089E190E0BE016F5F7F4F0E943306698109
:101DE0007A81882777FD8095982F0E94C834609368
:101DF0009F037093A0038093A1039093A2038FE0AD
:101E000090E061E070E00E94FE0382E090E0909339
:101E100006068093050610930806009307061093A4
:101E20009803009397030F900F90CF91DF911F912C
:101E30000F91FF90EF90DF90CF9008950F931F9335
:101E4000CF93DF938AEA90E061EF75E00E940F067E
:101E500080EF94E060E041E00E94FE2080EF94E09B
:101E600060EE71E00E94E72F80EF94E06CE041E0CB
:101E70000E94FE206091F1057091F20580EF94E0E0
:101E80004AE050E00E94D42F8091FB059091FC0520
:101E90000A9734F480EF94E063E171E00E94E72F49
:101EA0000EE110E00E941E0A9093CE058093CD05AE
:101EB000059789F564EF71E080E090E00E94482B7F
:101EC0008091F1059091F20501969093F20580932F
:101ED000F1054F9724F01093F2050093F10580EF80
:101EE00094E06CE041E00E94FE206091F105709169
:101EF000F20580EF94E04AE050E00E94D42F8091F8
:101F0000F1059091F2050A9734F480EF94E063E1D3
:101F100071E00E94E72F8091CD059091CE05029748
:101F200089F564EF71E080E090E00E94482B809199
:101F3000F1059091F20501979093F2058093F105D8
:101F400097FF04C01092F2051092F10580EF94E023
:101F50006CE041E00E94FE206091F1057091F20575
:101F600080EF94E04AE050E00E94D42F8091F10588
:101F70009091F2050A9734F480EF94E063E171E008
:101F80000E94E72FC091CD05D091CE05C130D1057B
:101F900009F088CF64EF71E080E090E00E94482B68
:101FA0008AEA90E061EF75E00E9433068FE090E0EE
:101FB00061E070E00E94FE0382E090E090930606EC
:101FC00080930506D0930806C0930706D093980324
:101FD000C0939703DF91CF911F910F910895EF92D6
:101FE000FF920F931F93CF93DF9383E290E06BEF09
:101FF00075E00E940F0680EF94E060E041E00E94EF
:10200000FE2080EF94E06FEE71E00E94E72F80EFFA
:1020100094E06CE041E00E94FE206091FB0570912D
:10202000FC0580EF94E04AE050E00E94D42F8091BC
:10203000FB059091FC050A9734F480EF94E063E18E
:1020400071E00E94E72FADE2EA2EF12C03ED1FEFC5
:102050000E941E0A9093CE058093CD05059789F5C1
:1020600064EF71E080E090E00E94482B8091FB05D6
:102070009091FC0501969093FC058093FB058E974B
:1020800024F0F092FC05E092FB0580EF94E06CE018
:1020900041E00E94FE206091FB057091FC0580EFFD
:1020A00094E04AE050E00E94D42F8091FB0590918B
:1020B000FC050A9734F480EF94E063E171E00E943C
:1020C000E72F8091CD059091CE05029791F564EFB1
:1020D00071E080E090E00E94482B8091FB05909198
:1020E000FC0501979093FC058093FB05835D9F4F52
:1020F00024F41093FC050093FB0580EF94E06CE062
:1021000041E00E94FE206091FB057091FC0580EF8C
:1021100094E04AE050E00E94D42F8091FB0590911A
:10212000FC050A9734F480EF94E063E171E00E94CB
:10213000E72FC091CD05D091CE05C130D10509F072
:1021400087CF64EF71E080E090E00E94482B83E24B
:1021500090E06BEF75E00E9433068FE090E061E065
:1021600070E00E94FE0382E090E090930606809368
:102170000506D0930806C0930706D0939803C09332
:102180009703DF91CF911F910F91FF90EF900895EA
:10219000EF92FF920F931F93CF93DF938EE190E026
:1021A00063EF75E00E940F068DE290E065EF75E049
:1021B0000E940F0680EF94E060E041E00E94FE2064
:1021C00080EF94E06CEF71E00E94E72F80EF94E0E5
:1021D0006DE041E00E94FE206091F5057091F605EA
:1021E0006F5F7F4F80EF94E04AE050E00E94D42F71
:1021F0006091F3057091F4056F5F7F4F80EF94E07D
:102200004AE050E00E94D42FB7E0EB2EF12C04E01E
:1022100010E00E941E0A9093CE058093CD0505978D
:1022200009F051C064EF71E080E090E00E94482B1B
:1022300080EF94E06DE041E00E94FE208091F30584
:102240009091F40501969093F4058093F305089717
:102250009CF01092F4051092F3058091F505909191
:10226000F60501969093F6058093F505059724F001
:102270001092F6051092F5056091F5057091F6053E
:102280006F5F7F4F80EF94E04AE050E00E94D42FD0
:102290006091F3057091F4056F5F7F4F80EF94E0DC
:1022A0004AE050E00E94D42F6091F3057091F4054C
:1022B0008091F5059091F60541E050E00E94780587
:1022C000892B09F4B5CF8091CD059091CE05029769
:1022D00009F051C064EF71E080E090E00E94482B6B
:1022E00080EF94E06DE041E00E94FE208091F305D4
:1022F0009091F40501979093F4058093F30597FF6F
:1023000013C0F092F405E092F3058091F5059091E9
:10231000F60501979093F6058093F50597FF04C0A5
:102320001093F6050093F5056091F5057091F6059B
:102330006F5F7F4F80EF94E04AE050E00E94D42F1F
:102340006091F3057091F4056F5F7F4F80EF94E02B
:102350004AE050E00E94D42F6091F3057091F4059B
:102360008091F5059091F60541E050E00E947805D6
:10237000892B09F4B5CFC091CD05D091CE05C130E0
:10238000D10509F046CF64EF71E080E090E00E9453
:10239000482B8EE190E063EF75E00E9433068DE2FA
:1023A00090E065EF75E00E9433068FE090E061E019
:1023B00070E00E94FE0382E090E090930606809316
:1023C0000506D0930806C0930706D0939803C093E0
:1023D0009703DF91CF911F910F91FF90EF90089598
:1023E000AF92BF92CF92DF92EF92FF920F931F9323
:1023F000CF93DF9380EF94E060E041E00E94FE2005
:1024000080EF94E06DE072E00E94E72F80EF94E0AF
:102410006FE041E00E94FE2080EF94E06FEB71E0FE
:102420000E94E72F00E010E00E941E0A9093CE0564
:102430008093CD058530910511F0029709F564EF81
:1024400071E080E090E00E94482B80E090E0012B5A
:1024500011F481E090E08C0180EF94E06FE041E0C6
:102460000E94FE200115110529F480EF94E06FEB26
:1024700071E004C080EF94E061EC71E00E94E72F0E
:10248000C091CD05D091CE05C130D10569F664EF7C
:1024900071E080E090E00E94482B012BA9F48FE0CE
:1024A00090E061E070E00E94FE0382E090E0909393
:1024B000060680930506D0930806C0930706D093BE
:1024C0009803C0939703C9C08EE190E063EF75E075
:1024D0000E940F068DE290E065EF75E00E940F0606
:1024E00080EF94E06EE041E00E94FE2080EF94E0F7
:1024F00060E272E00E94E72FC090F305D090F405EF
:10250000E090F505F090F60500E010E0C0E0D0E0C6
:10251000AA24BB248091F3059091F4050196909331
:10252000F4058093F30508979CF01092F40510923F
:10253000F3058091F5059091F60501969093F605C7
:102540008093F505059724F01092F6051092F50595
:102550006091F3057091F4058091F5059091F60571
:1025600042E050E00E947805A816B9064CF4C090ED
:10257000F305D090F405E090F505F090F6055C01C8
:1025800080EF94E06EE041E00E94FE20CD2B49F404
:1025900080EF94E06EE171E00E94E72FC1E0D0E0AF
:1025A00008C080EF94E06CE171E00E94E72FC0E08A
:1025B000D0E00932110519F00F5F1F4FABCF80EF4C
:1025C00094E06DE041E00E94FE20B7016F5F7F4F15
:1025D00080EF94E04AE050E00E94D42FB6016F5F94
:1025E0007F4F80EF94E04AE050E00E94D42FF092B9
:1025F000F605E092F505D092F405C092F305C70107
:10260000B60141E050E00E94780560ED77E080E09F
:1026100090E00E94482B8EE190E063EF75E00E940D
:1026200033068DE290E065EF75E00E9433068FE09F
:1026300090E061E070E00E94FE0382E090E0909301
:1026400006068093050681E090E09093080680934B
:1026500007069093980380939703DF91CF911F9182
:102660000F91FF90EF90DF90CF90BF90AF900895C3
:10267000EF92FF920F931F93CF93DF938EE190E041
:1026800063EF75E00E940F068DE290E065EF75E064
:102690000E940F0680EF94E060E041E00E94FE207F
:1026A00080EF94E065E272E00E94E72F80EF94E013
:1026B0006DE041E00E94FE206091F5057091F60505
:1026C0006F5F7F4F80EF94E04AE050E00E94D42F8C
:1026D0006091F3057091F4056F5F7F4F80EF94E098
:1026E0004AE050E00E94D42F16E0E12EF12C07E0E2
:1026F00010E00E941E0A9093CE058093CD050397AB
:1027000009F03FC064EF71E080E090E00E94482B48
:102710008091F5059091F60501969093F6058093CA
:10272000F505079724F01092F6051092F5056091D3
:10273000F3057091F4058091F5059091F60541E05F
:1027400050E00E94780580EF94E06DE041E00E9447
:10275000FE206091F5057091F6056F5F7F4F80EF69
:1027600094E04AE050E00E94D42F6091F30570910C
:10277000F4056F5F7F4F80EF94E04AE050E00E94E5
:10278000D42F8091CD059091CE05049709F03FC0DC
:1027900064EF71E080E090E00E94482B8091F505A5
:1027A0009091F60501979093F6058093F50597FFB4
:1027B00004C0F092F605E092F5056091F305709182
:1027C000F4058091F5059091F60541E050E00E94F6
:1027D000780580EF94E06DE041E00E94FE2060917A
:1027E000F5057091F6056F5F7F4F80EF94E04AE04A
:1027F00050E00E94D42F6091F3057091F4056F5F53
:102800007F4F80EF94E04AE050E00E94D42F809107
:10281000CD059091CE05059709F03FC064EF71E0BA
:1028200080E090E00E94482B8091F3059091F405A0
:1028300001969093F4058093F305089724F0109285
:10284000F4051092F3056091F3057091F405809101
:10285000F5059091F60541E050E00E94780580EF83
:1028600094E06DE041E00E94FE206091F5057091DA
:10287000F6056F5F7F4F80EF94E04AE050E00E94E2
:10288000D42F6091F3057091F4056F5F7F4F80EF57
:1028900094E04AE050E00E94D42F8091CD059091C1
:1028A000CE05029709F03FC064EF71E080E090E050
:1028B0000E94482B8091F3059091F4050197909325
:1028C000F4058093F30597FF04C01093F40500937B
:1028D000F3056091F3057091F4058091F5059091F1
:1028E000F60541E050E00E94780580EF94E06DE04D
:1028F00041E00E94FE206091F5057091F6056F5F42
:102900007F4F80EF94E04AE050E00E94D42F609126
:10291000F3057091F4056F5F7F4F80EF94E04AE01C
:1029200050E00E94D42FC091CD05D091CE05C1308A
:10293000D10509F0DECE64EF71E080E090E00E9406
:10294000482B8EE190E063EF75E00E9433068DE244
:1029500090E065EF75E00E9433068FE090E061E063
:1029600070E00E94FE0382E090E090930606809360
:102970000506D0930806C0930706D0939803C0932A
:102980009703DF91CF911F910F91FF90EF900895E2
:1029900080EF94E060E041E00E94FE2080EF94E050
:1029A00061E372E00E94E72F80EF94E06DE041E088
:1029B0000E94FE200E941E0A9093CE058093CD05B2
:1029C000029721F483E090E00E943B048091CD05C2
:1029D0009091CE05019771F764EF71E080E090E08F
:1029E0000E94482B0E9457060895EF92FF920F9382
:1029F0001F93CF93DF9380EF94E060E041E00E946B
:102A0000FE2080EF94E063E271E00E94E72F1092D5
:102A1000E2051092E1058EE00E94E62BEE24FF24F1
:102A2000C0E0D0E00091E1051091E2058EE00E9447
:102A3000E62B080F191F1093E2050093E105CD2B3B
:102A400079F480EF94E06CE041E00E94FE2080EF9A
:102A500094E06CE171E00E94E72FC1E0D0E00EC08D
:102A600080EF94E06CE041E00E94FE2080EF94E073
:102A70006EE171E00E94E72FC0E0D0E062E370E019
:102A800080E090E00E94482B0894E11CF11C82E356
:102A9000E816F10439F68091E1059091E20562E3D0
:102AA00070E00E940E36CB0177FF03C090958195B0
:102AB0009F4F9093E2058093E1051092E4051092F8
:102AC000E30580E10E94E62BEE24FF24C0E0D0E085
:102AD0000091E3051091E40580E10E94E62B080FC8
:102AE000191F1093E4050093E305CD2B79F480EFD3
:102AF00094E06CE041E00E94FE2080EF94E06CE105
:102B000071E00E94E72FC1E0D0E00EC080EF94E0BA
:102B10006CE041E00E94FE2080EF94E06EE171E005
:102B20000E94E72FC0E0D0E062E370E080E090E038
:102B30000E94482B0894E11CF11C82E3E816F10482
:102B400039F68091E3059091E40562E370E00E941C
:102B50000E36CB0177FF03C0909581959F4F9093E0
:102B6000E4058093E3051092EA051092E9058FE0F1
:102B70000E94E62BEE24FF24C0E0D0E00091E9059E
:102B80001091EA058FE00E94E62B080F191F1093A1
:102B9000EA050093E905CD2B79F480EF94E06CE031
:102BA00041E00E94FE2080EF94E06CE171E00E9421
:102BB000E72FC1E0D0E00EC080EF94E06CE041E090
:102BC0000E94FE2080EF94E06EE171E00E94E72F0A
:102BD000C0E0D0E062E370E080E090E00E94482B2B
:102BE0000894E11CF11C82E3E816F10439F68091A7
:102BF000E9059091EA0562E370E00E940E36CB0190
:102C000077FF03C0909581959F4F9093EA0580933D
:102C1000E9051092EC051092EB0584E10E94E62B89
:102C2000EE24FF24C0E0D0E00091EB051091EC050C
:102C300084E10E94E62B080F191F1093EC05009306
:102C4000EB05CD2B79F480EF94E06CE041E00E943D
:102C5000FE2080EF94E06CE171E00E94E72FC1E07C
:102C6000D0E00EC080EF94E06CE041E00E94FE20D6
:102C700080EF94E06EE171E00E94E72FC0E0D0E0C9
:102C800062E370E080E090E00E94482B0894E11C31
:102C9000F11C82E3E816F10439F68091EB0590917E
:102CA000EC0562E370E00E940E36CB0177FF03C0B3
:102CB000909581959F4F9093EC058093EB0586E965
:102CC00090E061EE75E00E94330680EA90E063EEEA
:102CD00075E00E94330684EB90E069EE75E00E9497
:102CE00033068EEB90E06BEE75E00E94330680EFCA
:102CF00094E060E041E00E94FE2080EF94E064E315
:102D000071E00E94E72F0E94C814DF91CF911F91BC
:102D10000F91FF90EF90089580EF94E060E041E024
:102D20000E94FE2080EF94E061E472E00E94E72FB1
:102D300080EF94E06DE041E00E94FE200E941E0AB8
:102D40009093CE058093CD05029721F483E090E027
:102D50000E943B048091CD059091CE05019771F7BB
:102D600064EF71E080E090E00E94482B0E94F5142F
:102D70000895EF92FF920F931F93CF93DF938FE00D
:102D800090E061E076E00E940F0680EF94E060E062
:102D900041E00E94FE2080EF94E062E572E00E9434
:102DA000E72F80EF94E06AE041E00E94FE2060910E
:102DB00001067091020680EF94E04AE050E00E9424
:102DC000D42F00E4E02E06E0F02E08E715E00E9484
:102DD0001E0A9093CE058093CD05059771F564EF9B
:102DE00071E080E090E00E94482B80910106909174
:102DF0000206019690930206809301068154964044
:102E000024F0F0920206E0920106609101067091B2
:102E1000020689E095E00E94E62580EF94E06AE0F2
:102E200041E00E94FE20609101067091020680EF51
:102E300094E04AE050E00E94D42F8091CD0590911B
:102E4000CE05029771F564EF71E080E090E00E949A
:102E5000482B8091010690910206019790930206FB
:102E6000809301068857954024F41093020600933E
:102E70000106609101067091020689E095E00E94CA
:102E8000E62580EF94E06AE041E00E94FE20609138
:102E900001067091020680EF94E04AE050E00E9443
:102EA000D42F8091CD059091CE05039771F564EFF5
:102EB00071E080E090E00E94482B809101069091A3
:102EC00002060A969093020680930106815496406A
:102ED00024F0F0920206E0920106609101067091E2
:102EE000020689E095E00E94E62580EF94E06AE022
:102EF00041E00E94FE20609101067091020680EF81
:102F000094E04AE050E00E94D42F8091CD0590914A
:102F1000CE05049771F564EF71E080E090E00E94C7
:102F2000482B80910106909102060A979093020621
:102F3000809301068857954024F41093020600936D
:102F40000106609101067091020689E095E00E94F9
:102F5000E62580EF94E06AE041E00E94FE20609167
:102F600001067091020680EF94E04AE050E00E9472
:102F7000D42FC091CD05D091CE05C130D10509F037
:102F800026CF64EF71E080E090E00E94482B8FE054
:102F900090E061E076E00E9433060E948F00BC0161
:102FA00089E095E00E94E6258FE090E061E070E026
:102FB0000E94FE0382E090E090930606809305064F
:102FC000D0930806C0930706D0939803C093970345
:102FD000DF91CF911F910F91FF90EF900895EF92A5
:102FE000FF920F931F93CF93DF938AE090E06FEFF0
:102FF00075E00E940F0680EF94E060E041E00E94DF
:10300000FE2080EF94E064E672E00E94E72F80EFFC
:1030100094E06AE041E00E94FE206091FF0570911B
:10302000000680EF94E04AE050E00E94D42F80E454
:10303000E82E86E0F82E08E715E00E941E0A90931D
:10304000CE058093CD05059771F564EF71E080E0C2
:1030500090E00E94482B8091FF0590910006019618
:10306000909300068093FF058154964024F0F092DF
:103070000006E092FF056091FF057091000689E06F
:1030800095E00E94E62580EF94E06AE041E00E942E
:10309000FE206091FF057091000680EF94E04AE009
:1030A00050E00E94D42F8091CD059091CE050297DB
:1030B00071F564EF71E080E090E00E94482B809110
:1030C000FF05909100060197909300068093FF05FD
:1030D0008857954024F4109300060093FF056091F3
:1030E000FF057091000689E095E00E94E62580EFDB
:1030F00094E06AE041E00E94FE206091FF0570913B
:10310000000680EF94E04AE050E00E94D42F8091C6
:10311000CD059091CE05039771F564EF71E080E0E5
:1031200090E00E94482B8091FF05909100060A963E
:10313000909300068093FF058154964024F0F0920E
:103140000006E092FF056091FF057091000689E09E
:1031500095E00E94E62580EF94E06AE041E00E945D
:10316000FE206091FF057091000680EF94E04AE038
:1031700050E00E94D42F8091CD059091CE05049708
:1031800071F564EF71E080E090E00E94482B80913F
:10319000FF05909100060A97909300068093FF0523
:1031A0008857954024F4109300060093FF05609122
:1031B000FF057091000689E095E00E94E62580EF0A
:1031C00094E06AE041E00E94FE206091FF0570916A
:1031D000000680EF94E04AE050E00E94D42FC091B6
:1031E000CD05D091CE05C130D10509F026CF64EFD1
:1031F00071E080E090E00E94482B8AE090E06FEF61
:1032000075E00E9433068FE090E061E070E00E947C
:10321000FE030E948F00BC0189E095E00E94E62534
:1032200082E090E09093060680930506D09308060E
:10323000C0930706D0939803C0939703DF91CF9173
:103240001F910F91FF90EF900895CF93DF930E940D
:103250001E0A9093CE058093CD058091070690912C
:1032600008068F31910509F446C180329105FCF4BE
:103270008531910509F486C08631910564F4823068
:10328000910509F458C08330910509F4F1C0019704
:1032900009F079C227C08731910509F4C5C087318B
:1032A00091050CF493C04E9709F06DC200C18332B2
:1032B000910509F4CEC18432910544F4813291051F
:1032C00009F475C182970CF0A0C143C18532910504
:1032D00009F406C2853291050CF4DFC1869709F026
:1032E00052C22FC286E792E00E94E4028091CD058F
:1032F0009091CE05049721F482E090E00E943B0477
:10330000C091CD05D091CE05C130D10509F03BC2A9
:103310000E944C0480EF94E060E041E00E94FE20B7
:1033200080EF94E064E371E00E94E72FD0930606FB
:10333000C093050628C28CE792E00E94E4028091C7
:10334000CD059091CE05039721F481E090E00E9495
:103350003B048091CD059091CE05049721F483E044
:1033600090E00E943B048091CD059091CE05813084
:10337000910519F0059709F006C20E944C0485E1F9
:1033800090E092C086E892E00E94E4028091CD0530
:103390009091CE05049721F486E190E00E943B04D1
:1033A0008091CD059091CE05029721F482E090E0C6
:1033B0000E943B048091CD059091CE05019709F0C4
:1033C000E2C10E944C040E943813DDC185E992E0FD
:1033D0000E94E4028091CD059091CE05039721F4DF
:1033E00085E190E00E943B048091CD059091CE054F
:1033F000049721F487E190E00E943B048091CD0581
:103400009091CE05029721F482E090E00E943B0467
:103410008091CD059091CE05019709F0B4C10E942D
:103420004C040E94F011AFC184EA92E00E94E402D1
:103430008091CD059091CE05039721F486E190E02F
:103440000E943B048091CD059091CE05029721F416
:1034500082E090E00E943B048091CD059091CE05E2
:10346000019709F090C10E944C040E94C8108BC1C2
:1034700085EB92E00E94E4028091CD059091CE050B
:10348000039721F482E090E00E943B048091CD05F7
:103490009091CE058130910519F0059709F073C11F
:1034A0000E944C048EE190E00E943B046CC180ECD1
:1034B00092E00E94E4028091CD059091CE050497A0
:1034C00021F48FE190E00E943B048091CD05909122
:1034D000CE05029721F483E090E00E943B048091A6
:1034E000CD059091CE05019709F04DC10E944C0485
:1034F0000E948C1648C18CEC92E00E94E4028091FC
:10350000CD059091CE05049721F480E290E00E94D1
:103510003B048091CD059091CE05039721F48EE177
:1035200090E00E943B048091CD059091CE050297DA
:1035300021F483E090E00E943B048091CD059091BE
:10354000CE05019709F01FC10E944C040E94EF0FA5
:103550001AC184ED92E00E94E4028091CD05909121
:10356000CE05049721F481E290E00E943B04809113
:10357000CD059091CE05039721F48FE190E00E9454
:103580003B048091CD059091CE05029721F483E014
:1035900090E00E943B048091CD059091CE0501976B
:1035A00009F0F1C00E944C040E941E0FECC082EE94
:1035B00092E00E94E4028091CD059091CE0504979F
:1035C00021F482E290E00E943B048091CD0590912D
:1035D000CE05039721F480E290E00E943B048091A5
:1035E000CD059091CE05029721F483E090E00E94F2
:1035F0003B048091CD059091CE05019709F0C3C0A1
:103600000E944C040E94910DBEC084EF92E00E9483
:10361000E4028091CD059091CE05039721F481E2DB
:1036200090E00E943B048091CD059091CE050497D7
:1036300021F483E290E00E943B048091CD059091BB
:10364000CE05019709F074C00E944C040E94EF1748
:103650006FC085E093E00E94E4028091CD059091D7
:10366000CE05039721F482E290E00E943B04809112
:10367000CD059091CE05049721F484E290E00E945C
:103680003B048091CD059091CE05019709F050C083
:103690000E944C040E94B9164BC086E193E00E9440
:1036A000E4028091CD059091CE05039721F483E249
:1036B00090E00E943B048091CD059091CE05049747
:1036C00021F485E290E00E943B048091CD05909129
:1036D000CE05019769F50E944C040E94910B28C009
:1036E00086E293E00E94E4028091CD059091CE05A0
:1036F000039721F484E290E00E943B048091CD0581
:103700009091CE05049751F4809111069091120684
:10371000892B21F486E290E00E943B048091CD0544
:103720009091CE05019721F40E944C040E94490A11
:103730008091CD059091CE05029729F583E090E028
:10374000B3CE86E393E00E94E4028091CD05909190
:10375000CE05039721F485E290E00E943B0480911E
:10376000CD059091CE05029721F483E090E00E9470
:103770003B048091CD059091CE05019721F40E94E4
:103780004C040E94230CDF91CF9108956F927F9299
:103790008F929F92AF92BF92CF92DF92EF92FF9261
:1037A0000F931F938091B3030E94E62B8091B30384
:1037B0000E94E62B0697CCF180EF94E00E9428212E
:1037C00062E370E080E090E00E94482B80EF94E09C
:1037D00060E040E00E94FE2080EF94E065E473E04A
:1037E0000E94E72F68EE73E080E090E00E94482B93
:1037F00080EF94E060E041E00E94FE2080EF94E0E2
:103800006BE473E00E94E72F68EE73E080E090E0E5
:103810000E94482B8091B3030E94E62B02972CF460
:10382000E0911D06F0911E0609958EE00E94E62BA0
:103830008EE00E94E62B9093D0058093CF0580E127
:103840000E94E62B80E10E94E62B9093D2058093A4
:10385000D1058FE00E94E62B8FE00E94E62B90932B
:10386000D4058093D30584E10E94E62B84E10E9475
:10387000E62B9093D6058093D5056091D305709182
:10388000D405882777FD8095982F0E94C8340E9420
:103890008A010E9495347093D4056093D30560919A
:1038A000D5057091D605882777FD8095982F0E94C1
:1038B000C8340E94DD000E9495347093D605609351
:1038C000D50500D000D06091CF057091D005882734
:1038D00077FD8095982F2091E1053091E2054427EE
:1038E00037FD4095542FE090E505F090E605002760
:1038F000F7FC0095102FE4E66E2E712C812C912C94
:10390000EDB7FEB76182728283829482AA24BB24BF
:1039100065010E947B337093D8056093D705609151
:10392000D1057091D205882777FD8095982F209139
:10393000E3053091E405442737FD4095542FE0908E
:10394000E705F090E8050027F7FC0095102FEDB78C
:10395000FEB761827282838294820E947B3370936D
:10396000DA056093D9056091D3057091D405882755
:1039700077FD8095982F2091E9053091EA0544273D
:1039800037FD4095542FE090ED05F090EE050027AF
:10399000F7FC0095102FEDB7FEB76182728283822B
:1039A00094820E947B337093DE056093DD05609105
:1039B000D5057091D605882777FD8095982F2091A1
:1039C000EB053091EC05442737FD4095542FE090EE
:1039D000EF05F090F0050027F7FC0095102FEDB7EC
:1039E000FEB761827282838294820E947B3320912F
:1039F000D7053091D8050F900F900F900F90253676
:103A0000310514F024E630E037FF02C020E030E05A
:103A10003093D8052093D7052091D9053091DA0548
:103A20002536310514F024E630E037FF02C020E0EF
:103A300030E03093DA052093D9052091DD053091EF
:103A4000DE052536310514F024E630E037FF02C0EC
:103A500020E030E03093DE052093DD05653671050A
:103A600014F064E670E077FF02C060E070E07093ED
:103A7000E0056093DF058091110690911206892B75
:103A800009F057C02617370724F4CB01821B930B8C
:103A900003C0C901861B970B02970CF44AC062173A
:103AA0007307F4F482E061E00E94472C83E060E059
:103AB0000E94472C10920E0610920D0681E090E0B5
:103AC00090939A038093990380EF94E06AE041E039
:103AD0000E94FE2080EF94E06CE573E00E94E72FE7
:103AE0002091DF053091E0058091DD059091DE05A4
:103AF00082179307F4F482E060E00E94472C83E091
:103B000061E00E94472C1092100610920F0682E08E
:103B100090E090939A038093990380EF94E06AE099
:103B200041E00E94FE2080EF94E060E673E00E9496
:103B3000E72FA090D705B090D805C090D905D090B8
:103B4000DA05CA14DB0424F495012C193D0903C0DD
:103B500096012A193B09B901882777FD8095982F8E
:103B60000E94C83420E030E04AE753E40E947C35EC
:103B70007B018C01CA0CDB1CB601882777FD809580
:103B8000982F0E94C83420E030E040E05FE30E94BC
:103B90007C359B01AC01C801B7010E942D340E9405
:103BA00095347093DC056093DB05882777FD80955D
:103BB000982F0E94C8340E9437020E949534AB01AE
:103BC0007093DC056093DB05CB0177FF04C0882789
:103BD0009927841B950B2091FB053091FC05280F3C
:103BE000391F3093FE052093FD0580910B069091BF
:103BF0000C06009709F091C08091DD059091DE05DB
:103C00000A97C4F48091DF059091E0050A9794F437
:103C10000E948F00BC0189E095E00E94AA2580EFF8
:103C200094E06FE041E00E94FE2080EF94E064E6C3
:103C300073E018C08091F1059091F2058417950703
:103C4000D4F00E948F00BC0189E095E00E94AA2573
:103C500080EF94E06FE041E00E94FE2080EF94E06E
:103C600066E673E00E94E72F82E390E090930C06F3
:103C700080930B065DC04091D7055091D805809187
:103C8000D9059091DA05841795070CF58091030604
:103C9000909104066091FF0570910006892B29F42C
:103CA000621B730B89E095E005C0260F371F89E082
:103CB00095E0B9010E94AA2580EF94E06FE041E011
:103CC0000E94FE2080EF94E068E673E023C048176E
:103CD000590774F5809103069091040660910106DE
:103CE00070910206892B31F4260F371F89E095E089
:103CF000B90104C0621B730B89E095E00E94AA25FC
:103D000080EF94E06FE041E00E94FE2080EF94E0BD
:103D10006AE673E00E94E72F0BC0019790930C06B0
:103D200080930B0697FF04C010920C0610920B06AE
:103D30008091090690910A06019711F40E940B03E5
:103D40008091090690910A06019690930A06809345
:103D50000906845C994021F410920A061092090623
:103D60001F910F91FF90EF90DF90CF90BF90AF9099
:103D70009F908F907F906F9008958091050690910D
:103D800006068130910519F0029731F403C00E94B4
:103D9000C61B02C00E94251981E295E00E941F22E5
:103DA0000895EF92FF920F931F93CF93DF938AE2D0
:103DB00097E00E94E72A08E08AE297E0602F0E94DD
:103DC0000D2A8AE297E00E94D22A882371F40F33E9
:103DD00021F480EF94E06FE305C0073231F480EF07
:103DE00094E067E20E94F52308E70F5F083720F3AD
:103DF00080EF94E060E142E020E00E94AA2480EF9E
:103E000094E00E94D82080EF94E00E94EC208CE0A7
:103E100095E065E070E00E9449230E94FC0780EF76
:103E200094E060E040E00E94FE2080EF94E06CE6C9
:103E300073E00E94E72F80EF94E060E041E00E9491
:103E4000FE2080EF94E06CE773E00E94E72F8FE0A4
:103E500090E061E070E00E94FE0384EB90E069EE88
:103E600075E00E940F068EEB90E06BEE75E00E940D
:103E70000F0686E990E061EE75E00E940F0680EA89
:103E800090E063EE75E00E940F068CED90E06DEE21
:103E900075E00E940F0686EE90E06FEE75E00E94DE
:103EA0000F0688EC90E065EE75E00E940F0682ED4B
:103EB00090E067EE75E00E940F068EE190E063EF00
:103EC00075E00E940F068DE290E065EF75E00E94BC
:103ED0000F0683E290E06BEF75E00E940F068AEA1E
:103EE00090E061EF75E00E940F06C7EFD5E068E251
:103EF00070E08B010F5F1F4F85E796E00E949227CD
:103F00008993B8010C321105A1F78AE090E06FEFB8
:103F100075E00E940F068FE090E061E076E00E947D
:103F20000F06CFE9D3E069E170E08B010F5F1F4F0F
:103F300085E796E00E9492278993B8010D3111051B
:103F4000A1F707EA13E078016AEF70E0EB01219630
:103F500085E796E00E949227F70181937F01CE3F8B
:103F6000D10511F0BE01F2CF6AEF70E0EB012196AE
:103F700085E796E00E949227F80181938F01CE3F5A
:103F8000D10511F0BE01F2CF84E190E063E076E06C
:103F90000E940F0684E690E063E176E00E940F063F
:103FA0008EE690E065E176E00E940F0688E790E0FB
:103FB00067E176E00E940F0682E890E069E176E032
:103FC0000E940F068CE890E06BE176E00E940F06FD
:103FD0008BE061E00E94082C8AE061E00E94082CDE
:103FE00086E061E00E94082C87E061E00E94082CD6
:103FF00088E061E00E94082C89E061E00E94082CC2
:104000008BE060E00E94472C8AE060E00E94472C31
:1040100086E060E00E94472C87E060E00E94472C29
:1040200088E060E00E94472C89E060E00E94472C15
:1040300089E095E065E070E00E94CD2687EC97E08E
:1040400040E855E260E070E00E94252D0E948F005C
:10405000BC0189E095E00E94AA2586E061E00E940B
:10406000472C87E061E00E94472C88E061E00E94D5
:10407000472C89E061E00E94472C6091F505709122
:10408000F6054091F3055091F40586E090E00E941A
:10409000F0046091F5057091F6054091F30550919B
:1040A000F40587E090E00E94F0046091F5057091BE
:1040B000F6054091F3055091F40588E090E00E94E8
:1040C000F0046091F5057091F6054091F30550916B
:1040D000F40589E090E00E94F00486E061E00E942F
:1040E000472C87E061E00E94472C88E061E00E9455
:1040F000472C89E061E00E94472C82E061E00E9449
:10410000082C83E061E00E94082C82E061E00E94BC
:10411000472C83E060E00E94472C81E295E048E86C
:1041200053E160E070E02AED33E00E94162281E264
:1041300095E040E157E260E070E023E634E00E9461
:10414000162280EF94E00E94282184E10E94E62B51
:1041500084E10E94E62B9093D6058093D5050A97BB
:1041600034F481E090E090931206809311060E944F
:10417000DA030E94590382E090E090930606809350
:10418000050681E090E09093080680930706DF9192
:10419000CF911F910F91FF90EF900895089508958A
:1041A000FC011382128289EA94E09183808308954E
:1041B000FC01A081B18118962D913C9119976FEF68
:1041C000F90109950895DC01ED91FC910284F385D4
:1041D000E02D40E009950895FC0166816E7F6683BD
:1041E00064600E94E3200895FC016581862F84604D
:1041F00085836C60CF010E94E3200895DC0117964F
:104200009C911797491710F0492F415018968C919F
:104210001897803139F4943029F4E42FF0E0EB540E
:10422000FB4F04C0E42FF0E0E754FB4F8081680FA0
:104230006068CD010E94E3200895DC01ED91FC91BE
:104240000284F385E02D41E0099581E090E0089536
:1042500061E00E94E32080ED97E00E94A12B089589
:10426000CF93DF93EC01423018F08C8188608C830F
:104270004F836887222329F0413019F48C818460B0
:104280008C8364E670E080E090E00E94482B6C81B3
:1042900064FD31C0E881F9810284F385E02DCE010F
:1042A00063E042E0099584E991E10E94A12BE88155
:1042B000F9810284F385E02DCE0163E042E00995A7
:1042C00084E991E10E94A12BE881F9810284F385C0
:1042D000E02DCE0163E042E0099586E990E00E947E
:1042E000A12BE881F9810284F385E02DCE0162E003
:1042F00042E0099516C06062CE010E94E32084E985
:1043000091E10E94A12B6C816062CE010E94E320AA
:1043100086E990E00E94A12B6C816062CE010E9430
:10432000E3206C816062CE010E94E32084E08D83F3
:10433000CE010E94F420CE010E94282182E08E83CB
:10434000CE0166E00E94E320CE010E94D820DF91DA
:10435000CF910895EF92FF920F931F93CF93DF9326
:104360007C018AEA90E0E80EF91EF70180819181D4
:10437000E6E5FFEFEE0EFF1E0A970CF048C0F701CE
:10438000B896C0E0D0E080819181892B09F449C0C2
:1043900021963296CA30D105B1F739C0FE013F9659
:1043A000EE0FFF1FEE0FFF1FEE0DFF1D4083518329
:1043B00062837383FE017496EE0FFF1FEE0DFF1DE7
:1043C00031832083FE01F296EE0FFF1FEE0DFF1DDD
:1043D00011830083F701EC0FFD1FE457FF4F81E0CD
:1043E00080830E943A2BFE01EE0FFF1FEE0FFF1F8E
:1043F000EE0DFF1D6083718382839383F701E65581
:10440000FF4F8081918101969183808302C0CFEF1D
:10441000DFEFCE01DF91CF911F910F91FF90EF90D1
:1044200008952115310509F0B9CFF1CF0F931F93EE
:1044300000E010E00E94AA211F910F9108952F9291
:104440003F924F925F926F927F928F929F92AF9224
:10445000BF92CF92DF92EF92FF920F931F93CF9371
:10446000DF936C010E943A2B1B012C01F601EA56E6
:10447000FF4FB6013CE8632E712C6C0C7D1CE601ED
:10448000CC59DF4F4301AA24BB2411821082EE567F
:10449000F04080819181E259FF4F892B09F440C09F
:1044A000DB01ED90FD900D911C911397DC962D9101
:1044B0003D914D915C91DF97D201C1018E199F0909
:1044C000A00BB10B82179307A407B50748F12E0D77
:1044D0003F1D401F511FDB012D933D934D935C9376
:1044E0001397D4018C918823D9F028813981211523
:1044F000310519F441E050E011C08C899D89821783
:10450000930774F4A1E0B0E0B183A08301969D8B82
:104510008C8B8217930724F042E050E05183408354
:104520000894A11CB11C32966C5F7F4F0894811CCB
:10453000911C22965AE0A516B10409F0A6CFE60117
:10454000A8962CE3E22EF12CEC0CFD1C86010858F9
:104550001F4F8AEA90E0C80ED91E5701D8015E9617
:104560008D919C915F978130910519F0029719F513
:1045700004C0E881F98109951EC0E881F981099597
:10458000F6012081318121153105A9F088819981B9
:10459000892B89F019821882D3011C92F7011082AD
:1045A000118212821382D8011D921C922150304038
:1045B000F6013183208322960894611C711C44E02B
:1045C00050E0E40EF51E0E5F1F4FCA15DB0531F6F5
:1045D000DF91CF911F910F91FF90EF90DF90CF90DF
:1045E000BF90AF909F908F907F906F905F904F9013
:1045F0003F902F9008950F931F93CF93DF93EC017B
:104600000E943A2BAE0144575F4FFE01B8968E01CF
:1046100020E030E0DA011D92AD0111821082D80154
:104620006D937D938D939D938D01E05BFF4F118280
:1046300010822F5F3F4FEE54F0402A30310551F782
:10464000C655DF4F19821882DF91CF911F910F91CC
:104650000895FC0185E090E0918380838091B3030D
:104660009091B403938382838091B5039091B603B4
:10467000958384831782168211861086138612868C
:104680001586148617861686118A128A138A148A4A
:104690000895FC01718360830895EF92FF920F9358
:1046A0001F93CF93DF93EC010E943A2B288139812D
:1046B000442737FD4095542FE988FA880B891C89D7
:1046C0002E0D3F1D401F511F26173707480759075A
:1046D00018F021E030E081C0888599859D878C871E
:1046E0008A810E94E62BBC01998788878C859D85ED
:1046F0006817790721F4188A8E859F8519C081E093
:10470000888B8A859B859F878E87209113063091A1
:1047100014064C815D81C901841B950B8617970790
:1047200054F4240F351F621773072CF483E090E0D4
:104730009B878A874AC02091150630911606C901C9
:10474000841B950B8617970744F4240F351F6217B7
:1047500073071CF484E090E0EBCF209119063091B0
:104760001A06C901841B950B8617970744F4240F7A
:10477000351F621773071CF485E090E0D9CF2091B4
:10478000170630911806C901841B950B86179707E9
:1047900044F4240F351F621773071CF482E090E085
:1047A000C7CF20911B0630911C06C901841B950BB5
:1047B0008617970744F4240F351F621773071CF4FC
:1047C00081E090E0B5CF1B861A868889882319F48A
:1047D0002FEF3FEF02C02A853B85C901DF91CF91C2
:1047E0001F910F91FF90EF900895FC01638708954A
:1047F000DC0181E090E002C0880F991F6A95E2F722
:104800001C968C931C971A965C934E931997ED9176
:10481000FC9111970084F185E02DCD0160E00995B0
:104820000895DF92EF92FF920F931F938C01D62E83
:104830008EE0E82EF12CE00EF11EF80162896D2960
:10484000C7010E944D25F801628960956D21C7015D
:104850000E944D251F910F91FF90EF90DF900895DA
:10486000DC01FC0120E090E070E060FF02C085897F
:10487000282B9F5F3196943019F075956795F4CF8A
:10488000413019F454964C9154971D968C911D9774
:10489000842B282BCD01622F0E94112408950F93A1
:1048A0001F93CF93DF93EC01142F062F0F7042302C
:1048B00019F4602F40E00CC070E044E075956795F6
:1048C0004A95E1F7412F0E943024CE01602F412FFD
:1048D0000E943024DF91CF911F910F910895FC0128
:1048E0002485222399F081859285009719F4662307
:1048F00029F406C0019721F4662311F4258701C02D
:104900001586CF010E9665850E944D2508950F935B
:104910001F93CF93DF938C01EC012E96CE01F8010B
:1049200063850E947325019719F020E030E00CC0E8
:10493000CE0161E00E944225F8011482CE0160E0C0
:104940000E944D2521E030E0C901DF91CF911F91F8
:104950000F910895DF92EF92FF920F931F938C01B6
:10496000F62EE42ED22E0E948724C8016F2D4E2DE4
:104970002D2D0E9430211F910F91FF90EF90DF901D
:1049800008952F923F924F925F926F927F928F92F3
:104990009F92AF92BF92CF92DF92EF92FF920F93CE
:1049A0001F93DF93CF93CDB7DEB73C01962E442EF5
:1049B000222E0E94D02081EC94E0F3019183808329
:1049C000C3010E960E943B25F3019386148615863B
:1049D0001286118681E090E09C0102C0220F331FF5
:1049E0004A94E2F7228BFC0102C0EE0FFF1F2A94CB
:1049F000E2F71F01F301238A9C0102C0220F331F3B
:104A00000A95E2F7248BFC0102C0EE0FFF1FEA9427
:104A1000E2F77F01F301E58A9C0102C0220F331FF8
:104A2000CA94E2F7268BFC0102C0EE0FFF1FAA9486
:104A3000E2F75F01F301A78A02C0880F991F8A94E9
:104A4000E2F7808FC3016D894E895F890E94F82348
:104A5000CF91DF911F910F91FF90EF90DF90CF905A
:104A6000BF90AF909F908F907F906F905F904F908E
:104A70003F902F900895FC0112828FEF8183108266
:104A800013820895FC018381882331F0662319F491
:104A90008FEF8183089511820895CF93DF93EC0106
:104AA0008B81882319F480E090E013C08981809580
:104AB000862388838AE297E06A810E940D2A8AE22F
:104AC00097E068810E948F2A8AE297E00E94D22AAA
:104AD00090E020E030E0892B11F421E030E0C901C2
:104AE000DF91CF910895CF93DF93EC016A838AE23F
:104AF00097E00E94E72A8AE297E06A8141E00E94FB
:104B0000E32A1B82882311F081E08B838AE297E0FD
:104B10000E94202A88838B8190E0DF91CF910895B5
:104B2000FC0180914F068C3090F480838F5F8093DE
:104B30004F06815090E0FC01EE0FFF1FE80FF91FB8
:104B4000E05BF94F88EB9BE09283818308958FEFC0
:104B500080830895FC0120812C30B8F5818199274C
:104B600087FD909548E850E0481B590B440F551FAE
:104B7000440F551F6417750784F08281992787FDBC
:104B8000909548E552E0481B590B440F551F440FC0
:104B9000551F641775070CF4AB0142505040CA0111
:104BA000AA2797FDA095BA2F880F991FAA1FBB1F90
:104BB0004FB7F89430E0F901EE0FFF1FE20FF31F3B
:104BC000E05BF94F928381834FBF0895AF92BF920C
:104BD000CF92DF92EF92FF920F931F93CF93DF93C9
:104BE000EC019B0182E0603278070CF048C077FF4F
:104BF00003C020E030E005C0653B710514F024EBF4
:104C000030E000D000D0B901882777FD8095982F3B
:104C10002981332727FD3095E8E8AE2EB12CA21A62
:104C2000B30AAA0CBB1CAA0CBB1CCC24B7FCC094B6
:104C3000DC2CEA81FF27E7FDF09528E532E02E1B0A
:104C40003F0B220F331F220F331F442737FD4095A0
:104C5000542FEDB7FEB7218332834383548320E082
:104C600030E040E050E004EBE02EF12C012D112D5E
:104C70000E947B339B010F900F900F900F90CE01FD
:104C8000B9010E94AA25DF91CF911F910F91FF904A
:104C9000EF90DF90CF90BF90AF900895CF92DF92CA
:104CA000EF92FF921F93CF93DF93EC01162F7A01BF
:104CB000690188818C3008F064C0862F61E00E9411
:104CC000082C888190E0FC01EE0FFF1FE80FF91F10
:104CD000E05BF94F1F738081807C812B808380E2B1
:104CE00092E08E199F0964E070E00E940E3669839D
:104CF00080E699E08C199D0964E070E00E940E3610
:104D00006A83A8818A2F6CE00E940236682F70E0C7
:104D1000AB01440F551F460F571F440F551F440F3B
:104D2000551F20E030E0C901840F951FFC01EE0FF4
:104D3000FF1FE80FF91FE05BF94F808186FD15C06A
:104D40002F5F3F4F2C30310571F724C01092800047
:104D500082E0809381001092850010928400B19AC5
:104D600080916F00826080936F008A2F90E0FC0139
:104D7000EE0FFF1FE80FF91FE05BF94F80818064A1
:104D800080838881DF91CF911F91FF90EF90DF901A
:104D9000CF900895672BD1F2E8CF40E252E020E6B1
:104DA00039E00E944E2608951F920F920FB60F927F
:104DB00011242F933F934F935F936F937F938F9320
:104DC0009F93AF93BF93EF93FF938091740687FFF8
:104DD00005C010928500109284002BC020917406AB
:104DE000332727FD309580914F0690E0281739072B
:104DF00004F580917406992787FD9095FC01EE0FCC
:104E0000FF1FE80FF91FE05BF94F808186FF11C09B
:104E100080917406992787FD9095FC01EE0FFF1F86
:104E2000E80FF91FE05BF94F80818F7360E00E940B
:104E3000472C809174068F5F8093740620917406CE
:104E4000332727FD309580914F0690E028173907CA
:104E50000CF04EC0809174068C300CF049C020914B
:104E600084003091850080917406992787FD909584
:104E7000FC01EE0FFF1FE80FF91FE05BF94F818186
:104E80009281280F391F30938900209388008091E8
:104E90007406992787FD9095FC01EE0FFF1FE80F20
:104EA000F91FE05BF94F808186FF2BC0809174066B
:104EB000992787FD9095FC01EE0FFF1FE80FF91F62
:104EC000E05BF94F80818F7361E00E94472C19C02D
:104ED00080E49CE905C0809184009091850004964F
:104EE00090938900809388008FEF8093740609C0A7
:104EF0008091840090918500049680549C4940F3F1
:104F0000EACFFF91EF91BF91AF919F918F917F91E8
:104F10006F915F914F913F912F910F900FBE0F9026
:104F20001F901895F999FECF72BD61BDF89A80B5B2
:104F30000895F999FECF1FBA72BD61BD40BD0FB68D
:104F4000F894FA9AF99A0FBE0895382F413210F06A
:104F500040E042C0809176068823E1F791E090938B
:104F60007606209378068FEF8093E30610929E06D4
:104F7000415040939F064F5F90937706809177064C
:104F8000330F832B8093770680917906813041F42B
:104F900010927906809177068093BB0085EC01C062
:104FA00085EE8093BC00809176068130E1F380919C
:104FB0009E06841710F440919E0620E030E00AC05F
:104FC000FB01E20FF31FD901A258B94F8C918083E6
:104FD0002F5F3F4F2417A0F3842F08950F931F9343
:104FE000582F122F413210F081E04AC0809176068E
:104FF0008823E1F782E080937606009378068FEFAE
:105000008093E30610929E0640939F06AEE7B6E0BB
:10501000FB0102C081918D938E2F861B8417D0F3E4
:105020001092770680917706550F852B809377062F
:1050300080917906813041F410927906809177064B
:105040008093BB0085EC01C085EE8093BC001123EA
:1050500021F0809176068230E1F38091E3068F3F64
:1050600011F480E00DC08091E306803211F482E0FB
:1050700007C08091E306803311F084E001C083E033
:105080001F910F910895482F613210F081E008952B
:1050900080917606843011F082E008956093C10615
:1050A000A0EAB6E0842F9C01F90102C081918D93A2
:1050B0008E2F841B8617D0F380E008951F920F92E5
:1050C0000FB60F9211242F933F934F935F936F93DB
:1050D0007F938F939F93AF93BF93EF93FF938091B1
:1050E000B90090E0887F90708036910509F4F2C095
:1050F00081369105CCF58832910509F47BC089325F
:105100009105B4F48031910509F46FC081319105A6
:105110003CF4009709F447C1089709F04FC165C0F6
:105120008831910509F466C0809709F047C182C0B3
:105130008034910509F4A4C08134910544F480338E
:10514000910509F482C0C89709F038C189C080353B
:10515000910509F489C08835910509F496C0883411
:10516000910509F02BC1AEC08839910509F413C12E
:1051700089399105ECF48837910509F4ABC089377A
:1051800091054CF48836910509F4A4C08037910547
:1051900009F014C19FC08838910509F4FCC080391A
:1051A000910509F49DC08038910509F007C198C0A8
:1051B000803B910509F4C6C0813B91054CF4803ACF
:1051C000910509F49FC0883A910509F0F7C0BAC06B
:1051D000803C910509F4E3C0883C910509F4DFC0E7
:1051E000883B910509F0EAC0C2C0809177068093A0
:1051F000BB00CFC090919E0680919F06981768F4DF
:1052000090919E06E92FF0E0E258F94F808180935B
:10521000BB009F5F90939E06BCC080917806882358
:1052200009F44BC085ED8093BC008091BC0084FDE7
:10523000FCCFC2C080E28093E30685ED8093BC0082
:105240008091BC0084FDFCCFB7C080E38093E3066F
:1052500085ED8093BC008091BC0084FDFCCFACC088
:1052600088E38093E3069BC080919E069091BB00EB
:10527000E82FF0E0E258F94F90838F5F80939E060D
:1052800090919E0680919F0682C080919E0690918B
:10529000BB00E82FF0E0E258F94F90838F5F8093D6
:1052A0009E0680917806882341F085ED8093BC00AE
:1052B0008091BC0084FDFCCF7FC081E080937906A3
:1052C00084EA6EC085ED8093BC008091BC0084FDB3
:1052D000FCCF72C083E0809376061092E20659C03C
:1052E0008091E206803208F056C08091E2069091EB
:1052F000BB00E82FF0E0EE53F94F90838F5F80936F
:10530000E20647C08091E206803230F4E091E20686
:10531000F0E0EE53F94F108285ED8093BC00809150
:10532000BC0084FDFCCF109276066091E206E0910D
:105330007C06F0917D0682EC96E070E00995109273
:10534000E2062DC084E0809376061092C00610928B
:10535000C106E0917A06F0917B0609958091C1061D
:10536000882329F481E08093C1061092A0069091D1
:10537000C006E92FF0E0E056F94F80818093BB0032
:105380009F5F9093C0069091C0068091C1069817C8
:1053900010F485EC01C085E88093BC000FC085EC5B
:1053A0008093BC0009C01092E30685ED8093BC0099
:1053B0008091BC0084FDFCCF10927606FF91EF91A6
:1053C000BF91AF919F918F917F916F915F914F911D
:1053D0003F912F910F900FBE0F901F901895109234
:1053E000760681E0809378061092790682E161E08A
:1053F0000E94472C83E161E00E94472CE9EBF0E03A
:1054000080818E7F808380818D7F808388E48093FC
:10541000B80085E48093BC00089581E0809329075B
:10542000609306071092270710922807089520918D
:10543000050730E080910407281B3109C901089550
:105440004091040780910507481718F02FEF3FEFB0
:105450000AC0E42FF0E0EC51F94F8081282F30E0B2
:105460004F5F40930407C9010895E09104078091BC
:105470000507E81718F0EFEFFFEF06C0F0E0EC517A
:10548000F94F8081E82FF0E0CF0108950895109240
:105490002D0710922C0788EE93E0A0E0B0E08093F7
:1054A0002E0790932F07A0933007B093310783ED19
:1054B00094E090932B0780932A070895CF92DF9270
:1054C000EF92FF920F931F93CF93DF937C016B01B9
:1054D0008A01809129078823A1F0C0E0D0E00DC0A7
:1054E000D701ED91FC91D601AC0FBD1F0190F08169
:1054F000E02DC7016C9109952196C017D10780F363
:1055000004C0CB01642F0E944328C801DF91CF91D2
:105510001F910F91FF90EF90DF90CF900895DF9350
:10552000CF930F92CDB7DEB7FC0169838091290735
:105530008823C9F080912807803238F081E090E01C
:105540009383828320E030E015C080912707E82F05
:10555000F0E0E95FF84F998190838F5F8093270790
:105560008093280705C0CE01019661E00E94432880
:1055700021E030E0C9010F90CF91DF9108950F93A2
:10558000062F8091060767E077E04091280721E029
:105590000E94EE27109227071092280710922907E1
:1055A0000F91089561E00E94BF2A0895413208F0EA
:1055B00040E2862F64EE76E00E94A5271092040751
:1055C00080930507089521E00E94D62A089510923D
:1055D00004071092050710922707109228070E94CF
:1055E000EF2908951F920F920FB60F9211242F9357
:1055F0003F938F939F93AF93BF9380913A0790917E
:105600003B07A0913C07B0913D0730913E070196C2
:10561000A11DB11D232F2D5F2D3720F02D57019691
:10562000A11DB11D20933E0780933A0790933B073D
:10563000A0933C07B0933D078091360790913707C0
:10564000A0913807B09139070196A11DB11D809333
:10565000360790933707A0933807B0933907BF9167
:10566000AF919F918F913F912F910F900FBE0F900F
:105670001F9018958FB7F89420913A0730913B0707
:1056800040913C0750913D078FBFB901CA01089571
:105690009B01AC017FB7F894809136079091370752
:1056A000A0913807B091390766B5A89B05C06F3F38
:1056B00019F00196A11DB11D7FBFBA2FA92F982FF8
:1056C0008827860F911DA11DB11D62E0880F991FCB
:1056D000AA1FBB1F6A95D1F7BC012DC0FFB7F89474
:1056E0008091360790913707A0913807B09139071C
:1056F000E6B5A89B05C0EF3F19F00196A11DB11DAD
:10570000FFBFBA2FA92F982F88278E0F911DA11D9B
:10571000B11DE2E0880F991FAA1FBB1FEA95D1F7C0
:10572000861B970B885E9340C8F221503040404062
:10573000504068517C4F211531054105510571F6E6
:105740000895019739F0880F991F880F991F0297C4
:105750000197F1F70895789484B5826084BD84B58B
:10576000816084BD85B5826085BD85B5816085BD5C
:10577000EEE6F0E0808181608083E1E8F0E0108275
:10578000808182608083808181608083E0E8F0E0B6
:10579000808181608083E1EBF0E0808184608083A0
:1057A000E0EBF0E0808181608083EAE7F0E08081D7
:1057B0008460808380818260808380818160808337
:1057C0008081806880831092C1000895982F8E3068
:1057D00008F09E5097708091A3048295880F880FDF
:1057E000807C892B80937C0080917A0080648093F8
:1057F0007A0080917A0086FDFCCF2091780040915C
:105800007900942F80E030E0282B392BC9010895CE
:10581000CF93DF93482F50E0CA0186569F4FFC017B
:1058200034914A575F4FFA018491882369F190E0DF
:10583000880F991FFC01E859FF4FA591B491FC0115
:10584000EE58FF4FC591D491662351F42FB7F894C9
:105850008C91932F909589238C93888189230BC0F9
:10586000623061F42FB7F8948C91932F909589232F
:105870008C938881832B88832FBF06C09FB7F894B1
:105880008C91832B8C939FBFDF91CF910895482FEC
:1058900050E0CA0182559F4FFC012491CA018656EF
:1058A0009F4FFC0194914A575F4FFA013491332383
:1058B00009F440C0222351F1233071F0243028F440
:1058C0002130A1F0223011F514C02630B1F027307C
:1058D000C1F02430D9F404C0809180008F7703C0D8
:1058E000809180008F7D8093800010C084B58F7779
:1058F00002C084B58F7D84BD09C08091B0008F77D0
:1059000003C08091B0008F7D8093B000E32FF0E062
:10591000EE0FFF1FEE58FF4FA591B4912FB7F894EB
:10592000662321F48C919095892302C08C91892B58
:105930008C932FBF089508951F920F920FB60F9268
:1059400011242F933F934F938F939F93EF93FF9344
:105950008091C00082FD1DC04091C60020917F074C
:10596000309180072F5F3F4F2F73307080918107F8
:10597000909182072817390771F0E0917F07F09125
:105980008007E15CF84F40833093800720937F07C6
:1059900002C08091C600FF91EF919F918F914F912E
:1059A0003F912F910F900FBE0F901F901895E0918F
:1059B000D307F091D407E05CFF4F81919191208152
:1059C0003181821B930B8F739070892B11F00E9491
:1059D0009B2C08951F920F920FB60F9211242F93B4
:1059E0003F938F939F93EF93FF932091C307309141
:1059F000C4078091C5079091C6072817390731F46D
:105A00008091C1008F7D8093C10014C0E091C507D3
:105A1000F091C607ED57F84F20818091C50790910E
:105A2000C60701968F7390709093C6078093C50741
:105A30002093C600FF91EF919F918F913F912F91FD
:105A40000F900FBE0F901F901895AF92BF92DF92EC
:105A5000EF92FF920F931F93CF93DF93EC017A01A4
:105A60008B01DD24403081EE580780E0680780E03C
:105A7000780711F0DD24D39491E0A92EB12CEC89A4
:105A8000FD89DD2069F0C50108A002C0880F991FBB
:105A90000A94E2F7808360E079E08DE390E005C04E
:105AA000108260E874E88EE190E0A80197010E94FE
:105AB000213621503040404050405695479537950B
:105AC000279580E12030380720F0DD2011F0DD241B
:105AD000D6CFE889F9893083EA89FB89208319A226
