:100000000C9465000C948D000C948D000C948D0064
:100010000C948D000C948D000C948D000C94EB309E
:100020000C948D000C948D000C948D000C94B626CD
:100030000C948D000C948D000C948D000C948D000C
:100040000C94D42A0C948D000C947E2C0C94CC2C03
:100050000C948D000C948D000C948D000C948D00EC
:100060000C9440280C948D00000000002400270010
:100070002A0000000000250028002B0000000000DE
:1000800023002600290004040404040404040202DA
:100090000202020203030303030301020408102007
:1000A0004080010204081020010204081020000012
:1000B0000007000201000003040600000000000029
:1000C00000000200AB00292A382E11241FBECFEFFA
:1000D000D8E0DEBFCDBF14E0A0E0B1E0E8EBFCE685
:1000E00002C005900D92AE3EB107D9F717E0AEEE13
:1000F000B4E001C01D92AC3FB107E1F710E0CAECDB
:10010000D0E004C02297FE010E945636C43CD107BD
:10011000C9F70E948E2E0C945A360C940000609100
:10012000FF05709100068091FD059091FE05680F16
:10013000791F6230710524F09B013595279509C020
:10014000CB0162E070E00E94F03522273327261BA6
:10015000370BC90108958F92AF92CF92EF920F9310
:1001600000D00F9283E0EDB7FEB781831382128235
:100170008EEE94E067E242E021E000E0E4E0EE2E63
:1001800075E0C72E56E0A52E37E0832E0E94A324EB
:100190000F900F900F9087E095E00E9472258AE003
:1001A00095E00E940B238FE195E00E94DD220F91E4
:1001B000EF90CF90AF908F9008952F923F924F92F3
:1001C0005F926F927F928F929F92AF92BF92CF92E7
:1001D000DF92EF92FF920F931F931B012C018091EE
:1001E0001D068823E1F48DE196E00E949D2E892B67
:1001F000B1F06091D3057091D405882777FD809583
:10020000982F0E94AA346093290670932A0680933F
:100210002B0690932C068DE196E00E94A72E60910C
:100220009504709196048091970490919804209180
:10023000A9033091AA034091AB035091AC030E94F3
:10024000A7333B014C012091AD033091AE034091A7
:10025000AF035091B0030E94A7339B01AC01C401CE
:10026000B3010E940F345B016C016093250670930B
:1002700026068093270690932806E0902906F090A2
:100280002A0600912B0610912C06C201B101A8018B
:1002900097010E94A6339B01AC01C601B5010E94E3
:1002A0005E359B01AC01C801B7010E94A7337B01F9
:1002B0008C01CB01D8018093290690932A06A09344
:1002C0002B06B0932C0660E070E080E89FE3A60167
:1002D00095010E94A633A40193010E945E356093AC
:1002E0009504709396048093970490939804B701B3
:1002F000C8011F910F91FF90EF90DF90CF90BF90BA
:10030000AF909F908F907F906F905F904F903F90B5
:100310002F9008952F923F924F925F926F927F920B
:100320008F929F92AF92BF92CF92DF92EF92FF9205
:100330000F931F931B012C0180912D068823E1F45C
:100340008DE296E00E949D2E892BB1F06091D1053F
:100350007091D205882777FD8095982F0E94AA3446
:100360006093390670933A0680933B0690933C065F
:100370008DE296E00E94A72E6091990470919A04F4
:1003800080919B0490919C042091A1033091A20341
:100390004091A3035091A4030E94A7333B014C0159
:1003A0002091A5033091A6034091A7035091A80383
:1003B0000E94A7339B01AC01C401B3010E940F341A
:1003C0005B016C01609335067093360680933706A7
:1003D00090933806E0903906F0903A0600913B067B
:1003E00010913C06C201B101A80197010E94A633F9
:1003F0009B01AC01C601B5010E945E359B01AC01B9
:10040000C801B7010E94A7337B018C01CB01D80141
:100410008093390690933A06A0933B06B0933C062E
:1004200060E070E080E89FE3A60195010E94A6339A
:10043000A40193010E945E356093990470939A041D
:1004400080939B0490939C04B701C8011F910F9166
:10045000FF90EF90DF90CF90BF90AF909F908F90E4
:100460007F906F905F904F903F902F9008952F92C4
:100470003F924F925F926F927F928F929F92AF9234
:10048000BF92CF92DF92EF92FF920F931F931B01C7
:100490002C0180913D068823E1F48DE396E00E94D3
:1004A0009D2E892BB1F06091D9057091DA058827CE
:1004B00077FD8095982F0E94AA3460934906709327
:1004C0004A0680934B0690934C068DE396E00E947B
:1004D000A72E60919D0470919E0480919F0490913D
:1004E000A0042091990330919A0340919B0350916D
:1004F0009C030E94A7333B014C0120919D03309146
:100500009E0340919F035091A0030E94A7339B013B
:10051000AC01C401B3010E940F345B016C01609314
:100520004506709346068093470690934806E090F0
:100530004906F0904A0600914B0610914C06C20104
:10054000B101A80197010E94A6339B01AC01C6012D
:10055000B5010E945E359B01AC01C801B7010E9444
:10056000A7337B018C01CB01D8018093490690937E
:100570004A06A0934B06B0934C0660E070E080E81A
:100580009FE3A60195010E94A633A40193010E9456
:100590005E3560939D0470939E0480939F049093B6
:1005A000A004B701C8011F910F91FF90EF90DF9059
:1005B000CF90BF90AF909F908F907F906F905F9003
:1005C0004F903F902F900895CF93DF93EC0180914F
:1005D0009503909196030197D9F48EEE94E060E034
:1005E00041E00E94E0208EEE94E060E071E00E9425
:1005F000C92F8EEE94E060E041E00E94E0208EEE94
:1006000094E0BE010E94C92F1092960310929503A8
:10061000DF91CF9108958091030690910406019790
:1006200009F046C08EEE94E060E041E00E94E020D8
:100630008EEE94E061E171E00E94C92F6091D505D2
:100640007091D6058EEE94E04AE050E00E94B62FFD
:100650008091D5059091D6058436910534F48EEEBF
:1006600094E063E171E00E94C92F8EEE94E065E0B2
:1006700041E00E94E0208EEE94E065E171E00E948E
:10068000C92F6091D7057091D8058EEE94E04AE0AD
:1006900050E00E94B62F8091D7059091D8058436FE
:1006A000910534F48EEE94E063E171E00E94C92F6D
:1006B0000895EF92FF920F931F930EEE14E0C8017E
:1006C00060E040E00E94E020C80167E171E00E9424
:1006D000C92F6091F3057091F4056F5F7F4FC801DA
:1006E0004AE050E00E94B62F6091F1057091F2054A
:1006F0006F5F7F4FC8014AE050E00E94B62FE09143
:10070000F305F091F405B3E0EE0FFF1FBA95E1F7A2
:100710008091F1059091F205E80FF91FEE0FFF1F90
:10072000EB5DFB4FE080F180C80163E171E00E9466
:10073000C92FC801B7014AE050E00E94652F1F9100
:100740000F91FF90EF900895EF92FF920F931F93F8
:1007500085E10E94C82B85E10E94C82BAA2797FD3E
:10076000A095BA2FBC01CD010E94AA342CE032E83A
:1007700040E45CE30E945E357B018C012091F5052D
:100780003091F6054091F7055091F8050E940B3421
:1007900018164CF084E068EB7BE024EF31E040E099
:1007A00050E00E944731B701C8011F910F91FF909F
:1007B000EF900895CF92DF92EF92FF920F931F93E5
:1007C0000E94A4036B017C010EEE14E0C8016AE0F4
:1007D00040E00E94E020C801B701A60122E030E01D
:1007E0000E94B030C8016AE171E00E94C92F1F91D8
:1007F0000F91FF90EF90DF90CF900895EF92FF92CE
:100800000F931F93CF93DF93E82EF62EC0E0D0E036
:1008100000E010E0CD2B79F48EEE94E06E2D4F2D9C
:100820000E94E0208EEE94E06CE171E00E94C92FFE
:10083000C1E0D0E00EC08EEE94E06E2D4F2D0E94F0
:10084000E0208EEE94E06EE171E00E94C92FC0E0DE
:10085000D0E064E670E080E090E00E942A2B0F5F19
:100860001F4F0A301105B1F6DF91CF911F910F9103
:10087000FF90EF900895909306068093050681E01F
:1008800090E0909396038093950364EF71E080E08D
:1008900090E00E942A2B08950F931F930EEE14E010
:1008A000C80160E041E00E94E020C80160E271E020
:1008B0000E94C92F64EF71E080E090E00E942A2B33
:1008C0001F910F910895809103069091040601975E
:1008D00021F58091D5059091D6050A9734F0809145
:1008E000D7059091D8050A97C4F484E068EB7BE0C3
:1008F00024EF31E040E050E00E94473168EC70E0C6
:1009000080E090E00E942A2B84E068EB7BE024EFFB
:1009100031E040E050E00E94473108951F93182FC6
:1009200088EC90E00E94832B812F61E00E94292CAB
:1009300088EC90E00E94832B1F9108951F93182F3D
:1009400088EC90E00E94832B812F60E00E94292C8C
:1009500088EC90E00E94832B1F9108958BE060E06B
:100960000E94292C8CE291E00E94832B8AE060E0B7
:100970000E94292C8CE291E00E94832B8BE061E0A5
:100980000E94292C8CE291E00E94832B8BE060E096
:100990000E94292C8CE291E00E94832B08958BE029
:1009A00060E00E94292C8CE291E00E94832B8AE077
:1009B00061E00E94292C8CE291E00E94832B8BE065
:1009C00061E00E94292C8CE291E00E94832B8BE055
:1009D00060E00E94292C8CE291E00E94832B089514
:1009E000FF920F931F93CF93DF93082FF92EFB01F4
:1009F00023E0EE0FFF1F2A95E1F7E40FF51FEE0F3E
:100A0000FF1FEB54FC4FC081D1819F2D0E948E04AB
:100A100062E070E080E090E00E942A2B802F9F2D02
:100A20000E949E040E94AE040E94AE040E94AE0486
:100A30000E94CF040E94AE0414E10E94AE04115043
:100A4000E1F7802F9F2D0E948E0462E070E080E02D
:100A500090E00E942A2B802F9F2D0E949E04802FC1
:100A60009F2D0E948E0462E070E080E090E00E9482
:100A70002A2B802F9F2D0E949E040E94CF040E944B
:100A8000AE040E94AE040E94AE040E94CF0410E1A6
:100A9000C0FF03C00E94CF0402C00E94AE041150E8
:100AA00019F0D695C795F4CF0E94AE040E94AE040B
:100AB0000E94AE040E94AE04802F9F2D0E948E04DF
:100AC00062E070E080E090E00E942A2B802F60E0DE
:100AD0000E94292C8BE060E00E94292C8AE060E0D3
:100AE0000E94292CDF91CF911F910F91FF900895C3
:100AF000CF92DF92EF92FF920F931F93CF93DF93EA
:100B00008C017B016A0186E090E0B801A7010E9498
:100B1000F00487E090E0B801A7010E94F00488E0AB
:100B200090E0B801A7010E94F00489E090E0B801CC
:100B3000A7010E94F00468EC70E080E090E00E9461
:100B40002A2BC0E0D0E00091D5051091D6058EE0AB
:100B50000E94C82B080F191F1093D6050093D505C6
:100B60000091D7051091D80580E10E94C82BFC01A7
:100B7000E00FF11FF093D805E093D7052196C2331B
:100B8000D10509F78091D5059091D60562E370E013
:100B90000E94F0359B017093D6056093D505CF0177
:100BA00062E370E00E94F035FB017093D80560931A
:100BB000D705CB01820F931F62E070E00E94F035F1
:100BC000EB0126393105CCF0E639F105B4F081E0CE
:100BD000C816D10449F484E068EB7BE024EF31E0EF
:100BE00040E050E00E9447310E94590381E0C8165E
:100BF000D10459F4C1E0D0E008C00E94590381E05B
:100C0000C816D10411F4C0E0D0E0CE01DF91CF913D
:100C10001F910F91FF90EF90DF90CF900895CF92AA
:100C2000DF92EF92FF920F931F937C018B0133E7CA
:100C3000C32E36E0D32EC601B7010E947427F801F7
:100C400080830894E11CF11CC601B7010E9474273F
:100C5000F801818382E090E01F910F91FF90EF9067
:100C6000DF90CF900895CF92DF92EF92FF920F9393
:100C70001F937C018B0143E7C42E46E0D42EC601AE
:100C8000B701F80140810E947B270894E11CF11C08
:100C9000C601B701F80141810E947B2782E090E004
:100CA0001F910F91FF90EF90DF90CF900895EF92FA
:100CB000FF920F931F93CF93DF938EEE94E060E04B
:100CC00041E00E94E0208EEE94E063E271E00E9439
:100CD000C92F1092E4051092E3058EE00E94C82B04
:100CE000EE24FF24C0E0D0E00091E3051091E4057C
:100CF0008EE00E94C82B080F191F1093E405009383
:100D0000E305CD2B79F48EEE94E06CE041E00E9497
:100D1000E0208EEE94E06CE171E00E94C92FC1E00A
:100D2000D0E00EC08EEE94E06CE041E00E94E02046
:100D30008EEE94E06EE171E00E94C92FC0E0D0E039
:100D400062E370E080E090E00E942A2B0894E11CAE
:100D5000F11C82E3E816F10439F68091E3059091E5
:100D6000E40562E370E00E94F035CB0177FF03C039
:100D7000909581959F4F9093E4058093E3051092A1
:100D8000E6051092E50580E10E94C82BEE24FF24C1
:100D9000C0E0D0E00091E5051091E60580E10E94F9
:100DA000C82B080F191F1093E6050093E505CD2BFE
:100DB00079F48EEE94E06CE041E00E94E0208EEE4B
:100DC00094E06CE171E00E94C92FC1E0D0E00EC058
:100DD0008EEE94E06CE041E00E94E0208EEE94E024
:100DE0006EE171E00E94C92FC0E0D0E062E370E0E4
:100DF00080E090E00E942A2B0894E11CF11C82E321
:100E0000E816F10439F68091E5059091E60562E374
:100E100070E00E94F035CB0177FF03C0909581957B
:100E20009F4F9093E6058093E5051092EC05109294
:100E3000EB058FE00E94C82BEE24FF24C0E0D0E039
:100E40000091EB051091EC058FE00E94C82B080F74
:100E5000191F1093EC050093EB05CD2B79F48EEE62
:100E600094E06CE041E00E94E0208EEE94E06CE1C2
:100E700071E00E94C92FC1E0D0E00EC08EEE94E078
:100E80006CE041E00E94E0208EEE94E06EE171E0C3
:100E90000E94C92FC0E0D0E062E370E080E090E003
:100EA0000E942A2B0894E11CF11C82E3E816F1044D
:100EB00039F68091EB059091EC0562E370E00E94B9
:100EC000F035CB0177FF03C0909581959F4F9093AC
:100ED000EC058093EB051092EE051092ED0584E190
:100EE0000E94C82BEE24FF24C0E0D0E00091ED0565
:100EF0001091EE0584E10E94C82B080F191F109372
:100F0000EE050093ED05CD2B79F48EEE94E06CE0C8
:100F100041E00E94E0208EEE94E06CE171E00E94DE
:100F2000C92FC1E0D0E00EC08EEE94E06CE041E04D
:100F30000E94E0208EEE94E06EE171E00E94C92FE5
:100F4000C0E0D0E062E370E080E090E00E942A2BF5
:100F50000894E11CF11C82E3E816F10439F6809153
:100F6000ED059091EE0562E370E00E94F035CB0153
:100F700077FF03C0909581959F4F9093EE058093E6
:100F8000ED0588EC90E063EE75E00E94330682ED9B
:100F900090E065EE75E00E9433068CED90E06BEE1C
:100FA00075E00E94330686EE90E06DEE75E00E94DB
:100FB00033068EEE94E060E041E00E94E0208EEE89
:100FC00094E064E371E00E94C92F82E090E0909386
:100FD00004068093030681E090E0909306068093D8
:100FE00005069093960380939503DF91CF911F910F
:100FF0000F91FF90EF900895EF92FF920F931F9340
:10100000DF93CF93CDB7DEB7A8970FB6F894DEBFC6
:101010000FBECDBF83E796E060E070E00E947427CA
:10102000813039F48091B1030E94C82B06970CF4EB
:10103000F4C18EEE94E060E040E00E94E0208EEE8D
:1010400094E063E471E00E94C92F00E010E0EE2418
:10105000FF2483E796E0B70140E00E947B27012B45
:1010600079F48EEE94E060E041E00E94E0208EEEA4
:1010700094E06CE171E00E94C92F01E010E00EC025
:101080008EEE94E060E041E00E94E0208EEE94E07D
:101090006EE171E00E94C92F00E010E065E070E0B1
:1010A00080E090E00E942A2B0894E11CF11C80E073
:1010B000E81682E0F80669F681E090E09A83898379
:1010C00080E090E0BE016F5F7F4F0E9433061C827C
:1010D0001B828EE190E0BE016D5F7F4F0E94330660
:1010E0001E821D828DE290E0BE016B5F7F4F0E94E9
:1010F00033068AE090E098878F8383E290E0BE0118
:10110000695F7F4F0E94330686E990E09A8789875E
:1011100089E190E0BE01675F7F4F0E94330683E361
:1011200093E3A3E3B1E48DA39EA3AFA3B8A755E2D5
:10113000E52EF12CEC0EFD1E68E270E08B010F5FD6
:101140001F4FF70141917F0183E796E00E947B27C3
:10115000B8010C32110591F708EC15E01C870B87DC
:101160008AE090E0BE01655F7F4F0E9433061E87D4
:101170000D878FE090E0BE01635F7F4F0E943306D2
:10118000188A1F8684E190E0BE01615F7F4F0E9454
:1011900033068AE090E09A8B898B8AEA90E0BE0160
:1011A0006F5E7F4F0E9433061C8A1B8A86E990E09F
:1011B000BE016D5E7F4F0E9433061E8A1D8A80EA43
:1011C00090E0BE016B5E7F4F0E943306188E1F8A2F
:1011D00084EB90E0BE01695E7F4F0E9433061A8E59
:1011E000198E8EEB90E0BE01675E7F4F0E94330642
:1011F0001C8E1B8E88EC90E0BE01655E7F4F0E94C6
:1012000033061E8E1D8E82ED90E0BE01635E7F4F21
:101210000E94330618A21F8E8CED90E0BE01615E25
:101220007F4F0E9433061AA219A286EE90E0BE01FB
:101230006F5D7F4F0E94330684E690E09CA38BA3F2
:101240008AEF90E0BE016D5D7F4F0E9433068EEE07
:1012500094E00E940A218EEE94E060E040E00E945B
:10126000E0208EEE94E064E571E00E94C92FEE2448
:10127000FF24E114F10469F48EEE94E060E041E0B3
:101280000E94E0208EEE94E06EE571E00E94C92F8E
:101290002DC0F1E0EF16F10459F48EEE94E060E019
:1012A00041E00E94E0208EEE94E067E671E02CC001
:1012B00082E0E816F10459F48EEE94E060E041E03B
:1012C0000E94E0208EEE94E060E771E01DC0E3E054
:1012D000EE16F10459F48EEE94E060E041E00E94D5
:1012E000E0208EEE94E069E771E00EC0F4E0EF16C6
:1012F000F10461F48EEE94E060E041E00E94E020B1
:101300008EEE94E062E871E00E94C92F8EEE94E0C8
:1013100068E041E00E94E0208EEE94E06BE871E02E
:101320000E94C92F8091B1030E94C82B97FDFACF6C
:101330008EEE94E068E041E00E94E02060EA7FE009
:1013400080E090E00E942A2B8091B1030E94C82B7C
:101350008C018EEE94E068E971E00E94C92F8EEE58
:1013600094E0B8014AE050E00E94B62F64EF71E0CB
:1013700080E090E00E942A2BE114F10459F41093CC
:1013800012060093110684E690E061E176E00E9487
:10139000330627C081E0E816F10449F410931406DF
:1013A000009313068EE690E063E176E026C0E2E06B
:1013B000EE16F10449F4109316060093150688E71B
:1013C00090E065E176E019C0F3E0EF16F10449F42E
:1013D000109318060093170682E890E067E176E024
:1013E0000CC084E0E816F10451F410931A0600933F
:1013F00019068CE890E069E176E00E94330668EE19
:1014000073E080E090E00E942A2B0894E11CF11C1C
:10141000E5E0EE16F10409F02CCF8EEE94E00E9488
:101420000A21A8960FB6F894DEBF0FBECDBFCF91AC
:10143000DF911F910F91FF90EF9008958AE095E062
:101440000E942F232FEF8F3F920719F420E030E006
:101450001EC08330910519F423E030E018C08430B9
:10146000910519F424E030E012C08230910519F49E
:1014700022E030E00CC08530910519F425E030E021
:1014800006C020E030E0019711F421E030E0C9010E
:1014900008950F931F93CF93DF93C5EFD5E068E2D4
:1014A00070E08B010F5F1F4F83E796E00E94742767
:1014B0008993B8010C321105A1F78EEE94E060E03B
:1014C00041E00E94E0208EEE94E06CE971E00E9421
:1014D000C92F8EEE94E06AE041E00E94E020409146
:1014E000F5055091F6056091F7057091F8058EEEBF
:1014F00094E022E030E00E94B0300E941E0A9093F7
:10150000CC058093CB05059709F066C064EF71E0C8
:1015100080E090E00E942A2B6091F5057091F6051D
:101520008091F7059091F8052DEC3CEC4CEC5DE3D7
:101530000E94A7336093F5057093F6058093F70535
:101540009093F80520E030E040E451E40E945A35E1
:10155000181664F480E090E0A0E4B1E48093F5050F
:101560009093F605A093F705B093F8058EEE94E0FE
:101570006AE041E00E94E0204091F5055091F605B7
:101580006091F7057091F8058EEE94E022E030E06E
:101590000E94B0308EEE94E063E171E00E94C92FAA
:1015A0006091F5057091F6058091F7059091F80529
:1015B00020E030E040E251E40E940B34882364F4E0
:1015C0008EEE94E069E041E00E94E0208EEE94E02F
:1015D00063E171E00E94C92F8091CB059091CC0509
:1015E000029709F066C064EF71E080E090E00E942D
:1015F0002A2B6091F5057091F6058091F705909181
:10160000F8052DEC3CEC4CEC5DE30E94A6336093B6
:10161000F5057093F6058093F7059093F80520E0A3
:1016200030E040EC50E40E940B34882364F480E006
:1016300090E0A0ECB0E48093F5059093F605A093BC
:10164000F705B093F8058EEE94E06AE041E00E9461
:10165000E0204091F5055091F6056091F7057091F5
:10166000F8058EEE94E022E030E00E94B0308EEE7D
:1016700094E063E171E00E94C92F6091F5057091DB
:10168000F6058091F7059091F80520E030E040E202
:1016900051E40E940B34882364F48EEE94E069E0F8
:1016A00041E00E94E0208EEE94E063E171E00E9450
:1016B000C92F8091CB059091CC05019709F01DCFE2
:1016C00064EF71E080E090E00E942A2BC5EFD5E046
:1016D00068E270E08B010F5F1F4F499183E796E04E
:1016E0000E947B27B8010C321105A1F78FE090E032
:1016F00061E070E00E94FE0382E090E090930406B7
:101700008093030681E090E090930606809305069F
:101710009093960380939503DF91CF911F910F9142
:1017200008950F931F93CF93DF9384E190E061E0DE
:1017300076E00E940F068EEE94E060E041E00E94A9
:10174000E0208EEE94E06EEA71E00E94C92F8EEEEA
:1017500094E06FE041E00E94E020809101069091CA
:101760000206892B29F48EEE94E06FEB71E004C041
:101770008EEE94E061EC71E00E94C92F01E010E070
:101780000E941E0A9093CC058093CB05853091056D
:1017900011F0029761F564EF71E080E090E00E9443
:1017A0002A2B8091010690910206892B29F410932F
:1017B00002060093010604C0109202061092010670
:1017C0008EEE94E06FE041E00E94E02080910106FF
:1017D00090910206892B29F48EEE94E06FEB71E074
:1017E00004C08EEE94E061EC71E00E94C92FC091BC
:1017F000CB05D091CC05C130D10511F664EF71E075
:1018000080E090E00E942A2B84E190E061E076E0A5
:101810000E9433068FE090E061E070E00E94FE03DA
:1018200082E090E09093040680930306D09306062E
:10183000C0930506D0939603C0939503DF91CF9193
:101840001F910F910895CF92DF92EF92FF920F9325
:101850001F93DF93CF9300D0CDB7DEB78AEF90E030
:10186000BE016F5F7F4F0E940F068EEE94E060E036
:1018700041E00E94E0208EEE94E063EC71E00E9473
:10188000C92F8EEE94E06CE041E00E94E020698177
:101890007A818EEE94E04AE050E00E94B62F898172
:1018A0009A810A9734F48EEE94E063E171E00E942D
:1018B000C92F78ECE72EF12C61E0C62ED12C0E94C6
:1018C0001E0A9093CC058093CB05059799F564EF9C
:1018D00071E080E090E00E942A2B89819A81019634
:1018E0009A838983893C910514F0FA82E9828EEE0D
:1018F00094E06CE041E00E94E02069817A818EEE04
:1019000094E04AE050E00E94B62F89819A810A97BC
:1019100034F48EEE94E063E171E00E94C92F898176
:101920009A818436910534F48EEE94E063E171E09F
:101930000E94C92F8091CB059091CC05029799F513
:1019400064EF71E080E090E00E942A2B89819A8107
:1019500001979A8389831816190614F0DA82C982CE
:101960008EEE94E06CE041E00E94E02069817A8193
:101970008EEE94E04AE050E00E94B62F89819A8171
:101980000A9734F48EEE94E063E171E00E94C92F6F
:1019900089819A818436910534F48EEE94E063E176
:1019A00071E00E94C92F8091CB059091CC050397DF
:1019B00099F564EF71E080E090E00E942A2B898124
:1019C0009A810A969A838983893C910514F0FA8258
:1019D000E9828EEE94E06CE041E00E94E0206981B3
:1019E0007A818EEE94E04AE050E00E94B62F898121
:1019F0009A810A9734F48EEE94E063E171E00E94DC
:101A0000C92F89819A818436910534F48EEE94E051
:101A100063E171E00E94C92F8091CB059091CC05C4
:101A2000049799F564EF71E080E090E00E942A2B22
:101A300089819A810A979A838983893C910514F058
:101A4000FA82E9828EEE94E06CE041E00E94E020B0
:101A500069817A818EEE94E04AE050E00E94B62FD0
:101A600089819A810A9734F48EEE94E063E171E003
:101A70000E94C92F89819A818436910534F48EEEB3
:101A800094E063E171E00E94C92F0091CB051091B1
:101A9000CC050130110509F012CF64EF71E080E050
:101AA00090E00E942A2B8AEF90E0BE016F5F7F4F8B
:101AB0000E94330669817A81882777FD8095982F67
:101AC0000E94AA346093A5037093A6038093A70392
:101AD0009093A8036093AD037093AE038093AF031C
:101AE0009093B0038FE090E061E070E00E94FE030D
:101AF00082E090E09093040680930306109306061C
:101B00000093050610939603009395030F900F9092
:101B1000CF91DF911F910F91FF90EF90DF90CF90C9
:101B20000895CF92DF92EF92FF920F931F93DF936E
:101B3000CF9300D0CDB7DEB789E190E0BE016F5FF3
:101B40007F4F0E940F068EEE94E060E041E00E941D
:101B5000E0208EEE94E061ED71E00E94C92F8EEEE0
:101B600094E06CE041E00E94E02069817A818EEE91
:101B700094E04AE050E00E94B62F89819A810A974A
:101B800034F48EEE94E063E171E00E94C92FF8EC2A
:101B9000EF2EF12CE1E0CE2ED12C0E941E0A909364
:101BA000CC058093CB05059709F03FC064EF71E049
:101BB00080E090E00E942A2B89819A8101969A8385
:101BC0008983893C910514F0FA82E9828EEE94E0D3
:101BD0006CE041E00E94E02069817A818EEE94E021
:101BE0004AE050E00E94B62F60919D0370919E03E1
:101BF00080919F039091A00320E030E040E251E407
:101C00000E940B34882334F48EEE94E063E171E09B
:101C10000E94C92F89819A818436910534F48EEE11
:101C200094E063E171E00E94C92F8091CB0590910F
:101C3000CC05029799F564EF71E080E090E00E9496
:101C40002A2B89819A8101979A838983181619060C
:101C500014F0DA82C9828EEE94E06CE041E00E94DA
:101C6000E02069817A818EEE94E04AE050E00E94A3
:101C7000B62F89819A810A9734F48EEE94E063E15D
:101C800071E00E94C92F89819A818436910534F4CC
:101C90008EEE94E063E171E00E94C92F8091CB0544
:101CA0009091CC05039709F03FC064EF71E080E0AC
:101CB00090E00E942A2B89819A810A969A838983CF
:101CC000893C910514F0FA82E9828EEE94E06CE092
:101CD00041E00E94E02069817A818EEE94E04AE042
:101CE00050E00E94B62F60919D0370919E038091F9
:101CF0009F039091A00320E030E040E251E40E9475
:101D00000B34882334F48EEE94E063E171E00E949A
:101D1000C92F89819A818436910534F48EEE94E03E
:101D200063E171E00E94C92F8091CB059091CC05B1
:101D3000049709F03FC064EF71E080E090E00E94FA
:101D40002A2B89819A810A979A838983893C9105F4
:101D500014F0FA82E9828EEE94E06CE041E00E9499
:101D6000E02069817A818EEE94E04AE050E00E94A2
:101D7000B62F60919D0370919E0380919F03909177
:101D8000A00320E030E040E251E40E940B348823BD
:101D900034F48EEE94E063E171E00E94C92F8981F2
:101DA0009A818436910534F48EEE94E063E171E01B
:101DB0000E94C92F0091CB051091CC05013011056F
:101DC00009F0EBCE64EF71E080E090E00E942A2BF6
:101DD00089E190E0BE016F5F7F4F0E943306698109
:101DE0007A81882777FD8095982F0E94AA34609386
:101DF0009D0370939E0380939F039093A0038FE0B5
:101E000090E061E070E00E94FE0382E090E0909339
:101E100004068093030610930606009305061093AC
:101E20009603009395030F900F90CF91DF911F9130
:101E30000F91FF90EF90DF90CF9008950F931F9335
:101E4000CF93DF938AEA90E06FEE75E00E940F0671
:101E50008EEE94E060E041E00E94E0208EEE94E09F
:101E600060EE71E00E94C92F8EEE94E06CE041E0DC
:101E70000E94E0206091EF057091F0058EEE94E0F5
:101E80004AE050E00E94B62F8091F9059091FA0542
:101E90000A9734F48EEE94E063E171E00E94C92F5A
:101EA0000EE110E00E941E0A9093CC058093CB05B2
:101EB000059789F564EF71E080E090E00E942A2B9D
:101EC0008091EF059091F00501969093F005809335
:101ED000EF054F9724F01093F0050093EF058EEE79
:101EE00094E06CE041E00E94E0206091EF05709189
:101EF000F0058EEE94E04AE050E00E94B62F80910B
:101F0000EF059091F0050A9734F48EEE94E063E1CA
:101F100071E00E94C92F8091CB059091CC0502976A
:101F200089F564EF71E080E090E00E942A2B8091B7
:101F3000EF059091F00501979093F0058093EF05E0
:101F400097FF04C01092F0051092EF058EEE94E01A
:101F50006CE041E00E94E0206091EF057091F00597
:101F60008EEE94E04AE050E00E94B62F8091EF059B
:101F70009091F0050A9734F48EEE94E063E171E0FD
:101F80000E94C92FC091CB05D091CC05C130D1059D
:101F900009F088CF64EF71E080E090E00E942A2B86
:101FA0008AEA90E06FEE75E00E9433068FE090E0E1
:101FB00061E070E00E94FE0382E090E090930406EE
:101FC00080930306D0930606C0930506D09396032C
:101FD000C0939503DF91CF911F910F910895EF92D8
:101FE000FF920F931F93CF93DF9383E290E069EF0B
:101FF00075E00E940F068EEE94E060E041E00E94E2
:10200000E0208EEE94E06FEE71E00E94C92F8EEE1C
:1020100094E06CE041E00E94E0206091F90570914D
:10202000FA058EEE94E04AE050E00E94B62F8091CF
:10203000F9059091FA050A9734F48EEE94E063E185
:1020400071E00E94C92FADE2EA2EF12C03ED1FEFE3
:102050000E941E0A9093CC058093CB05059789F5C5
:1020600064EF71E080E090E00E942A2B8091F905F6
:102070009091FA0501969093FA058093F9058E9751
:1020800024F0F092FA05E092F9058EEE94E06CE00F
:1020900041E00E94E0206091F9057091FA058EEE12
:1020A00094E04AE050E00E94B62F8091F9059091AB
:1020B000FA050A9734F48EEE94E063E171E00E9431
:1020C000C92F8091CB059091CC05029791F564EFD3
:1020D00071E080E090E00E942A2B8091F9059091B8
:1020E000FA0501979093FA058093F905835D9F4F58
:1020F00024F41093FA050093F9058EEE94E06CE059
:1021000041E00E94E0206091F9057091FA058EEEA1
:1021100094E04AE050E00E94B62F8091F90590913A
:10212000FA050A9734F48EEE94E063E171E00E94C0
:10213000C92FC091CB05D091CC05C130D10509F094
:1021400087CF64EF71E080E090E00E942A2B83E269
:1021500090E069EF75E00E9433068FE090E061E067
:1021600070E00E94FE0382E090E09093040680936A
:102170000306D0930606C0930506D0939603C0933A
:102180009503DF91CF911F910F91FF90EF900895EC
:10219000EF92FF920F931F93CF93DF938EE190E026
:1021A00061EF75E00E940F068DE290E063EF75E04D
:1021B0000E940F068EEE94E060E041E00E94E02075
:1021C0008EEE94E06CEF71E00E94C92F8EEE94E0E9
:1021D0006DE041E00E94E0206091F3057091F4050C
:1021E0006F5F7F4F8EEE94E04AE050E00E94B62F82
:1021F0006091F1057091F2056F5F7F4F8EEE94E074
:102200004AE050E00E94B62FB7E0EB2EF12C04E03C
:1022100010E00E941E0A9093CC058093CB05059791
:1022200009F051C064EF71E080E090E00E942A2B39
:102230008EEE94E06DE041E00E94E0208091F10597
:102240009091F20501969093F2058093F10508971D
:102250009CF01092F2051092F1058091F305909197
:10226000F40501969093F4058093F305059724F007
:102270001092F4051092F3056091F3057091F40546
:102280006F5F7F4F8EEE94E04AE050E00E94B62FE1
:102290006091F1057091F2056F5F7F4F8EEE94E0D3
:1022A0004AE050E00E94B62F6091F1057091F2056E
:1022B0008091F3059091F40541E050E00E9478058B
:1022C000892B09F4B5CF8091CB059091CC0502976D
:1022D00009F051C064EF71E080E090E00E942A2B89
:1022E0008EEE94E06DE041E00E94E0208091F105E7
:1022F0009091F20501979093F2058093F10597FF75
:1023000013C0F092F205E092F1058091F3059091EF
:10231000F40501979093F4058093F30597FF04C0AB
:102320001093F4050093F3056091F3057091F405A3
:102330006F5F7F4F8EEE94E04AE050E00E94B62F30
:102340006091F1057091F2056F5F7F4F8EEE94E022
:102350004AE050E00E94B62F6091F1057091F205BD
:102360008091F3059091F40541E050E00E947805DA
:10237000892B09F4B5CFC091CB05D091CC05C130E4
:10238000D10509F046CF64EF71E080E090E00E9453
:102390002A2B8EE190E061EF75E00E9433068DE21A
:1023A00090E063EF75E00E9433068FE090E061E01B
:1023B00070E00E94FE0382E090E090930406809318
:1023C0000306D0930606C0930506D0939603C093E8
:1023D0009503DF91CF911F910F91FF90EF9008959A
:1023E000AF92BF92CF92DF92EF92FF920F931F9323
:1023F000CF93DF938EEE94E060E041E00E94E02016
:102400008EEE94E06DE072E00E94C92F8EEE94E0B3
:102410006FE041E00E94E0208EEE94E06FEB71E00F
:102420000E94C92F00E010E00E941E0A9093CC0584
:102430008093CB058530910511F0029709F564EF83
:1024400071E080E090E00E942A2B80E090E0012B78
:1024500011F481E090E08C018EEE94E06FE041E0B9
:102460000E94E0200115110529F48EEE94E06FEB37
:1024700071E004C08EEE94E061EC71E00E94C92F1F
:10248000C091CB05D091CC05C130D10569F664EF80
:1024900071E080E090E00E942A2B012BA9F48FE0EC
:1024A00090E061E070E00E94FE0382E090E0909393
:1024B000040680930306D0930606C0930506D093C6
:1024C0009603C0939503C9C08EE190E061EF75E07B
:1024D0000E940F068DE290E063EF75E00E940F0608
:1024E0008EEE94E06EE041E00E94E0208EEE94E0FB
:1024F00060E272E00E94C92FC090F105D090F20511
:10250000E090F305F090F40500E010E0C0E0D0E0CA
:10251000AA24BB248091F1059091F2050196909335
:10252000F2058093F10508979CF01092F205109245
:10253000F1058091F3059091F40501969093F405CF
:102540008093F305059724F01092F4051092F3059B
:102550006091F1057091F2058091F3059091F40579
:1025600042E050E00E947805A816B9064CF4C090ED
:10257000F105D090F205E090F305F090F4055C01D0
:102580008EEE94E06EE041E00E94E020CD2B49F415
:102590008EEE94E06EE171E00E94C92FC1E0D0E0C0
:1025A00008C08EEE94E06CE171E00E94C92FC0E09B
:1025B000D0E00932110519F00F5F1F4FABCF8EEE3F
:1025C00094E06DE041E00E94E020B7016F5F7F4F33
:1025D0008EEE94E04AE050E00E94B62FB6016F5FA5
:1025E0007F4F8EEE94E04AE050E00E94B62FF092CA
:1025F000F405E092F305D092F205C092F105C7010F
:10260000B60141E050E00E94780560ED77E080E09F
:1026100090E00E942A2B8EE190E061EF75E00E942D
:1026200033068DE290E063EF75E00E9433068FE0A1
:1026300090E061E070E00E94FE0382E090E0909301
:1026400004068093030681E090E090930606809351
:1026500005069093960380939503DF91CF911F9188
:102660000F91FF90EF90DF90CF90BF90AF900895C3
:10267000EF92FF920F931F93CF93DF938EE190E041
:1026800061EF75E00E940F068DE290E063EF75E068
:102690000E940F068EEE94E060E041E00E94E02090
:1026A0008EEE94E065E272E00E94C92F8EEE94E017
:1026B0006DE041E00E94E0206091F3057091F40527
:1026C0006F5F7F4F8EEE94E04AE050E00E94B62F9D
:1026D0006091F1057091F2056F5F7F4F8EEE94E08F
:1026E0004AE050E00E94B62F16E0E12EF12C07E000
:1026F00010E00E941E0A9093CC058093CB050397AF
:1027000009F03FC064EF71E080E090E00E942A2B66
:102710008091F3059091F40501969093F4058093D0
:10272000F305079724F01092F4051092F3056091D9
:10273000F1057091F2058091F3059091F40541E067
:1027400050E00E9478058EEE94E06DE041E00E943A
:10275000E0206091F3057091F4056F5F7F4F8EEE7E
:1027600094E04AE050E00E94B62F6091F10570912C
:10277000F2056F5F7F4F8EEE94E04AE050E00E94DA
:10278000B62F8091CB059091CC05049709F03FC0FE
:1027900064EF71E080E090E00E942A2B8091F305C5
:1027A0009091F40501979093F4058093F30597FFBA
:1027B00004C0F092F405E092F3056091F105709188
:1027C000F2058091F3059091F40541E050E00E94FC
:1027D00078058EEE94E06DE041E00E94E02060918B
:1027E000F3057091F4056F5F7F4F8EEE94E04AE041
:1027F00050E00E94B62F6091F1057091F2056F5F75
:102800007F4F8EEE94E04AE050E00E94B62F809118
:10281000CB059091CC05059709F03FC064EF71E0BE
:1028200080E090E00E942A2B8091F1059091F205C2
:1028300001969093F2058093F105089724F0109289
:10284000F2051092F1056091F1057091F205809109
:10285000F3059091F40541E050E00E9478058EEE7A
:1028600094E06DE041E00E94E0206091F3057091FA
:10287000F4056F5F7F4F8EEE94E04AE050E00E94D7
:10288000B62F6091F1057091F2056F5F7F4F8EEE6C
:1028900094E04AE050E00E94B62F8091CB059091E1
:1028A000CC05029709F03FC064EF71E080E090E052
:1028B0000E942A2B8091F1059091F2050197909347
:1028C000F2058093F10597FF04C01093F205009381
:1028D000F1056091F1057091F2058091F3059091F9
:1028E000F40541E050E00E9478058EEE94E06DE042
:1028F00041E00E94E0206091F3057091F4056F5F64
:102900007F4F8EEE94E04AE050E00E94B62F609137
:10291000F1057091F2056F5F7F4F8EEE94E04AE013
:1029200050E00E94B62FC091CB05D091CC05C130AC
:10293000D10509F0DECE64EF71E080E090E00E9406
:102940002A2B8EE190E061EF75E00E9433068DE264
:1029500090E063EF75E00E9433068FE090E061E065
:1029600070E00E94FE0382E090E090930406809362
:102970000306D0930606C0930506D0939603C09332
:102980009503DF91CF911F910F91FF90EF900895E4
:102990008EEE94E060E041E00E94E0208EEE94E054
:1029A00061E372E00E94C92F8EEE94E06DE041E099
:1029B0000E94E0200E941E0A9093CC058093CB05D4
:1029C000029721F483E090E00E943B048091CB05C4
:1029D0009091CC05019771F764EF71E080E090E091
:1029E0000E942A2B0E9457060895EF92FF920F93A0
:1029F0001F93CF93DF938EEE94E060E041E00E945E
:102A0000E0208EEE94E063E271E00E94C92F109204
:102A1000E0051092DF058EE00E94C82BEE24FF2413
:102A2000C0E0D0E00091DF051091E0058EE00E944B
:102A3000C82B080F191F1093E0050093DF05CD2B5D
:102A400079F48EEE94E06CE041E00E94E0208EEE9E
:102A500094E06CE171E00E94C92FC1E0D0E00EC0AB
:102A60008EEE94E06CE041E00E94E0208EEE94E077
:102A70006EE171E00E94C92FC0E0D0E062E370E037
:102A800080E090E00E942A2B0894E11CF11C82E374
:102A9000E816F10439F68091DF059091E00562E3D4
:102AA00070E00E94F035CB0177FF03C090958195CF
:102AB0009F4F9093E0058093DF051092E2051092FE
:102AC000E10580E10E94C82BEE24FF24C0E0D0E0A5
:102AD0000091E1051091E20580E10E94C82B080FEA
:102AE000191F1093E2050093E105CD2B79F48EEECA
:102AF00094E06CE041E00E94E0208EEE94E06CE116
:102B000071E00E94C92FC1E0D0E00EC08EEE94E0CB
:102B10006CE041E00E94E0208EEE94E06EE171E016
:102B20000E94C92FC0E0D0E062E370E080E090E056
:102B30000E942A2B0894E11CF11C82E3E816F104A0
:102B400039F68091E1059091E20562E370E00E9420
:102B5000F035CB0177FF03C0909581959F4F9093FF
:102B6000E2058093E1051092E8051092E7058FE0F9
:102B70000E94C82BEE24FF24C0E0D0E00091E705BE
:102B80001091E8058FE00E94C82B080F191F1093C1
:102B9000E8050093E705CD2B79F48EEE94E06CE028
:102BA00041E00E94E0208EEE94E06CE171E00E9432
:102BB000C92FC1E0D0E00EC08EEE94E06CE041E0A1
:102BC0000E94E0208EEE94E06EE171E00E94C92F39
:102BD000C0E0D0E062E370E080E090E00E942A2B49
:102BE0000894E11CF11C82E3E816F10439F68091A7
:102BF000E7059091E80562E370E00E94F035CB01B3
:102C000077FF03C0909581959F4F9093E80580933F
:102C1000E7051092EA051092E90584E10E94C82BAD
:102C2000EE24FF24C0E0D0E00091E9051091EA0510
:102C300084E10E94C82B080F191F1093EA05009326
:102C4000E905CD2B79F48EEE94E06CE041E00E9432
:102C5000E0208EEE94E06CE171E00E94C92FC1E0AB
:102C6000D0E00EC08EEE94E06CE041E00E94E020E7
:102C70008EEE94E06EE171E00E94C92FC0E0D0E0DA
:102C800062E370E080E090E00E942A2B0894E11C4F
:102C9000F11C82E3E816F10439F68091E905909180
:102CA000EA0562E370E00E94F035CB0177FF03C0D4
:102CB000909581959F4F9093EA058093E90586E969
:102CC00090E06FED75E00E94330680EA90E061EEDF
:102CD00075E00E94330684EB90E067EE75E00E9499
:102CE00033068EEB90E069EE75E00E9433068EEEBF
:102CF00094E060E041E00E94E0208EEE94E064E326
:102D000071E00E94C92F0E94C814DF91CF911F91DA
:102D10000F91FF90EF9008958EEE94E060E041E017
:102D20000E94E0208EEE94E061E472E00E94C92FE0
:102D30008EEE94E06DE041E00E94E0200E941E0AC9
:102D40009093CC058093CB05029721F483E090E02B
:102D50000E943B048091CB059091CC05019771F7BF
:102D600064EF71E080E090E00E942A2B0E94F5144D
:102D70000895EF92FF920F931F93CF93DF938FE00D
:102D800090E06FEF75E00E940F068EEE94E060E039
:102D900041E00E94E0208EEE94E062E572E00E9445
:102DA000C92F8EEE94E06AE041E00E94E02060913D
:102DB000FF05709100068EEE94E04AE050E00E941C
:102DC000B62F00E4E02E06E0F02E08E715E00E94A2
:102DD0001E0A9093CC058093CB05059771F564EF9F
:102DE00071E080E090E00E942A2B8091FF05909195
:102DF00000060196909300068093FF05815496404B
:102E000024F0F0920006E092FF056091FF057091BA
:102E1000000687E095E00E94C8258EEE94E06AE007
:102E200041E00E94E0206091FF05709100068EEE67
:102E300094E04AE050E00E94B62F8091CB0590913B
:102E4000CC05029771F564EF71E080E090E00E949C
:102E50002A2B8091FF059091000601979093000620
:102E60008093FF058857954024F410930006009343
:102E7000FF056091FF057091000687E095E00E94D4
:102E8000C8258EEE94E06AE041E00E94E020609167
:102E9000FF05709100068EEE94E04AE050E00E943B
:102EA000B62F8091CB059091CC05039771F564EF17
:102EB00071E080E090E00E942A2B8091FF059091C4
:102EC00000060A96909300068093FF058154964071
:102ED00024F0F0920006E092FF056091FF057091EA
:102EE000000687E095E00E94C8258EEE94E06AE037
:102EF00041E00E94E0206091FF05709100068EEE97
:102F000094E04AE050E00E94B62F8091CB0590916A
:102F1000CC05049771F564EF71E080E090E00E94C9
:102F20002A2B8091FF05909100060A979093000646
:102F30008093FF058857954024F410930006009372
:102F4000FF056091FF057091000687E095E00E9403
:102F5000C8258EEE94E06AE041E00E94E020609196
:102F6000FF05709100068EEE94E04AE050E00E946A
:102F7000B62FC091CB05D091CC05C130D10509F059
:102F800026CF64EF71E080E090E00E942A2B8FE072
:102F900090E06FEF75E00E9433060E948F00BC0145
:102FA00087E095E00E94C8258FE090E061E070E046
:102FB0000E94FE0382E090E0909304068093030653
:102FC000D0930606C0930506D0939603C09395034D
:102FD000DF91CF911F910F91FF90EF900895EF92A5
:102FE000FF920F931F93CF93DF938AE090E06DEFF2
:102FF00075E00E940F068EEE94E060E041E00E94D2
:10300000E0208EEE94E064E672E00E94C92F8EEE1E
:1030100094E06AE041E00E94E0206091FD0570913B
:10302000FE058EEE94E04AE050E00E94B62F80E468
:10303000E82E86E0F82E08E715E00E941E0A90931D
:10304000CC058093CB05059771F564EF71E080E0C6
:1030500090E00E942A2B8091FD059091FE0501963B
:103060009093FE058093FD058154964024F0F092E4
:10307000FE05E092FD056091FD057091FE0587E07B
:1030800095E00E94C8258EEE94E06AE041E00E943F
:10309000E0206091FD057091FE058EEE94E04AE01F
:1030A00050E00E94B62F8091CB059091CC050297FD
:1030B00071F564EF71E080E090E00E942A2B80912E
:1030C000FD059091FE0501979093FE058093FD0507
:1030D0008857954024F41093FE050093FD056091F8
:1030E000FD057091FE0587E095E00E94C8258EEEF3
:1030F00094E06AE041E00E94E0206091FD0570915B
:10310000FE058EEE94E04AE050E00E94B62F8091DA
:10311000CB059091CC05039771F564EF71E080E0E9
:1031200090E00E942A2B8091FD059091FE050A9661
:103130009093FE058093FD058154964024F0F09213
:10314000FE05E092FD056091FD057091FE0587E0AA
:1031500095E00E94C8258EEE94E06AE041E00E946E
:10316000E0206091FD057091FE058EEE94E04AE04E
:1031700050E00E94B62F8091CB059091CC0504972A
:1031800071F564EF71E080E090E00E942A2B80915D
:10319000FD059091FE050A979093FE058093FD052D
:1031A0008857954024F41093FE050093FD05609127
:1031B000FD057091FE0587E095E00E94C8258EEE22
:1031C00094E06AE041E00E94E0206091FD0570918A
:1031D000FE058EEE94E04AE050E00E94B62FC091CA
:1031E000CB05D091CC05C130D10509F026CF64EFD5
:1031F00071E080E090E00E942A2B8AE090E06DEF81
:1032000075E00E9433068FE090E061E070E00E947C
:10321000FE030E948F00BC0187E095E00E94C82554
:1032200082E090E09093040680930306D093060614
:10323000C0930506D0939603C0939503DF91CF9179
:103240001F910F91FF90EF900895CF93DF930E940D
:103250001E0A9093CC058093CB0580910506909132
:1032600006068F31910509F446C180329105FCF4C0
:103270008531910509F486C08631910564F4823068
:10328000910509F458C08330910509F4F1C0019704
:1032900009F079C227C08731910509F4C5C087318B
:1032A00091050CF493C04E9709F06DC200C18332B2
:1032B000910509F4CEC18432910544F4813291051F
:1032C00009F475C182970CF0A0C143C18532910504
:1032D00009F406C2853291050CF4DFC1869709F026
:1032E00052C22FC286E792E00E94E4028091CB0591
:1032F0009091CC05049721F482E090E00E943B0479
:10330000C091CB05D091CC05C130D10509F03BC2AD
:103310000E944C048EEE94E060E041E00E94E020C8
:103320008EEE94E064E371E00E94C92FD09304060E
:10333000C093030628C28CE792E00E94E4028091C9
:10334000CB059091CC05039721F481E090E00E9499
:103350003B048091CB059091CC05049721F483E048
:1033600090E00E943B048091CB059091CC05813088
:10337000910519F0059709F006C20E944C0485E1F9
:1033800090E092C086E892E00E94E4028091CB0532
:103390009091CC05049721F486E190E00E943B04D3
:1033A0008091CB059091CC05029721F482E090E0CA
:1033B0000E943B048091CB059091CC05019709F0C8
:1033C000E2C10E944C040E943813DDC185E992E0FD
:1033D0000E94E4028091CB059091CC05039721F4E3
:1033E00085E190E00E943B048091CB059091CC0553
:1033F000049721F487E190E00E943B048091CB0583
:103400009091CC05029721F482E090E00E943B0469
:103410008091CB059091CC05019709F0B4C10E9431
:103420004C040E94F011AFC184EA92E00E94E402D1
:103430008091CB059091CC05039721F486E190E033
:103440000E943B048091CB059091CC05029721F41A
:1034500082E090E00E943B048091CB059091CC05E6
:10346000019709F090C10E944C040E94C8108BC1C2
:1034700085EB92E00E94E4028091CB059091CC050F
:10348000039721F482E090E00E943B048091CB05F9
:103490009091CC058130910519F0059709F073C121
:1034A0000E944C048EE190E00E943B046CC180ECD1
:1034B00092E00E94E4028091CB059091CC050497A4
:1034C00021F48FE190E00E943B048091CB05909124
:1034D000CC05029721F483E090E00E943B048091A8
:1034E000CB059091CC05019709F04DC10E944C0489
:1034F0000E948C1648C18CEC92E00E94E4028091FC
:10350000CB059091CC05049721F480E290E00E94D5
:103510003B048091CB059091CC05039721F48EE17B
:1035200090E00E943B048091CB059091CC050297DE
:1035300021F483E090E00E943B048091CB059091C0
:10354000CC05019709F01FC10E944C040E94EF0FA7
:103550001AC184ED92E00E94E4028091CB05909123
:10356000CC05049721F481E290E00E943B04809115
:10357000CB059091CC05039721F48FE190E00E9458
:103580003B048091CB059091CC05029721F483E018
:1035900090E00E943B048091CB059091CC0501976F
:1035A00009F0F1C00E944C040E941E0FECC082EE94
:1035B00092E00E94E4028091CB059091CC050497A3
:1035C00021F482E290E00E943B048091CB0590912F
:1035D000CC05039721F480E290E00E943B048091A7
:1035E000CB059091CC05029721F483E090E00E94F6
:1035F0003B048091CB059091CC05019709F0C3C0A5
:103600000E944C040E94910DBEC084EF92E00E9483
:10361000E4028091CB059091CC05039721F481E2DF
:1036200090E00E943B048091CB059091CC050497DB
:1036300021F483E290E00E943B048091CB059091BD
:10364000CC05019709F074C00E944C040E94EF174A
:103650006FC085E093E00E94E4028091CB059091D9
:10366000CC05039721F482E290E00E943B04809114
:10367000CB059091CC05049721F484E290E00E9460
:103680003B048091CB059091CC05019709F050C087
:103690000E944C040E94B9164BC086E193E00E9440
:1036A000E4028091CB059091CC05039721F483E24D
:1036B00090E00E943B048091CB059091CC0504974B
:1036C00021F485E290E00E943B048091CB0590912B
:1036D000CC05019769F50E944C040E94910B28C00B
:1036E00086E293E00E94E4028091CB059091CC05A4
:1036F000039721F484E290E00E943B048091CB0583
:103700009091CC05049751F480910F06909110068A
:10371000892B21F486E290E00E943B048091CB0546
:103720009091CC05019721F40E944C040E94490A13
:103730008091CB059091CC05029729F583E090E02C
:10374000B3CE86E393E00E94E4028091CB05909192
:10375000CC05039721F485E290E00E943B04809120
:10376000CB059091CC05029721F483E090E00E9474
:103770003B048091CB059091CC05019721F40E94E8
:103780004C040E94230CDF91CF9108956F927F9299
:103790008F929F92AF92BF92CF92DF92EF92FF9261
:1037A0000F931F938091B1030E94C82B8091B103A6
:1037B0000E94C82B0697CCF18EEE94E00E940A215D
:1037C00062E370E080E090E00E942A2B8EEE94E0AD
:1037D00060E040E00E94E0208EEE94E065E473E05B
:1037E0000E94C92F68EE73E080E090E00E942A2BCF
:1037F0008EEE94E060E041E00E94E0208EEE94E0E6
:103800006BE473E00E94C92F68EE73E080E090E003
:103810000E942A2B8091B1030E94C82B02972CF49E
:10382000E0911B06F0911C0609958EE00E94C82BC2
:103830008EE00E94C82B9093CE058093CD0580E149
:103840000E94C82B80E10E94C82B9093D0058093E2
:10385000CF058FE00E94C82B8FE00E94C82B909369
:10386000D2058093D10584E10E94C82B84E10E9497
:10387000C82B9093D4058093D3056091D1057091A6
:10388000D205882777FD8095982F0E94AA340E9440
:103890008A010E9477347093D2056093D1056091BC
:1038A000D3057091D405882777FD8095982F0E94C5
:1038B000AA340E94DD000E9477347093D40560938F
:1038C000D30500D000D06091CD057091CE0588273A
:1038D00077FD8095982F2091DF053091E0054427F2
:1038E00037FD4095542FE090E305F090E405002764
:1038F000F7FC0095102FE4E66E2E712C812C912C94
:10390000EDB7FEB76182728283829482AA24BB24BF
:1039100065010E945D337093D6056093D505609173
:10392000CF057091D005882777FD8095982F20913D
:10393000E1053091E205442737FD4095542FE09092
:10394000E505F090E6050027F7FC0095102FEDB790
:10395000FEB761827282838294820E945D3370938B
:10396000D8056093D7056091D1057091D20588275D
:1039700077FD8095982F2091E7053091E805442741
:1039800037FD4095542FE090EB05F090EC050027B3
:10399000F7FC0095102FEDB7FEB76182728283822B
:1039A00094820E945D337093DC056093DB05609127
:1039B000D3057091D405882777FD8095982F2091A5
:1039C000E9053091EA05442737FD4095542FE090F2
:1039D000ED05F090EE050027F7FC0095102FEDB7F0
:1039E000FEB761827282838294820E945D3320914D
:1039F000D5053091D6050F900F900F900F9025367A
:103A0000310514F024E630E037FF02C020E030E05A
:103A10003093D6052093D5052091D7053091D80550
:103A20002536310514F024E630E037FF02C020E0EF
:103A300030E03093D8052093D7052091DB053091F5
:103A4000DC052536310514F024E630E037FF02C0EE
:103A500020E030E03093DC052093DB05653671050E
:103A600014F064E670E077FF02C060E070E07093ED
:103A7000DE056093DD0580910F0690911006892B7D
:103A800009F057C02617370724F4CB01821B930B8C
:103A900003C0C901861B970B03970CF44AC0621739
:103AA0007307F4F482E061E00E94292C83E060E077
:103AB0000E94292C10920C0610920B0681E090E0D7
:103AC00090939803809397038EEE94E06AE041E030
:103AD0000E94E0208EEE94E06CE573E00E94C92F16
:103AE0002091DD053091DE058091DB059091DC05AC
:103AF00082179307F4F482E060E00E94292C83E0AF
:103B000061E00E94292C10920E0610920D0682E0B0
:103B100090E090939803809397038EEE94E06AE090
:103B200041E00E94E0208EEE94E060E673E00E94A7
:103B3000C92FA090D505B090D605C090D705D090DC
:103B4000D805CA14DB0424F495012C193D0903C0DF
:103B500096012A193B09B901882777FD8095982F8E
:103B60000E94AA3420E030E04AE753E40E945E3528
:103B70007B018C01CA0CDB1CB601882777FD809580
:103B8000982F0E94AA3420E030E040E05FE30E94DA
:103B90005E359B01AC01C801B7010E940F340E9441
:103BA00077347093DA056093D905882777FD80957F
:103BB000982F0E94AA340E9437020E947734AB01EA
:103BC0007093DA056093D905CB0177FF04C088278D
:103BD0009927841B950B2091F9053091FA05280F40
:103BE000391F3093FC052093FB05809109069091C5
:103BF0000A06009709F073C08091EF059091F005D7
:103C000084179507D4F00E948F00BC0187E095E0EF
:103C10000E948C258EEE94E06FE041E00E94E0204F
:103C20008EEE94E064E673E00E94C92F82E390E098
:103C300090930A06809309065DC04091D505509186
:103C4000D6058091D7059091D805841795070CF576
:103C500080910106909102066091FD057091FE052C
:103C6000892B29F4621B730B87E095E005C0260FB2
:103C7000371F87E095E0B9010E948C258EEE94E015
:103C80006FE041E00E94E0208EEE94E066E673E093
:103C900023C04817590774F58091010690910206D8
:103CA0006091FF0570910006892B31F4260F371FB4
:103CB00087E095E0B90104C0621B730B87E095E0D3
:103CC0000E948C258EEE94E06FE041E00E94E0209F
:103CD0008EEE94E068E673E00E94C92F0BC0019756
:103CE00090930A068093090697FF04C010920A0673
:103CF000109209068091070690910806019711F429
:103D00000E940B03809107069091080601969093FC
:103D1000080680930706845C994021F410920806F7
:103D2000109207061F910F91FF90EF90DF90CF90B8
:103D3000BF90AF909F908F907F906F9008958091EB
:103D40000306909104068130910519F0029731F431
:103D500003C00E94C61B02C00E9425198FE195E096
:103D60000E9401220895EF92FF920F931F93CF9329
:103D7000DF9388E297E00E94C92A08E088E297E092
:103D8000602F0E94EF2988E297E00E94B42A8823DE
:103D900071F40F3321F48EEE94E06FE305C0073227
:103DA00031F48EEE94E067E20E94D72308E70F5FBC
:103DB000083720F38EEE94E060E142E020E00E94BC
:103DC0008C248EEE94E00E94BA208EEE94E00E9445
:103DD000CE208AE095E065E070E00E942B230E94EF
:103DE000FC078EEE94E060E040E00E94E0208EEE62
:103DF00094E06AE673E00E94C92F8EEE94E060E0E2
:103E000041E00E94E0208EEE94E06AE773E00E94B9
:103E1000C92F8FE090E061E070E00E94FE0384EB28
:103E200090E067EE75E00E940F068EEB90E069EE81
:103E300075E00E940F0686E990E06FED75E00E9444
:103E40000F0680EA90E061EE75E00E940F068CEDAF
:103E500090E06BEE75E00E940F0686EE90E06DEE4E
:103E600075E00E940F0688EC90E063EE75E00E941A
:103E70000F0682ED90E065EE75E00E940F068EE180
:103E800090E061EF75E00E940F068DE290E063EF35
:103E900075E00E940F0683E290E069EF75E00E94F2
:103EA0000F068AEA90E06FEE75E00E940F06C5EFFC
:103EB000D5E068E270E08B010F5F1F4F83E796E06B
:103EC0000E9474278993B8010C321105A1F78AE08A
:103ED00090E06DEF75E00E940F068FE090E06FEFCD
:103EE00075E00E940F06CDE9D3E069E170E08B0137
:103EF0000F5F1F4F83E796E00E9474278993B801F4
:103F00000D311105A1F705EA13E078016AEF70E0C1
:103F1000EB01219683E796E00E947427F7018193D5
:103F20007F01CE3FD10511F0BE01F2CF6AEF70E004
:103F3000EB01219683E796E00E947427F8018193B4
:103F40008F01CE3FD10511F0BE01F2CF84E190E0A8
:103F500061E076E00E940F0684E690E061E176E0A1
:103F60000E940F068EE690E063E176E00E940F0665
:103F700088E790E065E176E00E940F0682E890E035
:103F800067E176E00E940F068CE890E069E176E058
:103F90000E940F068BE061E00E94EA2B8AE061E05C
:103FA0000E94EA2B86E061E00E94EA2B87E061E054
:103FB0000E94EA2B88E061E00E94EA2B89E061E040
:103FC0000E94EA2B8BE060E00E94292C8AE060E0EE
:103FD0000E94292C86E060E00E94292C87E060E0A6
:103FE0000E94292C88E060E00E94292C89E060E092
:103FF0000E94292C87E095E065E070E00E94AF26E2
:1040000085EC97E040E855E260E070E00E94072D03
:104010000E948F00BC0187E095E00E948C2586E01D
:1040200061E00E94292C87E061E00E94292C88E051
:1040300061E00E94292C89E061E00E94292C6091B6
:10404000F3057091F4054091F1055091F20586E079
:1040500090E00E94F0046091F3057091F4054091A6
:10406000F1055091F20587E090E00E94F004609124
:10407000F3057091F4054091F1055091F20588E047
:1040800090E00E94F0046091F3057091F405409176
:10409000F1055091F20589E090E00E94F00486E07D
:1040A00061E00E94292C87E061E00E94292C88E0D1
:1040B00061E00E94292C89E061E00E94292C82E0C5
:1040C00061E00E94EA2B83E061E00E94EA2B82E03B
:1040D00061E00E94292C83E060E00E94292C8FE19E
:1040E00095E048E853E160E070E02AED33E00E949B
:1040F000F8218FE195E040E157E260E070E023E6CF
:1041000034E00E94F8218EEE94E00E940A2184E1BE
:104110000E94C82B84E10E94C82B9093D405809301
:10412000D3050A9734F481E090E0909310068093D1
:104130000F060E94DA030E94590382E090E09093F8
:1041400004068093030681E090E090930606809336
:104150000506DF91CF911F910F91FF90EF90089589
:1041600008950895FC011382128287EA94E09183F6
:1041700080830895FC01A081B18118962D913C9116
:1041800019976FEFF90109950895DC01ED91FC9104
:104190000284F385E02D40E009950895FC016681D5
:1041A0006E7F668364600E94C5200895FC0165816E
:1041B000862F846085836C60CF010E94C52008959E
:1041C000DC0117969C911797491710F0492F415021
:1041D00018968C911897803139F4943029F4E42F93
:1041E000F0E0ED54FB4F04C0E42FF0E0E954FB4F46
:1041F0008081680F6068CD010E94C5200895DC01B0
:10420000ED91FC910284F385E02D41E0099581E078
:1042100090E0089561E00E94C52080ED97E00E9443
:10422000832B0895CF93DF93EC01423018F08C81FB
:1042300088608C834F836887222329F0413019F4EA
:104240008C8184608C8364E670E080E090E00E9462
:104250002A2B6C8164FD31C0E881F9810284F385E9
:10426000E02DCE0163E042E0099584E991E10E94EE
:10427000832BE881F9810284F385E02DCE0163E090
:1042800042E0099584E991E10E94832BE881F9815C
:104290000284F385E02DCE0163E042E0099586E9D2
:1042A00090E00E94832BE881F9810284F385E02D60
:1042B000CE0162E042E0099516C06062CE010E9424
:1042C000C52084E991E10E94832B6C816062CE015C
:1042D0000E94C52086E990E00E94832B6C81606279
:1042E000CE010E94C5206C816062CE010E94C52073
:1042F00084E08D83CE010E94D620CE010E940A2147
:1043000082E08E83CE0166E00E94C520CE010E942D
:10431000BA20DF91CF910895EF92FF920F931F93F0
:10432000CF93DF937C018AEA90E0E80EF91EF70153
:1043300080819181E6E5FFEFEE0EFF1E0A970CF0FB
:1043400048C0F701B896C0E0D0E080819181892B08
:1043500009F449C021963296CA30D105B1F739C067
:10436000FE013F96EE0FFF1FEE0FFF1FEE0DFF1D2C
:104370004083518362837383FE017496EE0FFF1FA7
:10438000EE0DFF1D31832083FE01F296EE0FFF1F1D
:10439000EE0DFF1D11830083F701EC0FFD1FE457A5
:1043A000FF4F81E080830E941C2BFE01EE0FFF1F58
:1043B000EE0FFF1FEE0DFF1D6083718382839383D9
:1043C000F701E655FF4F80819181019691838083AB
:1043D00002C0CFEFDFEFCE01DF91CF911F910F91A0
:1043E000FF90EF9008952115310509F0B9CFF1CF75
:1043F0000F931F9300E010E00E948C211F910F91FA
:1044000008952F923F924F925F926F927F928F9278
:104410009F92AF92BF92CF92DF92EF92FF920F9353
:104420001F93CF93DF936C010E941C2B1B012C0167
:10443000F601EA56FF4FB6013CE8632E712C6C0C76
:104440007D1CE601CC59DF4F4301AA24BB24118215
:104450001082EE56F04080819181E259FF4F892B06
:1044600009F440C0DB01ED90FD900D911C91139774
:10447000DC962D913D914D915C91DF97D201C10168
:104480008E199F09A00BB10B82179307A407B507DC
:1044900048F12E0D3F1D401F511FDB012D933D9311
:1044A0004D935C931397D4018C918823D9F0288184
:1044B00039812115310519F441E050E011C08C8992
:1044C0009D898217930774F4A1E0B0E0B183A083C3
:1044D00001969D8B8C8B8217930724F042E050E06D
:1044E000518340830894A11CB11C32966C5F7F4FAE
:1044F0000894811C911C22965AE0A516B10409F07B
:10450000A6CFE601A8962CE3E22EF12CEC0CFD1CC4
:10451000860108581F4F8AEA90E0C80ED91E57013D
:10452000D8015E968D919C915F978130910519F02D
:10453000029719F504C0E881F98109951EC0E88148
:10454000F9810995F6012081318121153105A9F004
:1045500088819981892B89F019821882D3011C9254
:10456000F7011082118212821382D8011D921C92CF
:1045700021503040F6013183208322960894611C3B
:10458000711C44E050E0E40EF51E0E5F1F4FCA158B
:10459000DB0531F6DF91CF911F910F91FF90EF90E6
:1045A000DF90CF90BF90AF909F908F907F906F9053
:1045B0005F904F903F902F9008950F931F93CF934C
:1045C000DF93EC010E941C2BAE0144575F4FFE01AC
:1045D000B8968E0120E030E0DA011D92AD01118223
:1045E0001082D8016D937D938D939D938D01E05B37
:1045F000FF4F118210822F5F3F4FEE54F0402A3060
:10460000310551F7C655DF4F19821882DF91CF91DE
:104610001F910F910895FC0185E090E091838083C4
:104620008091B1039091B203938382838091B3030D
:104630009091B40395838483178216821186108625
:10464000138612861586148617861686118A128A94
:10465000138A148A0895FC01718360830895EF9290
:10466000FF920F931F93CF93DF93EC010E941C2BBB
:1046700028813981442737FD4095542FE988FA88ED
:104680000B891C892E0D3F1D401F511F2617370710
:104690004807590718F021E030E081C088859985E6
:1046A0009D878C878A810E94C82BBC019987888747
:1046B0008C859D856817790721F4188A8E859F85DA
:1046C00019C081E0888B8A859B859F878E87209182
:1046D0001106309112064C815D81C901841B950B36
:1046E0008617970754F4240F351F621773072CF4AD
:1046F00083E090E09B878A874AC02091130630911F
:104700001406C901841B950B8617970744F4240FE0
:10471000351F621773071CF484E090E0EBCF209103
:10472000170630911806C901841B950B8617970749
:1047300044F4240F351F621773071CF485E090E0E2
:10474000D9CF2091150630911606C901841B950B0F
:104750008617970744F4240F351F621773071CF45C
:1047600082E090E0C7CF2091190630911A06C90166
:10477000841B950B8617970744F4240F351F621787
:1047800073071CF481E090E0B5CF1B861A868889F8
:10479000882319F42FEF3FEF02C02A853B85C9011A
:1047A000DF91CF911F910F91FF90EF900895FC0141
:1047B00063870895DC0181E090E002C0880F991FB3
:1047C0006A95E2F71C968C931C971A965C934E930D
:1047D0001997ED91FC9111970084F185E02DCD01A1
:1047E00060E009950895DF92EF92FF920F931F9377
:1047F0008C01D62E8EE0E82EF12CE00EF11EF80191
:1048000062896D29C7010E942F25F8016289609590
:104810006D21C7010E942F251F910F91FF90EF90EE
:10482000DF900895DC01FC0120E090E070E060FF83
:1048300002C08589282B9F5F3196943019F07595B9
:104840006795F4CF413019F454964C9154971D96C6
:104850008C911D97842B282BCD01622F0E94F3236E
:1048600008950F931F93CF93DF93EC01142F062F1E
:104870000F70423019F4602F40E00CC070E044E04B
:10488000759567954A95E1F7412F0E941224CE0154
:10489000602F412F0E941224DF91CF911F910F9121
:1048A0000895FC012485222399F081859285009743
:1048B00019F4662329F406C0019721F4662311F444
:1048C000258701C01586CF010E9665850E942F258C
:1048D00008950F931F93CF93DF938C01EC012E96D5
:1048E000CE01F80163850E945525019719F020E05B
:1048F00030E00CC0CE0161E00E942425F801148252
:10490000CE0160E00E942F2521E030E0C901DF9157
:10491000CF911F910F910895DF92EF92FF920F9325
:104920001F938C01F62EE42ED22E0E946924C8011A
:104930006F2D4E2D2D2D0E9412211F910F91FF9052
:10494000EF90DF9008952F923F924F925F926F9277
:104950007F928F929F92AF92BF92CF92DF92EF920F
:10496000FF920F931F93DF93CF93CDB7DEB73C0138
:10497000962E442E222E0E94B2208FEB94E0F3015B
:1049800091838083C3010E960E941D25F3019386B7
:10499000148615861286118681E090E09C0102C083
:1049A000220F331F4A94E2F7228BFC0102C0EE0F64
:1049B000FF1F2A94E2F71F01F301238A9C0102C022
:1049C000220F331F0A95E2F7248BFC0102C0EE0F81
:1049D000FF1FEA94E2F77F01F301E58A9C0102C020
:1049E000220F331FCA94E2F7268BFC0102C0EE0FA0
:1049F000FF1FAA94E2F75F01F301A78A02C0880FA4
:104A0000991F8A94E2F7808FC3016D894E895F896F
:104A10000E94DA23CF91DF911F910F91FF90EF90C9
:104A2000DF90CF90BF90AF909F908F907F906F90CE
:104A30005F904F903F902F900895FC0112828FEF6E
:104A40008183108213820895FC018381882331F0D1
:104A5000662319F48FEF8183089511820895CF930F
:104A6000DF93EC018B81882319F480E090E013C080
:104A7000898180958623888388E297E06A810E94F5
:104A8000EF2988E297E068810E94712A88E297E026
:104A90000E94B42A90E020E030E0892B11F421E05C
:104AA00030E0C901DF91CF910895CF93DF93EC01FE
:104AB0006A8388E297E00E94C92A88E297E06A81C7
:104AC00041E00E94C52A1B82882311F081E08B837C
:104AD00088E297E00E94022A88838B8190E0DF9130
:104AE000CF910895FC0180914D068C3090F4808325
:104AF0008F5F80934D06815090E0FC01EE0FFF1F09
:104B0000E80FF91FE25BF94F88EB9BE0928381830A
:104B100008958FEF80830895FC0120812C30B8F533
:104B20008181992787FD909548E850E0481B590BF3
:104B3000440F551F440F551F6417750784F0828179
:104B4000992787FD909548E552E0481B590B440F83
:104B5000551F440F551F641775070CF4AB014250E5
:104B60005040CA01AA2797FDA095BA2F880F991F18
:104B7000AA1FBB1F4FB7F89430E0F901EE0FFF1FDB
:104B8000E20FF31FE25BF94F928381834FBF0895D9
:104B9000AF92BF92CF92DF92EF92FF920F931F934B
:104BA000CF93DF93EC019B0182E0603278070CF039
:104BB00048C077FF03C020E030E005C0653B7105C9
:104BC00014F024EB30E000D000D0B901882777FD45
:104BD0008095982F2981332727FD3095E8E8AE2E60
:104BE000B12CA21AB30AAA0CBB1CAA0CBB1CCC2465
:104BF000B7FCC094DC2CEA81FF27E7FDF09528E59F
:104C000032E02E1B3F0B220F331F220F331F44278E
:104C100037FD4095542FEDB7FEB721833283438390
:104C2000548320E030E040E050E004EBE02EF12C33
:104C3000012D112D0E945D339B010F900F900F905D
:104C40000F90CE01B9010E948C25DF91CF911F9169
:104C50000F91FF90EF90DF90CF90BF90AF900895AD
:104C6000CF92DF92EF92FF921F93CF93DF93EC01ED
:104C7000162F7A01690188818C3008F064C0862F74
:104C800061E00E94EA2B888190E0FC01EE0FFF1F9B
:104C9000E80FF91FE25BF94F1F738081807C812B45
:104CA000808380E292E08E199F0964E070E00E94A8
:104CB000F035698380E699E08C199D0964E070E025
:104CC0000E94F0356A83A8818A2F6CE00E94E43547
:104CD000682F70E0AB01440F551F460F571F440F5C
:104CE000551F440F551F20E030E0C901840F951F68
:104CF000FC01EE0FFF1FE80FF91FE25BF94F808107
:104D000086FD15C02F5F3F4F2C30310571F724C051
:104D10001092800082E080938100109285001092B2
:104D20008400B19A80916F00826080936F008A2F17
:104D300090E0FC01EE0FFF1FE80FF91FE25BF94F57
:104D40008081806480838881DF91CF911F91FF9063
:104D5000EF90DF90CF900895672BD1F2E8CF40E23B
:104D600052E020E639E00E94302608951F920F920B
:104D70000FB60F9211242F933F934F935F936F932E
:104D80007F938F939F93AF93BF93EF93FF93809104
:104D9000720687FF05C010928500109284002BC018
:104DA00020917206332727FD309580914D0690E0C3
:104DB0002817390704F580917206992787FD909589
:104DC000FC01EE0FFF1FE80FF91FE25BF94F808136
:104DD00086FF11C080917206992787FD9095FC018E
:104DE000EE0FFF1FE80FF91FE25BF94F80818F7311
:104DF00060E00E94292C809172068F5F809372067A
:104E000020917206332727FD309580914D0690E062
:104E1000281739070CF04EC0809172068C300CF0C8
:104E200049C02091840030918500809172069927B5
:104E300087FD9095FC01EE0FFF1FE80FF91FE25B65
:104E4000F94F81819281280F391F30938900209377
:104E5000880080917206992787FD9095FC01EE0FDE
:104E6000FF1FE80FF91FE25BF94F808186FF2BC01F
:104E700080917206992787FD9095FC01EE0FFF1F28
:104E8000E80FF91FE25BF94F80818F7361E00E94A8
:104E9000292C19C080E49CE905C080918400909180
:104EA0008500049690938900809388008FEF80930B
:104EB000720609C080918400909185000496805408
:104EC0009C4940F3EACFFF91EF91BF91AF919F9141
:104ED0008F917F916F915F914F913F912F910F90A3
:104EE0000FBE0F901F901895F999FECF72BD61BD4E
:104EF000F89A80B50895F999FECF1FBA72BD61BDC9
:104F000040BD0FB6F894FA9AF99A0FBE0895382F5B
:104F1000413210F040E042C0809174068823E1F7EE
:104F200091E090937406209376068FEF8093E106CC
:104F300010929C06415040939D064F5F90937506DA
:104F400080917506330F832B8093750680917706C9
:104F5000813041F410927706809175068093BB00F2
:104F600085EC01C085EE8093BC0080917406813091
:104F7000E1F380919C06841710F440919C0620E098
:104F800030E00AC0FB01E20FF31FD901A458B94F6A
:104F90008C9180832F5F3F4F2417A0F3842F0895B7
:104FA0000F931F93582F122F413210F081E04AC007
:104FB000809174068823E1F782E080937406009361
:104FC00076068FEF8093E10610929C0640939D0633
:104FD000ACE7B6E0FB0102C081918D938E2F861B5A
:104FE0008417D0F31092750680917506550F852BA6
:104FF0008093750680917706813041F41092770690
:10500000809175068093BB0085EC01C085EE80938E
:10501000BC00112321F0809174068230E1F380916D
:10502000E1068F3F11F480E00DC08091E1068032EF
:1050300011F482E007C08091E106803311F084E032
:1050400001C083E01F910F910895482F613210F045
:1050500081E0089580917406843011F082E0089513
:105060006093BF06AEE9B6E0842F9C01F90102C04F
:1050700081918D938E2F841B8617D0F380E0089545
:105080001F920F920FB60F9211242F933F934F93BD
:105090005F936F937F938F939F93AF93BF93EF93A0
:1050A000FF938091B90090E0887F907080369105E1
:1050B00009F4F2C081369105CCF58832910509F4E6
:1050C0007BC089329105B4F48031910509F46FC039
:1050D000813191053CF4009709F447C1089709F024
:1050E0004FC165C08831910509F466C0809709F009
:1050F00047C182C08034910509F4A4C08134910570
:1051000044F48033910509F482C0C89709F038C18E
:1051100089C08035910509F489C08835910509F465
:1051200096C08834910509F02BC1AEC0883991052D
:1051300009F413C189399105ECF48837910509F414
:10514000ABC0893791054CF48836910509F4A4C0A9
:105150008037910509F014C19FC08838910509F482
:10516000FCC08039910509F49DC08038910509F093
:1051700007C198C0803B910509F4C6C0813B9105E9
:105180004CF4803A910509F49FC0883A910509F0E2
:10519000F7C0BAC0803C910509F4E3C0883C910592
:1051A00009F4DFC0883B910509F0EAC0C2C08091D4
:1051B00075068093BB00CFC090919C0680919D06A0
:1051C000981768F490919C06E92FF0E0E458F94FA5
:1051D00080818093BB009F5F90939C06BCC08091B0
:1051E0007606882309F44BC085ED8093BC0080913E
:1051F000BC0084FDFCCFC2C080E28093E10685ED57
:105200008093BC008091BC0084FDFCCFB7C080E3DC
:105210008093E10685ED8093BC008091BC0084FD05
:10522000FCCFACC088E38093E1069BC080919C06D4
:105230009091BB00E82FF0E0E458F94F90838F5F26
:1052400080939C0690919C0680919D0682C08091DF
:105250009C069091BB00E82FF0E0E458F94F908352
:105260008F5F80939C0680917606882341F085EDC0
:105270008093BC008091BC0084FDFCCF7FC081E0A6
:105280008093770684EA6EC085ED8093BC008091A0
:10529000BC0084FDFCCF72C083E080937406109242
:1052A000E00659C08091E006803208F056C0809137
:1052B000E0069091BB00E82FF0E0E054F94F9083B6
:1052C0008F5F8093E00647C08091E006803230F423
:1052D000E091E006F0E0E054F94F108285ED809314
:1052E000BC008091BC0084FDFCCF109274066091DC
:1052F000E006E0917A06F0917B0680EC96E070E0A3
:1053000009951092E0062DC084E0809374061092F7
:10531000BE061092BF06E0917806F09179060995D5
:105320008091BF06882329F481E08093BF06109204
:105330009E069091BE06E92FF0E0E256F94F80817B
:105340008093BB009F5F9093BE069091BE068091B4
:10535000BF06981710F485EC01C085E88093BC0067
:105360000FC085EC8093BC0009C01092E10685ED6A
:105370008093BC008091BC0084FDFCCF1092740629
:10538000FF91EF91BF91AF919F918F917F916F911D
:105390005F914F913F912F910F900FBE0F901F90F3
:1053A00018951092740681E0809376061092770625
:1053B00082E161E00E94292C83E161E00E94292CB6
:1053C000E9EBF0E080818E7F808380818D7F808318
:1053D00088E48093B80085E48093BC00089581E060
:1053E00080932707609304071092250710922607E1
:1053F00008952091030730E080910207281B3109AE
:10540000C90108954091020780910307481718F0D9
:105410002FEF3FEF0AC0E42FF0E0EE51F94F80810B
:10542000282F30E04F5F40930207C9010895E091B3
:10543000020780910307E81718F0EFEFFFEF06C0AF
:10544000F0E0EE51F94F8081E82FF0E0CF010895B0
:10545000089510922B0710922A0788EE93E0A0E09F
:10546000B0E080932C0790932D07A0932E07B09364
:105470002F0781ED94E090932907809328070895E2
:10548000CF92DF92EF92FF920F931F93CF93DF9310
:105490007C016B018A01809127078823A1F0C0E07D
:1054A000D0E00DC0D701ED91FC91D601AC0FBD1F2E
:1054B0000190F081E02DC7016C9109952196C017EC
:1054C000D10780F304C0CB01642F0E942528C801B6
:1054D000DF91CF911F910F91FF90EF90DF90CF90D0
:1054E0000895DF93CF930F92CDB7DEB7FC016983A8
:1054F000809127078823C9F080912607803238F0F1
:1055000081E090E09383828320E030E015C08091B9
:105510002507E82FF0E0EB5FF84F998190838F5FCC
:10552000809325078093260705C0CE01019661E090
:105530000E94252821E030E0C9010F90CF91DF9132
:1055400008950F93062F8091040765E077E040915E
:10555000260721E00E94D0271092250710922607E7
:10556000109227070F91089561E00E94A12A0895E3
:10557000413208F040E2862F62EE76E00E948727F3
:105580001092020780930307089521E00E94B82A31
:1055900008951092020710920307109225071092A7
:1055A00026070E94D12908951F920F920FB60F92DD
:1055B00011242F933F938F939F93AF93BF93809129
:1055C000380790913907A0913A07B0913B07309185
:1055D0003C070196A11DB11D232F2D5F2D3720F013
:1055E0002D570196A11DB11D20933C0780933807CC
:1055F00090933907A0933A07B0933B078091340703
:1056000090913507A0913607B09137070196A11DFB
:10561000B11D8093340790933507A0933607B0935C
:105620003707BF91AF919F918F913F912F910F902D
:105630000FBE0F901F9018958FB7F89420913807E0
:105640003091390740913A0750913B078FBFB9011C
:10565000CA0108959B01AC017FB7F894809134078B
:1056600090913507A0913607B091370766B5A89B92
:1056700005C06F3F19F00196A11DB11D7FBFBA2F64
:10568000A92F982F8827860F911DA11DB11D62E0BB
:10569000880F991FAA1FBB1F6A95D1F7BC012DC0A7
:1056A000FFB7F8948091340790913507A0913607A1
:1056B000B0913707E6B5A89B05C0EF3F19F00196FA
:1056C000A11DB11DFFBFBA2FA92F982F88278E0FBC
:1056D000911DA11DB11DE2E0880F991FAA1FBB1FDC
:1056E000EA95D1F7861B970B885E9340C8F221504C
:1056F00030404040504068517C4F211531054105F4
:10570000510571F60895019739F0880F991F880F98
:10571000991F02970197F1F70895789484B58260F4
:1057200084BD84B5816084BD85B5826085BD85B545
:10573000816085BDEEE6F0E0808181608083E1E8F4
:10574000F0E010828081826080838081816080832C
:10575000E0E8F0E0808181608083E1EBF0E080812F
:1057600084608083E0EBF0E0808181608083EAE701
:10577000F0E080818460808380818260808380818A
:10578000816080838081806880831092C100089549
:10579000982F8E3008F09E5097708091A1048295CA
:1057A000880F880F807C892B80937C0080917A0001
:1057B000806480937A0080917A0086FDFCCF2091EE
:1057C000780040917900942F80E030E0282B392B2D
:1057D000C9010895CF93DF93482F50E0CA01865640
:1057E0009F4FFC0134914A575F4FFA0184918823FF
:1057F00069F190E0880F991FFC01E859FF4FA591CE
:10580000B491FC01EE58FF4FC591D491662351F439
:105810002FB7F8948C91932F909589238C9388813E
:1058200089230BC0623061F42FB7F8948C91932FC9
:10583000909589238C938881832B88832FBF06C002
:105840009FB7F8948C91832B8C939FBFDF91CF915E
:105850000895482F50E0CA0182559F4FFC012491C2
:10586000CA0186569F4FFC0194914A575F4FFA0137
:105870003491332309F440C0222351F1233071F0D5
:10588000243028F42130A1F0223011F514C0263044
:10589000B1F02730C1F02430D9F404C080918000E9
:1058A0008F7703C0809180008F7D8093800010C02F
:1058B00084B58F7702C084B58F7D84BD09C0809187
:1058C000B0008F7703C08091B0008F7D8093B000CF
:1058D000E32FF0E0EE0FFF1FEE58FF4FA591B491BC
:1058E0002FB7F894662321F48C919095892302C0F8
:1058F0008C91892B8C932FBF089508951F920F923E
:105900000FB60F9211242F933F934F938F939F9332
:10591000EF93FF938091C00082FD1DC04091C600AF
:1059200020917D0730917E072F5F3F4F2F7330709E
:1059300080917F07909180072817390771F0E091D7
:105940007D07F0917E07E35CF84F408330937E073C
:1059500020937D0702C08091C600FF91EF919F9137
:105960008F914F913F912F910F900FBE0F901F90ED
:105970001895E091D107F091D207E05CFF4F81913B
:10598000919120813181821B930B8F739070892BB1
:1059900011F00E947D2C08951F920F920FB60F9266
:1059A00011242F933F938F939F93EF93FF93209115
:1059B000C1073091C2078091C3079091C40728178F
:1059C000390731F48091C1008F7D8093C10014C0EC
:1059D000E091C307F091C407EF57F84F2081809101
:1059E000C3079091C40701968F7390709093C4077A
:1059F0008093C3072093C600FF91EF919F918F91F1
:105A00003F912F910F900FBE0F901F901895AF925E
:105A1000BF92DF92EF92FF920F931F93CF93DF938A
:105A2000EC017A018B01DD24403081EE580780E0E3
:105A3000680780E0780711F0DD24D39491E0A92E67
:105A4000B12CEC89FD89DD2069F0C50108A002C0F8
:105A5000880F991F0A94E2F7808360E079E08DE374
:105A600090E005C0108260E874E88EE190E0A80143
:105A700097010E94033621503040404050405695D7
:105A800047953795279580E12030380720F0DD20B5
:105A900011F0DD24D6CFE889F9893083EA89FB89C2
:105AA000208319A2EE89FF89408121E030E0C901FD
:105AB0000C8C02C0880F991F0A94E2F7482B408390
:105AC000EE89FF894081C9010D8C02C0880F991FA2
:105AD0000A94E2F7482B4083EE89FF894081C9018F
