:100000000C9465000C948D000C948D000C948D0064
:100010000C948D000C948D000C948D000C94FB308E
:100020000C948D000C948D000C948D000C94C626BD
:100030000C948D000C948D000C948D000C948D000C
:100040000C94E42A0C948D000C948E2C0C94DC2CD3
:100050000C948D000C948D000C948D000C948D00EC
:100060000C9450280C948D00000000002400270000
:100070002A0000000000250028002B0000000000DE
:1000800023002600290004040404040404040202DA
:100090000202020203030303030301020408102007
:1000A0004080010204081020010204081020000012
:1000B0000007000201000003040600000000000029
:1000C00000000200AB00392A482E11241FBECFEFDA
:1000D000D8E0DEBFCDBF14E0A0E0B1E0E8EDFCE683
:1000E00002C005900D92A03FB107D9F717E0A0EF2D
:1000F000B4E001C01D92AC3FB107E1F710E0CAECDB
:10010000D0E004C02297FE010E946636C43CD107AD
:10011000C9F70E949E2E0C946A360C9400006091E0
:100120000106709102068091FF0590910006680F0C
:10013000791F6230710524F09B013595279509C020
:10014000CB0162E070E00E94003622273327261B95
:10015000370BC90108958F92AF92CF92EF920F9310
:1001600000D00F9283E0EDB7FEB781831382128235
:1001700080EF94E067E242E021E000E0E4E0EE2E70
:1001800075E0C72E56E0A52E37E0832E0E94B324DB
:100190000F900F900F9089E095E00E9482258CE0EF
:1001A00095E00E941B2381E295E00E94ED220F91D1
:1001B000EF90CF90AF908F9008952F923F924F92F3
:1001C0005F926F927F928F929F92AF92BF92CF92E7
:1001D000DF92EF92FF920F931F931B012C018091EE
:1001E0001D068823E1F48DE196E00E94AD2E892B57
:1001F000B1F06091D5057091D605882777FD80957F
:10020000982F0E94BA346093290670932A0680932F
:100210002B0690932C068DE196E00E94B72E6091FC
:100220009704709198048091990490919A04209178
:10023000AB033091AC034091AD035091AE030E94EB
:10024000B7333B014C012091AF033091B003409193
:10025000B1035091B2030E94B7339B01AC01C401BA
:10026000B3010E941F345B016C01609325067093FB
:1002700026068093270690932806E0902906F090A2
:100280002A0600912B0610912C06C201B101A8018B
:1002900097010E94B6339B01AC01C601B5010E94D3
:1002A0006E359B01AC01C801B7010E94B7337B01D9
:1002B0008C01CB01D8018093290690932A06A09344
:1002C0002B06B0932C0660E070E080E89FE3A60167
:1002D00095010E94B633A40193010E946E3560938C
:1002E0009704709398048093990490939A04B701AB
:1002F000C8011F910F91FF90EF90DF90CF90BF90BA
:10030000AF909F908F907F906F905F904F903F90B5
:100310002F9008952F923F924F925F926F927F920B
:100320008F929F92AF92BF92CF92DF92EF92FF9205
:100330000F931F931B012C0180912D068823E1F45C
:100340008DE296E00E94AD2E892BB1F06091D3052D
:100350007091D405882777FD8095982F0E94BA3434
:100360006093390670933A0680933B0690933C065F
:100370008DE296E00E94B72E60919B0470919C04E0
:1003800080919D0490919E042091A3033091A40339
:100390004091A5035091A6030E94B7333B014C0145
:1003A0002091A7033091A8034091A9035091AA037B
:1003B0000E94B7339B01AC01C401B3010E941F34FA
:1003C0005B016C01609335067093360680933706A7
:1003D00090933806E0903906F0903A0600913B067B
:1003E00010913C06C201B101A80197010E94B633E9
:1003F0009B01AC01C601B5010E946E359B01AC01A9
:10040000C801B7010E94B7337B018C01CB01D80131
:100410008093390690933A06A0933B06B0933C062E
:1004200060E070E080E89FE3A60195010E94B6338A
:10043000A40193010E946E3560939B0470939C0409
:1004400080939D0490939E04B701C8011F910F9162
:10045000FF90EF90DF90CF90BF90AF909F908F90E4
:100460007F906F905F904F903F902F9008952F92C4
:100470003F924F925F926F927F928F929F92AF9234
:10048000BF92CF92DF92EF92FF920F931F931B01C7
:100490002C0180913D068823E1F48DE396E00E94D3
:1004A000AD2E892BB1F06091DB057091DC058827BA
:1004B00077FD8095982F0E94BA3460934906709317
:1004C0004A0680934B0690934C068DE396E00E947B
:1004D000B72E60919F047091A0048091A104909127
:1004E000A20420919B0330919C0340919D03509165
:1004F0009E030E94B7333B014C0120919F03309132
:10050000A0034091A1035091A2030E94B7339B0125
:10051000AC01C401B3010E941F345B016C01609304
:100520004506709346068093470690934806E090F0
:100530004906F0904A0600914B0610914C06C20104
:10054000B101A80197010E94B6339B01AC01C6011D
:10055000B5010E946E359B01AC01C801B7010E9434
:10056000B7337B018C01CB01D8018093490690936E
:100570004A06A0934B06B0934C0660E070E080E81A
:100580009FE3A60195010E94B633A40193010E9446
:100590006E3560939F047093A0048093A1049093A0
:1005A000A204B701C8011F910F91FF90EF90DF9057
:1005B000CF90BF90AF909F908F907F906F905F9003
:1005C0004F903F902F900895CF93DF93EC0180914F
:1005D0009703909198030197D9F480EF94E060E03D
:1005E00041E00E94F02080EF94E060E071E00E9422
:1005F000D92F80EF94E060E041E00E94F02080EF8E
:1006000094E0BE010E94D92F109298031092970394
:10061000DF91CF910895809105069091060601978C
:1006200009F046C080EF94E060E041E00E94F020D5
:1006300080EF94E061E171E00E94D92F6091D705CD
:100640007091D80580EF94E04AE050E00E94C62FF8
:100650008091D7059091D8058436910534F480EFC8
:1006600094E063E171E00E94D92F80EF94E065E0AF
:1006700041E00E94F02080EF94E065E171E00E948B
:10068000D92F6091D9057091DA0580EF94E04AE0A6
:1006900050E00E94C62F8091D9059091DA058436EA
:1006A000910534F480EF94E063E171E00E94D92F6A
:1006B0000895EF92FF920F931F9300EF14E0C8018B
:1006C00060E040E00E94F020C80167E171E00E9414
:1006D000D92F6091F5057091F6056F5F7F4FC801C6
:1006E0004AE050E00E94C62F6091F3057091F40536
:1006F0006F5F7F4FC8014AE050E00E94C62FE09133
:10070000F505F091F605B3E0EE0FFF1FBA95E1F79E
:100710008091F3059091F405E80FF91FEE0FFF1F8C
:10072000E95DFB4FE080F180C80163E171E00E9468
:10073000D92FC801B7014AE050E00E94752F1F91E0
:100740000F91FF90EF900895EF92FF920F931F93F8
:1007500085E10E94D82B85E10E94D82BAA2797FD1E
:10076000A095BA2FBC01CD010E94BA342CE032E82A
:1007700040E45CE30E946E357B018C012091F7051B
:100780003091F8054091F9055091FA050E941B340B
:1007900018164CF084E068EB7BE024EF31E040E099
:1007A00050E00E945731B701C8011F910F91FF908F
:1007B000EF900895CF92DF92EF92FF920F931F93E5
:1007C0000E94A4036B017C0100EF14E0C8016AE001
:1007D00040E00E94F020C801B701A60122E030E00D
:1007E0000E94C030C8016AE171E00E94D92F1F91B8
:1007F0000F91FF90EF90DF90CF900895EF92FF92CE
:100800000F931F93CF93DF93E82EF62EC0E0D0E036
:1008100000E010E0CD2B79F480EF94E06E2D4F2DA9
:100820000E94F02080EF94E06CE171E00E94D92FEB
:10083000C1E0D0E00EC080EF94E06E2D4F2D0E94FD
:10084000F02080EF94E06EE171E00E94D92FC0E0CB
:10085000D0E064E670E080E090E00E943A2B0F5F09
:100860001F4F0A301105B1F6DF91CF911F910F9103
:10087000FF90EF900895909308068093070681E01B
:1008800090E0909398038093970364EF71E080E089
:1008900090E00E943A2B08950F931F9300EF14E00D
:1008A000C80160E041E00E94F020C80160E271E010
:1008B0000E94D92F64EF71E080E090E00E943A2B13
:1008C0001F910F910895809105069091060601975A
:1008D00021F58091D7059091D8050A9734F0809141
:1008E000D9059091DA050A97C4F484E068EB7BE0BF
:1008F00024EF31E040E050E00E94573168EC70E0B6
:1009000080E090E00E943A2B84E068EB7BE024EFEB
:1009100031E040E050E00E94573108951F93182FB6
:1009200088EC90E00E94932B812F61E00E94392C8B
:1009300088EC90E00E94932B1F9108951F93182F2D
:1009400088EC90E00E94932B812F60E00E94392C6C
:1009500088EC90E00E94932B1F9108958BE060E05B
:100960000E94392C8CE291E00E94932B8AE060E097
:100970000E94392C8CE291E00E94932B8BE061E085
:100980000E94392C8CE291E00E94932B8BE060E076
:100990000E94392C8CE291E00E94932B08958BE009
:1009A00060E00E94392C8CE291E00E94932B8AE057
:1009B00061E00E94392C8CE291E00E94932B8BE045
:1009C00061E00E94392C8CE291E00E94932B8BE035
:1009D00060E00E94392C8CE291E00E94932B0895F4
:1009E000FF920F931F93CF93DF93082FF92EFB01F4
:1009F00023E0EE0FFF1F2A95E1F7E40FF51FEE0F3E
:100A0000FF1FE954FC4FC081D1819F2D0E948E04AD
:100A100062E070E080E090E00E943A2B802F9F2DF2
:100A20000E949E040E94AE040E94AE040E94AE0486
:100A30000E94CF040E94AE0414E10E94AE04115043
:100A4000E1F7802F9F2D0E948E0462E070E080E02D
:100A500090E00E943A2B802F9F2D0E949E04802FB1
:100A60009F2D0E948E0462E070E080E090E00E9482
:100A70003A2B802F9F2D0E949E040E94CF040E943B
:100A8000AE040E94AE040E94AE040E94CF0410E1A6
:100A9000C0FF03C00E94CF0402C00E94AE041150E8
:100AA00019F0D695C795F4CF0E94AE040E94AE040B
:100AB0000E94AE040E94AE04802F9F2D0E948E04DF
:100AC00062E070E080E090E00E943A2B802F60E0CE
:100AD0000E94392C8BE060E00E94392C8AE060E0B3
:100AE0000E94392CDF91CF911F910F91FF900895B3
:100AF000CF92DF92EF92FF920F931F93CF93DF93EA
:100B00008C017B016A0186E090E0B801A7010E9498
:100B1000F00487E090E0B801A7010E94F00488E0AB
:100B200090E0B801A7010E94F00489E090E0B801CC
:100B3000A7010E94F00468EC70E080E090E00E9461
:100B40003A2BC0E0D0E00091D7051091D8058EE097
:100B50000E94D82B080F191F1093D8050093D705B2
:100B60000091D9051091DA0580E10E94D82BFC0193
:100B7000E00FF11FF093DA05E093D9052196C23317
:100B8000D10509F78091D7059091D80562E370E00F
:100B90000E9400369B017093D8056093D705CF0162
:100BA00062E370E00E940036FB017093DA05609307
:100BB000D905CB01820F931F62E070E00E940036DE
:100BC000EB0126393105CCF0E639F105B4F081E0CE
:100BD000C816D10449F484E068EB7BE024EF31E0EF
:100BE00040E050E00E9457310E94590381E0C8164E
:100BF000D10459F4C1E0D0E008C00E94590381E05B
:100C0000C816D10411F4C0E0D0E0CE01DF91CF913D
:100C10001F910F91FF90EF90DF90CF900895CF92AA
:100C2000DF92EF92FF920F931F937C018B0133E7CA
:100C3000C32E36E0D32EC601B7010E948427F801E7
:100C400080830894E11CF11CC601B7010E9484272F
:100C5000F801818382E090E01F910F91FF90EF9067
:100C6000DF90CF900895CF92DF92EF92FF920F9393
:100C70001F937C018B0143E7C42E46E0D42EC601AE
:100C8000B701F80140810E948B270894E11CF11CF8
:100C9000C601B701F80141810E948B2782E090E0F4
:100CA0001F910F91FF90EF90DF90CF900895EF92FA
:100CB000FF920F931F93CF93DF9380EF94E060E058
:100CC00041E00E94F02080EF94E063E271E00E9436
:100CD000D92F1092E6051092E5058EE00E94D82BE0
:100CE000EE24FF24C0E0D0E00091E5051091E60578
:100CF0008EE00E94D82B080F191F1093E605009371
:100D0000E505CD2B79F480EF94E06CE041E00E94A2
:100D1000F02080EF94E06CE171E00E94D92FC1E0F7
:100D2000D0E00EC080EF94E06CE041E00E94F02043
:100D300080EF94E06EE171E00E94D92FC0E0D0E036
:100D400062E370E080E090E00E943A2B0894E11C9E
:100D5000F11C82E3E816F10439F68091E5059091E3
:100D6000E60562E370E00E940036CB0177FF03C026
:100D7000909581959F4F9093E6058093E50510929D
:100D8000E8051092E70580E10E94D82BEE24FF24AD
:100D9000C0E0D0E00091E7051091E80580E10E94F5
:100DA000D82B080F191F1093E8050093E705CD2BEA
:100DB00079F480EF94E06CE041E00E94F02080EF55
:100DC00094E06CE171E00E94D92FC1E0D0E00EC048
:100DD00080EF94E06CE041E00E94F02080EF94E02E
:100DE0006EE171E00E94D92FC0E0D0E062E370E0D4
:100DF00080E090E00E943A2B0894E11CF11C82E311
:100E0000E816F10439F68091E7059091E80562E370
:100E100070E00E940036CB0177FF03C0909581956A
:100E20009F4F9093E8058093E7051092EE0510928E
:100E3000ED058FE00E94D82BEE24FF24C0E0D0E027
:100E40000091ED051091EE058FE00E94D82B080F60
:100E5000191F1093EE050093ED05CD2B79F480EF6B
:100E600094E06CE041E00E94F02080EF94E06CE1BF
:100E700071E00E94D92FC1E0D0E00EC080EF94E075
:100E80006CE041E00E94F02080EF94E06EE171E0C0
:100E90000E94D92FC0E0D0E062E370E080E090E0F3
:100EA0000E943A2B0894E11CF11C82E3E816F1043D
:100EB00039F68091ED059091EE0562E370E00E94B5
:100EC0000036CB0177FF03C0909581959F4F90939B
:100ED000EE058093ED051092F0051092EF0584E188
:100EE0000E94D82BEE24FF24C0E0D0E00091EF0553
:100EF0001091F00584E10E94D82B080F191F109360
:100F0000F0050093EF05CD2B79F480EF94E06CE0D1
:100F100041E00E94F02080EF94E06CE171E00E94DB
:100F2000D92FC1E0D0E00EC080EF94E06CE041E04A
:100F30000E94F02080EF94E06EE171E00E94D92FD2
:100F4000C0E0D0E062E370E080E090E00E943A2BE5
:100F50000894E11CF11C82E3E816F10439F6809153
:100F6000EF059091F00562E370E00E940036CB013E
:100F700077FF03C0909581959F4F9093F0058093E4
:100F8000EF0588EC90E065EE75E00E94330682ED97
:100F900090E067EE75E00E9433068CED90E06DEE18
:100FA00075E00E94330686EE90E06FEE75E00E94D9
:100FB000330680EF94E060E041E00E94F02080EF93
:100FC00094E064E371E00E94D92F82E090E0909376
:100FD00006068093050681E090E0909308068093D2
:100FE00007069093980380939703DF91CF911F9109
:100FF0000F91FF90EF900895EF92FF920F931F9340
:10100000DF93CF93CDB7DEB7A8970FB6F894DEBFC6
:101010000FBECDBF83E796E060E070E00E948427BA
:10102000813039F48091B3030E94D82B06970CF4D9
:10103000F4C180EF94E060E040E00E94F02080EF97
:1010400094E063E471E00E94D92F00E010E0EE2408
:10105000FF2483E796E0B70140E00E948B27012B35
:1010600079F480EF94E060E041E00E94F02080EFAE
:1010700094E06CE171E00E94D92F01E010E00EC015
:1010800080EF94E060E041E00E94F02080EF94E087
:101090006EE171E00E94D92F00E010E065E070E0A1
:1010A00080E090E00E943A2B0894E11CF11C80E063
:1010B000E81682E0F80669F681E090E09A83898379
:1010C00080E090E0BE016F5F7F4F0E9433061C827C
:1010D0001B828EE190E0BE016D5F7F4F0E94330660
:1010E0001E821D828DE290E0BE016B5F7F4F0E94E9
:1010F00033068FE090E098878F8383E290E0BE0113
:10110000695F7F4F0E94330686E990E09A8789875E
:1011100089E190E0BE01675F7F4F0E94330683E361
:1011200093E3A3E3B1E48DA39EA3AFA3B8A755E2D5
:10113000E52EF12CEC0EFD1E68E270E08B010F5FD6
:101140001F4FF70141917F0183E796E00E948B27B3
:10115000B8010C32110591F708EC15E01C870B87DC
:101160008AE090E0BE01655F7F4F0E9433061E87D4
:101170000D878FE090E0BE01635F7F4F0E943306D2
:10118000188A1F8684E190E0BE01615F7F4F0E9454
:10119000330685E090E09A8B898B8AEA90E0BE0165
:1011A0006F5E7F4F0E9433061C8A1B8A86E990E09F
:1011B000BE016D5E7F4F0E9433061E8A1D8A80EA43
:1011C00090E0BE016B5E7F4F0E943306188E1F8A2F
:1011D00084EB90E0BE01695E7F4F0E9433061A8E59
:1011E000198E8EEB90E0BE01675E7F4F0E94330642
:1011F0001C8E1B8E88EC90E0BE01655E7F4F0E94C6
:1012000033061E8E1D8E82ED90E0BE01635E7F4F21
:101210000E94330618A21F8E8CED90E0BE01615E25
:101220007F4F0E9433061AA219A286EE90E0BE01FB
:101230006F5D7F4F0E94330684E690E09CA38BA3F2
:101240008AEF90E0BE016D5D7F4F0E94330680EF14
:1012500094E00E941A2180EF94E060E040E00E9458
:10126000F02080EF94E064E571E00E94D92FEE2435
:10127000FF24E114F10469F480EF94E060E041E0C0
:101280000E94F02080EF94E06EE571E00E94D92F7B
:101290002DC0F1E0EF16F10459F480EF94E060E026
:1012A00041E00E94F02080EF94E067E671E02CC0FE
:1012B00082E0E816F10459F480EF94E060E041E048
:1012C0000E94F02080EF94E060E771E01DC0E3E051
:1012D000EE16F10459F480EF94E060E041E00E94E2
:1012E000F02080EF94E069E771E00EC0F4E0EF16C3
:1012F000F10461F480EF94E060E041E00E94F020AE
:1013000080EF94E062E871E00E94D92F80EF94E0D2
:1013100068E041E00E94F02080EF94E06BE871E02B
:101320000E94D92F8091B3030E94D82B97FDFACF4A
:1013300080EF94E068E041E00E94F02060EA7FE006
:1013400080E090E00E943A2B8091B3030E94D82B5A
:101350008C0180EF94E068E971E00E94D92F80EF62
:1013600094E0B8014AE050E00E94C62F64EF71E0BB
:1013700080E090E00E943A2BE114F10459F41093BC
:1013800012060093110684E690E061E176E00E9487
:10139000330627C081E0E816F10449F410931406DF
:1013A000009313068EE690E063E176E026C0E2E06B
:1013B000EE16F10449F4109316060093150688E71B
:1013C00090E065E176E019C0F3E0EF16F10449F42E
:1013D000109318060093170682E890E067E176E024
:1013E0000CC084E0E816F10451F410931A0600933F
:1013F00019068CE890E069E176E00E94330668EE19
:1014000073E080E090E00E943A2B0894E11CF11C0C
:10141000E5E0EE16F10409F02CCF80EF94E00E9495
:101420001A21A8960FB6F894DEBF0FBECDBFCF919C
:10143000DF911F910F91FF90EF9008958CE095E060
:101440000E943F232FEF8F3F920719F420E030E0F6
:101450001EC08330910519F423E030E018C08430B9
:10146000910519F424E030E012C08230910519F49E
:1014700022E030E00CC08530910519F425E030E021
:1014800006C020E030E0019711F421E030E0C9010E
:1014900008950F931F93CF93DF93C7EFD5E068E2D2
:1014A00070E08B010F5F1F4F83E796E00E94842757
:1014B0008993B8010C321105A1F780EF94E060E048
:1014C00041E00E94F02080EF94E06CE971E00E941E
:1014D000D92F80EF94E06AE041E00E94F020409133
:1014E000F7055091F8056091F9057091FA0580EFC4
:1014F00094E022E030E00E94C0300E941E0A9093E7
:10150000CE058093CD05059709F066C064EF71E0C4
:1015100080E090E00E943A2B6091F7057091F80509
:101520008091F9059091FA052DEC3CEC4CEC5DE3D3
:101530000E94B7336093F7057093F8058093F9051F
:101540009093FA0520E030E040E451E40E946A35CF
:10155000181664F480E090E0A0E4B1E48093F7050D
:101560009093F805A093F905B093FA0580EF94E005
:101570006AE041E00E94F0204091F7055091F805A3
:101580006091F9057091FA0580EF94E022E030E077
:101590000E94C03080EF94E063E171E00E94D92F97
:1015A0006091F7057091F8058091F9059091FA0521
:1015B00020E030E040E251E40E941B34882364F4D0
:1015C00080EF94E069E041E00E94F02080EF94E039
:1015D00063E171E00E94D92F8091CD059091CE05F5
:1015E000029709F066C064EF71E080E090E00E942D
:1015F0003A2B6091F7057091F8058091F90590916B
:10160000FA052DEC3CEC4CEC5DE30E94B6336093A4
:10161000F7057093F8058093F9059093FA0520E09B
:1016200030E040EC50E40E941B34882364F480E0F6
:1016300090E0A0ECB0E48093F7059093F805A093B8
:10164000F905B093FA0580EF94E06AE041E00E946A
:10165000F0204091F7055091F8056091F9057091DF
:10166000FA0580EF94E022E030E00E94C03080EF85
:1016700094E063E171E00E94D92F6091F7057091C9
:10168000F8058091F9059091FA0520E030E040E2FC
:1016900051E40E941B34882364F480EF94E069E0F5
:1016A00041E00E94F02080EF94E063E171E00E944D
:1016B000D92F8091CD059091CE05019709F01DCFCE
:1016C00064EF71E080E090E00E943A2BC7EFD5E034
:1016D00068E270E08B010F5F1F4F499183E796E04E
:1016E0000E948B27B8010C321105A1F78FE090E022
:1016F00061E070E00E94FE0382E090E090930606B5
:101700008093050681E090E0909308068093070699
:101710009093980380939703DF91CF911F910F913E
:1017200008950F931F93CF93DF9384E190E063E0DC
:1017300076E00E940F0680EF94E060E041E00E94B6
:10174000F02080EF94E06EEA71E00E94D92F80EFE4
:1017500094E06FE041E00E94F020809103069091B8
:101760000406892B29F480EF94E06FEB71E004C04C
:1017700080EF94E061EC71E00E94D92F01E010E06D
:101780000E941E0A9093CE058093CD058530910569
:1017900011F0029761F564EF71E080E090E00E9443
:1017A0003A2B8091030690910406892B29F410931B
:1017B00004060093030604C0109204061092030668
:1017C00080EF94E06FE041E00E94F02080910306FA
:1017D00090910406892B29F480EF94E06FEB71E07F
:1017E00004C080EF94E061EC71E00E94D92FC091B9
:1017F000CD05D091CE05C130D10511F664EF71E071
:1018000080E090E00E943A2B84E190E063E076E093
:101810000E9433068FE090E061E070E00E94FE03DA
:1018200082E090E09093060680930506D093080628
:10183000C0930706D0939803C0939703DF91CF918D
:101840001F910F910895CF92DF92EF92FF920F9325
:101850001F93DF93CF9300D0CDB7DEB78AEF90E030
:10186000BE016F5F7F4F0E940F0680EF94E060E043
:1018700041E00E94F02080EF94E063EC71E00E9470
:10188000D92F80EF94E06CE041E00E94F020698164
:101890007A8180EF94E04AE050E00E94C62F89816F
:1018A0009A810A9734F480EF94E063E171E00E943A
:1018B000D92F78ECE72EF12C61E0C62ED12C0E94B6
:1018C0001E0A9093CE058093CD05059799F564EF98
:1018D00071E080E090E00E943A2B89819A81019624
:1018E0009A838983893C910514F0FA82E98280EF1A
:1018F00094E06CE041E00E94F02069817A8180EF01
:1019000094E04AE050E00E94C62F89819A810A97AC
:1019100034F480EF94E063E171E00E94D92F898173
:101920009A818436910534F480EF94E063E171E0AC
:101930000E94D92F8091CD059091CE05029799F5FF
:1019400064EF71E080E090E00E943A2B89819A81F7
:1019500001979A8389831816190614F0DA82C982CE
:1019600080EF94E06CE041E00E94F02069817A8190
:1019700080EF94E04AE050E00E94C62F89819A816E
:101980000A9734F480EF94E063E171E00E94D92F6C
:1019900089819A818436910534F480EF94E063E183
:1019A00071E00E94D92F8091CD059091CE050397CB
:1019B00099F564EF71E080E090E00E943A2B898114
:1019C0009A810A969A838983893C910514F0FA8258
:1019D000E98280EF94E06CE041E00E94F0206981B0
:1019E0007A8180EF94E04AE050E00E94C62F89811E
:1019F0009A810A9734F480EF94E063E171E00E94E9
:101A0000D92F89819A818436910534F480EF94E04E
:101A100063E171E00E94D92F8091CD059091CE05B0
:101A2000049799F564EF71E080E090E00E943A2B12
:101A300089819A810A979A838983893C910514F058
:101A4000FA82E98280EF94E06CE041E00E94F020AD
:101A500069817A8180EF94E04AE050E00E94C62FCD
:101A600089819A810A9734F480EF94E063E171E010
:101A70000E94D92F89819A818436910534F480EFB0
:101A800094E063E171E00E94D92F0091CD0510919F
:101A9000CE050130110509F012CF64EF71E080E04E
:101AA00090E00E943A2B8AEF90E0BE016F5F7F4F7B
:101AB0000E94330669817A81882777FD8095982F67
:101AC0000E94BA346093A7037093A8038093A9037C
:101AD0009093AA036093AF037093B0038093B10314
:101AE0009093B2038FE090E061E070E00E94FE030B
:101AF00082E090E090930606809305061093080616
:101B00000093070610939803009397030F900F908C
:101B1000CF91DF911F910F91FF90EF90DF90CF90C9
:101B20000895CF92DF92EF92FF920F931F93DF936E
:101B3000CF9300D0CDB7DEB789E190E0BE016F5FF3
:101B40007F4F0E940F0680EF94E060E041E00E942A
:101B5000F02080EF94E061ED71E00E94D92F80EFDA
:101B600094E06CE041E00E94F02069817A8180EF8E
:101B700094E04AE050E00E94C62F89819A810A973A
:101B800034F480EF94E063E171E00E94D92FF8EC27
:101B9000EF2EF12CE1E0CE2ED12C0E941E0A909364
:101BA000CE058093CD05059709F03FC064EF71E045
:101BB00080E090E00E943A2B89819A8101969A8375
:101BC0008983893C910514F0FA82E98280EF94E0E0
:101BD0006CE041E00E94F02069817A8180EF94E01E
:101BE0004AE050E00E94C62F60919F037091A003CD
:101BF0008091A1039091A20320E030E040E251E403
:101C00000E941B34882334F480EF94E063E171E098
:101C10000E94D92F89819A818436910534F480EF0E
:101C200094E063E171E00E94D92F8091CD059091FD
:101C3000CE05029799F564EF71E080E090E00E9494
:101C40003A2B89819A8101979A83898318161906FC
:101C500014F0DA82C98280EF94E06CE041E00E94E7
:101C6000F02069817A8180EF94E04AE050E00E94A0
:101C7000C62F89819A810A9734F480EF94E063E15A
:101C800071E00E94D92F89819A818436910534F4BC
:101C900080EF94E063E171E00E94D92F8091CD053F
:101CA0009091CE05039709F03FC064EF71E080E0AA
:101CB00090E00E943A2B89819A810A969A838983BF
:101CC000893C910514F0FA82E98280EF94E06CE09F
:101CD00041E00E94F02069817A8180EF94E04AE03F
:101CE00050E00E94C62F60919F037091A0038091E5
:101CF000A1039091A20320E030E040E251E40E9471
:101D00001B34882334F480EF94E063E171E00E9497
:101D1000D92F89819A818436910534F480EF94E03B
:101D200063E171E00E94D92F8091CD059091CE059D
:101D3000049709F03FC064EF71E080E090E00E94FA
:101D40003A2B89819A810A979A838983893C9105E4
:101D500014F0FA82E98280EF94E06CE041E00E94A6
:101D6000F02069817A8180EF94E04AE050E00E949F
:101D7000C62F60919F037091A0038091A103909161
:101D8000A20320E030E040E251E40E941B348823AB
:101D900034F480EF94E063E171E00E94D92F8981EF
:101DA0009A818436910534F480EF94E063E171E028
:101DB0000E94D92F0091CD051091CE05013011055B
:101DC00009F0EBCE64EF71E080E090E00E943A2BE6
:101DD00089E190E0BE016F5F7F4F0E943306698109
:101DE0007A81882777FD8095982F0E94BA34609376
:101DF0009F037093A0038093A1039093A2038FE0AD
:101E000090E061E070E00E94FE0382E090E0909339
:101E100006068093050610930806009307061093A4
:101E20009803009397030F900F90CF91DF911F912C
:101E30000F91FF90EF90DF90CF9008950F931F9335
:101E4000CF93DF938AEA90E061EF75E00E940F067E
:101E500080EF94E060E041E00E94F02080EF94E0A9
:101E600060EE71E00E94D92F80EF94E06CE041E0D9
:101E70000E94F0206091F1057091F20580EF94E0EE
:101E80004AE050E00E94C62F8091FB059091FC052E
:101E90000A9734F480EF94E063E171E00E94D92F57
:101EA0000EE110E00E941E0A9093CE058093CD05AE
:101EB000059789F564EF71E080E090E00E943A2B8D
:101EC0008091F1059091F20501969093F20580932F
:101ED000F1054F9724F01093F2050093F10580EF80
:101EE00094E06CE041E00E94F0206091F105709177
:101EF000F20580EF94E04AE050E00E94C62F809106
:101F0000F1059091F2050A9734F480EF94E063E1D3
:101F100071E00E94D92F8091CD059091CE05029756
:101F200089F564EF71E080E090E00E943A2B8091A7
:101F3000F1059091F20501979093F2058093F105D8
:101F400097FF04C01092F2051092F10580EF94E023
:101F50006CE041E00E94F0206091F1057091F20583
:101F600080EF94E04AE050E00E94C62F8091F10596
:101F70009091F2050A9734F480EF94E063E171E008
:101F80000E94D92FC091CD05D091CE05C130D10589
:101F900009F088CF64EF71E080E090E00E943A2B76
:101FA0008AEA90E061EF75E00E9433068FE090E0EE
:101FB00061E070E00E94FE0382E090E090930606EC
:101FC00080930506D0930806C0930706D093980324
:101FD000C0939703DF91CF911F910F910895EF92D6
:101FE000FF920F931F93CF93DF9383E290E06BEF09
:101FF00075E00E940F0680EF94E060E041E00E94EF
:10200000F02080EF94E06FEE71E00E94D92F80EF16
:1020100094E06CE041E00E94F0206091FB0570913B
:10202000FC0580EF94E04AE050E00E94C62F8091CA
:10203000FB059091FC050A9734F480EF94E063E18E
:1020400071E00E94D92FADE2EA2EF12C03ED1FEFD3
:102050000E941E0A9093CE058093CD05059789F5C1
:1020600064EF71E080E090E00E943A2B8091FB05E4
:102070009091FC0501969093FC058093FB058E974B
:1020800024F0F092FC05E092FB0580EF94E06CE018
:1020900041E00E94F0206091FB057091FC0580EF0B
:1020A00094E04AE050E00E94C62F8091FB05909199
:1020B000FC050A9734F480EF94E063E171E00E943C
:1020C000D92F8091CD059091CE05029791F564EFBF
:1020D00071E080E090E00E943A2B8091FB059091A6
:1020E000FC0501979093FC058093FB05835D9F4F52
:1020F00024F41093FC050093FB0580EF94E06CE062
:1021000041E00E94F0206091FB057091FC0580EF9A
:1021100094E04AE050E00E94C62F8091FB05909128
:10212000FC050A9734F480EF94E063E171E00E94CB
:10213000D92FC091CD05D091CE05C130D10509F080
:1021400087CF64EF71E080E090E00E943A2B83E259
:1021500090E06BEF75E00E9433068FE090E061E065
:1021600070E00E94FE0382E090E090930606809368
:102170000506D0930806C0930706D0939803C09332
:102180009703DF91CF911F910F91FF90EF900895EA
:10219000EF92FF920F931F93CF93DF938EE190E026
:1021A00063EF75E00E940F068DE290E065EF75E049
:1021B0000E940F0680EF94E060E041E00E94F02072
:1021C00080EF94E06CEF71E00E94D92F80EF94E0F3
:1021D0006DE041E00E94F0206091F5057091F605F8
:1021E0006F5F7F4F80EF94E04AE050E00E94C62F7F
:1021F0006091F3057091F4056F5F7F4F80EF94E07D
:102200004AE050E00E94C62FB7E0EB2EF12C04E02C
:1022100010E00E941E0A9093CE058093CD0505978D
:1022200009F051C064EF71E080E090E00E943A2B29
:1022300080EF94E06DE041E00E94F0208091F30592
:102240009091F40501969093F4058093F305089717
:102250009CF01092F4051092F3058091F505909191
:10226000F60501969093F6058093F505059724F001
:102270001092F6051092F5056091F5057091F6053E
:102280006F5F7F4F80EF94E04AE050E00E94C62FDE
:102290006091F3057091F4056F5F7F4F80EF94E0DC
:1022A0004AE050E00E94C62F6091F3057091F4055A
:1022B0008091F5059091F60541E050E00E94780587
:1022C000892B09F4B5CF8091CD059091CE05029769
:1022D00009F051C064EF71E080E090E00E943A2B79
:1022E00080EF94E06DE041E00E94F0208091F305E2
:1022F0009091F40501979093F4058093F30597FF6F
:1023000013C0F092F405E092F3058091F5059091E9
:10231000F60501979093F6058093F50597FF04C0A5
:102320001093F6050093F5056091F5057091F6059B
:102330006F5F7F4F80EF94E04AE050E00E94C62F2D
:102340006091F3057091F4056F5F7F4F80EF94E02B
:102350004AE050E00E94C62F6091F3057091F405A9
:102360008091F5059091F60541E050E00E947805D6
:10237000892B09F4B5CFC091CD05D091CE05C130E0
:10238000D10509F046CF64EF71E080E090E00E9453
:102390003A2B8EE190E063EF75E00E9433068DE208
:1023A00090E065EF75E00E9433068FE090E061E019
:1023B00070E00E94FE0382E090E090930606809316
:1023C0000506D0930806C0930706D0939803C093E0
:1023D0009703DF91CF911F910F91FF90EF90089598
:1023E000AF92BF92CF92DF92EF92FF920F931F9323
:1023F000CF93DF9380EF94E060E041E00E94F02013
:1024000080EF94E06DE072E00E94D92F80EF94E0BD
:102410006FE041E00E94F02080EF94E06FEB71E00C
:102420000E94D92F00E010E00E941E0A9093CE0572
:102430008093CD058530910511F0029709F564EF81
:1024400071E080E090E00E943A2B80E090E0012B68
:1024500011F481E090E08C0180EF94E06FE041E0C6
:102460000E94F0200115110529F480EF94E06FEB34
:1024700071E004C080EF94E061EC71E00E94D92F1C
:10248000C091CD05D091CE05C130D10569F664EF7C
:1024900071E080E090E00E943A2B012BA9F48FE0DC
:1024A00090E061E070E00E94FE0382E090E0909393
:1024B000060680930506D0930806C0930706D093BE
:1024C0009803C0939703C9C08EE190E063EF75E075
:1024D0000E940F068DE290E065EF75E00E940F0606
:1024E00080EF94E06EE041E00E94F02080EF94E005
:1024F00060E272E00E94D92FC090F305D090F405FD
:10250000E090F505F090F60500E010E0C0E0D0E0C6
:10251000AA24BB248091F3059091F4050196909331
:10252000F4058093F30508979CF01092F40510923F
:10253000F3058091F5059091F60501969093F605C7
:102540008093F505059724F01092F6051092F50595
:102550006091F3057091F4058091F5059091F60571
:1025600042E050E00E947805A816B9064CF4C090ED
:10257000F305D090F405E090F505F090F6055C01C8
:1025800080EF94E06EE041E00E94F020CD2B49F412
:1025900080EF94E06EE171E00E94D92FC1E0D0E0BD
:1025A00008C080EF94E06CE171E00E94D92FC0E098
:1025B000D0E00932110519F00F5F1F4FABCF80EF4C
:1025C00094E06DE041E00E94F020B7016F5F7F4F23
:1025D00080EF94E04AE050E00E94C62FB6016F5FA2
:1025E0007F4F80EF94E04AE050E00E94C62FF092C7
:1025F000F605E092F505D092F405C092F305C70107
:10260000B60141E050E00E94780560ED77E080E09F
:1026100090E00E943A2B8EE190E063EF75E00E941B
:1026200033068DE290E065EF75E00E9433068FE09F
:1026300090E061E070E00E94FE0382E090E0909301
:1026400006068093050681E090E09093080680934B
:1026500007069093980380939703DF91CF911F9182
:102660000F91FF90EF90DF90CF90BF90AF900895C3
:10267000EF92FF920F931F93CF93DF938EE190E041
:1026800063EF75E00E940F068DE290E065EF75E064
:102690000E940F0680EF94E060E041E00E94F0208D
:1026A00080EF94E065E272E00E94D92F80EF94E021
:1026B0006DE041E00E94F0206091F5057091F60513
:1026C0006F5F7F4F80EF94E04AE050E00E94C62F9A
:1026D0006091F3057091F4056F5F7F4F80EF94E098
:1026E0004AE050E00E94C62F16E0E12EF12C07E0F0
:1026F00010E00E941E0A9093CE058093CD050397AB
:1027000009F03FC064EF71E080E090E00E943A2B56
:102710008091F5059091F60501969093F6058093CA
:10272000F505079724F01092F6051092F5056091D3
:10273000F3057091F4058091F5059091F60541E05F
:1027400050E00E94780580EF94E06DE041E00E9447
:10275000F0206091F5057091F6056F5F7F4F80EF77
:1027600094E04AE050E00E94C62F6091F30570911A
:10277000F4056F5F7F4F80EF94E04AE050E00E94E5
:10278000C62F8091CD059091CE05049709F03FC0EA
:1027900064EF71E080E090E00E943A2B8091F505B3
:1027A0009091F60501979093F6058093F50597FFB4
:1027B00004C0F092F605E092F5056091F305709182
:1027C000F4058091F5059091F60541E050E00E94F6
:1027D000780580EF94E06DE041E00E94F020609188
:1027E000F5057091F6056F5F7F4F80EF94E04AE04A
:1027F00050E00E94C62F6091F3057091F4056F5F61
:102800007F4F80EF94E04AE050E00E94C62F809115
:10281000CD059091CE05059709F03FC064EF71E0BA
:1028200080E090E00E943A2B8091F3059091F405AE
:1028300001969093F4058093F305089724F0109285
:10284000F4051092F3056091F3057091F405809101
:10285000F5059091F60541E050E00E94780580EF83
:1028600094E06DE041E00E94F0206091F5057091E8
:10287000F6056F5F7F4F80EF94E04AE050E00E94E2
:10288000C62F6091F3057091F4056F5F7F4F80EF65
:1028900094E04AE050E00E94C62F8091CD059091CF
:1028A000CE05029709F03FC064EF71E080E090E050
:1028B0000E943A2B8091F3059091F4050197909333
:1028C000F4058093F30597FF04C01093F40500937B
:1028D000F3056091F3057091F4058091F5059091F1
:1028E000F60541E050E00E94780580EF94E06DE04D
:1028F00041E00E94F0206091F5057091F6056F5F50
:102900007F4F80EF94E04AE050E00E94C62F609134
:10291000F3057091F4056F5F7F4F80EF94E04AE01C
:1029200050E00E94C62FC091CD05D091CE05C13098
:10293000D10509F0DECE64EF71E080E090E00E9406
:102940003A2B8EE190E063EF75E00E9433068DE252
:1029500090E065EF75E00E9433068FE090E061E063
:1029600070E00E94FE0382E090E090930606809360
:102970000506D0930806C0930706D0939803C0932A
:102980009703DF91CF911F910F91FF90EF900895E2
:1029900080EF94E060E041E00E94F02080EF94E05E
:1029A00061E372E00E94D92F80EF94E06DE041E096
:1029B0000E94F0200E941E0A9093CE058093CD05C0
:1029C000029721F483E090E00E943B048091CD05C2
:1029D0009091CE05019771F764EF71E080E090E08F
:1029E0000E943A2B0E9457060895EF92FF920F9390
:1029F0001F93CF93DF9380EF94E060E041E00E946B
:102A0000F02080EF94E063E271E00E94D92F1092F1
:102A1000E2051092E1058EE00E94D82BEE24FF24FF
:102A2000C0E0D0E00091E1051091E2058EE00E9447
:102A3000D82B080F191F1093E2050093E105CD2B49
:102A400079F480EF94E06CE041E00E94F02080EFA8
:102A500094E06CE171E00E94D92FC1E0D0E00EC09B
:102A600080EF94E06CE041E00E94F02080EF94E081
:102A70006EE171E00E94D92FC0E0D0E062E370E027
:102A800080E090E00E943A2B0894E11CF11C82E364
:102A9000E816F10439F68091E1059091E20562E3D0
:102AA00070E00E940036CB0177FF03C090958195BE
:102AB0009F4F9093E2058093E1051092E4051092F8
:102AC000E30580E10E94D82BEE24FF24C0E0D0E093
:102AD0000091E3051091E40580E10E94D82B080FD6
:102AE000191F1093E4050093E305CD2B79F480EFD3
:102AF00094E06CE041E00E94F02080EF94E06CE113
:102B000071E00E94D92FC1E0D0E00EC080EF94E0C8
:102B10006CE041E00E94F02080EF94E06EE171E013
:102B20000E94D92FC0E0D0E062E370E080E090E046
:102B30000E943A2B0894E11CF11C82E3E816F10490
:102B400039F68091E3059091E40562E370E00E941C
:102B50000036CB0177FF03C0909581959F4F9093EE
:102B6000E4058093E3051092EA051092E9058FE0F1
:102B70000E94D82BEE24FF24C0E0D0E00091E905AC
:102B80001091EA058FE00E94D82B080F191F1093AF
:102B9000EA050093E905CD2B79F480EF94E06CE031
:102BA00041E00E94F02080EF94E06CE171E00E942F
:102BB000D92FC1E0D0E00EC080EF94E06CE041E09E
:102BC0000E94F02080EF94E06EE171E00E94D92F26
:102BD000C0E0D0E062E370E080E090E00E943A2B39
:102BE0000894E11CF11C82E3E816F10439F68091A7
:102BF000E9059091EA0562E370E00E940036CB019E
:102C000077FF03C0909581959F4F9093EA0580933D
:102C1000E9051092EC051092EB0584E10E94D82B97
:102C2000EE24FF24C0E0D0E00091EB051091EC050C
:102C300084E10E94D82B080F191F1093EC05009314
:102C4000EB05CD2B79F480EF94E06CE041E00E943D
:102C5000F02080EF94E06CE171E00E94D92FC1E098
:102C6000D0E00EC080EF94E06CE041E00E94F020E4
:102C700080EF94E06EE171E00E94D92FC0E0D0E0D7
:102C800062E370E080E090E00E943A2B0894E11C3F
:102C9000F11C82E3E816F10439F68091EB0590917E
:102CA000EC0562E370E00E940036CB0177FF03C0C1
:102CB000909581959F4F9093EC058093EB0586E965
:102CC00090E061EE75E00E94330680EA90E063EEEA
:102CD00075E00E94330684EB90E069EE75E00E9497
:102CE00033068EEB90E06BEE75E00E94330680EFCA
:102CF00094E060E041E00E94F02080EF94E064E323
:102D000071E00E94D92F0E94C814DF91CF911F91CA
:102D10000F91FF90EF90089580EF94E060E041E024
:102D20000E94F02080EF94E061E472E00E94D92FCD
:102D300080EF94E06DE041E00E94F0200E941E0AC6
:102D40009093CE058093CD05029721F483E090E027
:102D50000E943B048091CD059091CE05019771F7BB
:102D600064EF71E080E090E00E943A2B0E94F5143D
:102D70000895EF92FF920F931F93CF93DF938FE00D
:102D800090E061E076E00E940F0680EF94E060E062
:102D900041E00E94F02080EF94E062E572E00E9442
:102DA000D92F80EF94E06AE041E00E94F02060912A
:102DB00001067091020680EF94E04AE050E00E9424
:102DC000C62F00E4E02E06E0F02E08E715E00E9492
:102DD0001E0A9093CE058093CD05059771F564EF9B
:102DE00071E080E090E00E943A2B80910106909182
:102DF0000206019690930206809301068154964044
:102E000024F0F0920206E0920106609101067091B2
:102E1000020689E095E00E94D82580EF94E06AE000
:102E200041E00E94F020609101067091020680EF5F
:102E300094E04AE050E00E94C62F8091CD05909129
:102E4000CE05029771F564EF71E080E090E00E949A
:102E50003A2B809101069091020601979093020609
:102E6000809301068857954024F41093020600933E
:102E70000106609101067091020689E095E00E94CA
:102E8000D82580EF94E06AE041E00E94F020609154
:102E900001067091020680EF94E04AE050E00E9443
:102EA000C62F8091CD059091CE05039771F564EF03
:102EB00071E080E090E00E943A2B809101069091B1
:102EC00002060A969093020680930106815496406A
:102ED00024F0F0920206E0920106609101067091E2
:102EE000020689E095E00E94D82580EF94E06AE030
:102EF00041E00E94F020609101067091020680EF8F
:102F000094E04AE050E00E94C62F8091CD05909158
:102F1000CE05049771F564EF71E080E090E00E94C7
:102F20003A2B80910106909102060A97909302062F
:102F3000809301068857954024F41093020600936D
:102F40000106609101067091020689E095E00E94F9
:102F5000D82580EF94E06AE041E00E94F020609183
:102F600001067091020680EF94E04AE050E00E9472
:102F7000C62FC091CD05D091CE05C130D10509F045
:102F800026CF64EF71E080E090E00E943A2B8FE062
:102F900090E061E076E00E9433060E948F00BC0161
:102FA00089E095E00E94D8258FE090E061E070E034
:102FB0000E94FE0382E090E090930606809305064F
:102FC000D0930806C0930706D0939803C093970345
:102FD000DF91CF911F910F91FF90EF900895EF92A5
:102FE000FF920F931F93CF93DF938AE090E06FEFF0
:102FF00075E00E940F0680EF94E060E041E00E94DF
:10300000F02080EF94E064E672E00E94D92F80EF18
:1030100094E06AE041E00E94F0206091FF05709129
:10302000000680EF94E04AE050E00E94C62F80E462
:10303000E82E86E0F82E08E715E00E941E0A90931D
:10304000CE058093CD05059771F564EF71E080E0C2
:1030500090E00E943A2B8091FF0590910006019626
:10306000909300068093FF058154964024F0F092DF
:103070000006E092FF056091FF057091000689E06F
:1030800095E00E94D82580EF94E06AE041E00E943C
:10309000F0206091FF057091000680EF94E04AE017
:1030A00050E00E94C62F8091CD059091CE050297E9
:1030B00071F564EF71E080E090E00E943A2B80911E
:1030C000FF05909100060197909300068093FF05FD
:1030D0008857954024F4109300060093FF056091F3
:1030E000FF057091000689E095E00E94D82580EFE9
:1030F00094E06AE041E00E94F0206091FF05709149
:10310000000680EF94E04AE050E00E94C62F8091D4
:10311000CD059091CE05039771F564EF71E080E0E5
:1031200090E00E943A2B8091FF05909100060A964C
:10313000909300068093FF058154964024F0F0920E
:103140000006E092FF056091FF057091000689E09E
:1031500095E00E94D82580EF94E06AE041E00E946B
:10316000F0206091FF057091000680EF94E04AE046
:1031700050E00E94C62F8091CD059091CE05049716
:1031800071F564EF71E080E090E00E943A2B80914D
:10319000FF05909100060A97909300068093FF0523
:1031A0008857954024F4109300060093FF05609122
:1031B000FF057091000689E095E00E94D82580EF18
:1031C00094E06AE041E00E94F0206091FF05709178
:1031D000000680EF94E04AE050E00E94C62FC091C4
:1031E000CD05D091CE05C130D10509F026CF64EFD1
:1031F00071E080E090E00E943A2B8AE090E06FEF6F
:1032000075E00E9433068FE090E061E070E00E947C
:10321000FE030E948F00BC0189E095E00E94D82542
:1032200082E090E09093060680930506D09308060E
:10323000C0930706D0939803C0939703DF91CF9173
:103240001F910F91FF90EF900895CF93DF930E940D
:103250001E0A9093CE058093CD058091070690912C
:1032600008068F31910509F446C180329105FCF4BE
:103270008531910509F486C08631910564F4823068
:10328000910509F458C08330910509F4F1C0019704
:1032900009F079C227C08731910509F4C5C087318B
:1032A00091050CF493C04E9709F06DC200C18332B2
:1032B000910509F4CEC18432910544F4813291051F
:1032C00009F475C182970CF0A0C143C18532910504
:1032D00009F406C2853291050CF4DFC1869709F026
:1032E00052C22FC286E792E00E94E4028091CD058F
:1032F0009091CE05049721F482E090E00E943B0477
:10330000C091CD05D091CE05C130D10509F03BC2A9
:103310000E944C0480EF94E060E041E00E94F020C5
:1033200080EF94E064E371E00E94D92FD093060609
:10333000C093050628C28CE792E00E94E4028091C7
:10334000CD059091CE05039721F481E090E00E9495
:103350003B048091CD059091CE05049721F483E044
:1033600090E00E943B048091CD059091CE05813084
:10337000910519F0059709F006C20E944C0485E1F9
:1033800090E092C086E892E00E94E4028091CD0530
:103390009091CE05049721F486E190E00E943B04D1
:1033A0008091CD059091CE05029721F482E090E0C6
:1033B0000E943B048091CD059091CE05019709F0C4
:1033C000E2C10E944C040E943813DDC185E992E0FD
:1033D0000E94E4028091CD059091CE05039721F4DF
:1033E00085E190E00E943B048091CD059091CE054F
:1033F000049721F487E190E00E943B048091CD0581
:103400009091CE05029721F482E090E00E943B0467
:103410008091CD059091CE05019709F0B4C10E942D
:103420004C040E94F011AFC184EA92E00E94E402D1
:103430008091CD059091CE05039721F486E190E02F
:103440000E943B048091CD059091CE05029721F416
:1034500082E090E00E943B048091CD059091CE05E2
:10346000019709F090C10E944C040E94C8108BC1C2
:1034700085EB92E00E94E4028091CD059091CE050B
:10348000039721F482E090E00E943B048091CD05F7
:103490009091CE058130910519F0059709F073C11F
:1034A0000E944C048EE190E00E943B046CC180ECD1
:1034B00092E00E94E4028091CD059091CE050497A0
:1034C00021F48FE190E00E943B048091CD05909122
:1034D000CE05029721F483E090E00E943B048091A6
:1034E000CD059091CE05019709F04DC10E944C0485
:1034F0000E948C1648C18CEC92E00E94E4028091FC
:10350000CD059091CE05049721F480E290E00E94D1
:103510003B048091CD059091CE05039721F48EE177
:1035200090E00E943B048091CD059091CE050297DA
:1035300021F483E090E00E943B048091CD059091BE
:10354000CE05019709F01FC10E944C040E94EF0FA5
:103550001AC184ED92E00E94E4028091CD05909121
:10356000CE05049721F481E290E00E943B04809113
:10357000CD059091CE05039721F48FE190E00E9454
:103580003B048091CD059091CE05029721F483E014
:1035900090E00E943B048091CD059091CE0501976B
:1035A00009F0F1C00E944C040E941E0FECC082EE94
:1035B00092E00E94E4028091CD059091CE0504979F
:1035C00021F482E290E00E943B048091CD0590912D
:1035D000CE05039721F480E290E00E943B048091A5
:1035E000CD059091CE05029721F483E090E00E94F2
:1035F0003B048091CD059091CE05019709F0C3C0A1
:103600000E944C040E94910DBEC084EF92E00E9483
:10361000E4028091CD059091CE05039721F481E2DB
:1036200090E00E943B048091CD059091CE050497D7
:1036300021F483E290E00E943B048091CD059091BB
:10364000CE05019709F074C00E944C040E94EF1748
:103650006FC085E093E00E94E4028091CD059091D7
:10366000CE05039721F482E290E00E943B04809112
:10367000CD059091CE05049721F484E290E00E945C
:103680003B048091CD059091CE05019709F050C083
:103690000E944C040E94B9164BC086E193E00E9440
:1036A000E4028091CD059091CE05039721F483E249
:1036B00090E00E943B048091CD059091CE05049747
:1036C00021F485E290E00E943B048091CD05909129
:1036D000CE05019769F50E944C040E94910B28C009
:1036E00086E293E00E94E4028091CD059091CE05A0
:1036F000039721F484E290E00E943B048091CD0581
:103700009091CE05049751F480910D0690910E068C
:10371000892B21F486E290E00E943B048091CD0544
:103720009091CE05019721F40E944C040E94490A11
:103730008091CD059091CE05029729F583E090E028
:10374000B3CE86E393E00E94E4028091CD05909190
:10375000CE05039721F485E290E00E943B0480911E
:10376000CD059091CE05029721F483E090E00E9470
:103770003B048091CD059091CE05019721F40E94E4
:103780004C040E94230CDF91CF9108956F927F9299
:103790008F929F92AF92BF92CF92DF92EF92FF9261
:1037A0000F931F938091B3030E94D82B8091B30392
:1037B0000E94D82B0697CCF180EF94E00E941A214A
:1037C00062E370E080E090E00E943A2B80EF94E0AA
:1037D00060E040E00E94F02080EF94E065E473E058
:1037E0000E94D92F68EE73E080E090E00E943A2BAF
:1037F00080EF94E060E041E00E94F02080EF94E0F0
:103800006BE473E00E94D92F68EE73E080E090E0F3
:103810000E943A2B8091B3030E94D82B02972CF47C
:10382000E0911B06F0911C0609958EE00E94D82BB2
:103830008EE00E94D82B9093D0058093CF0580E135
:103840000E94D82B80E10E94D82B9093D2058093C0
:10385000D1058FE00E94D82B8FE00E94D82B909347
:10386000D4058093D30584E10E94D82B84E10E9483
:10387000D82B9093D6058093D5056091D305709190
:10388000D405882777FD8095982F0E94BA340E942E
:103890008A010E9487347093D4056093D3056091A8
:1038A000D5057091D605882777FD8095982F0E94C1
:1038B000BA340E94DD000E9487347093D60560936D
:1038C000D50500D000D06091CF057091D005882734
:1038D00077FD8095982F2091E1053091E2054427EE
:1038E00037FD4095542FE090E505F090E605002760
:1038F000F7FC0095102FE4E66E2E712C812C912C94
:10390000EDB7FEB76182728283829482AA24BB24BF
:1039100065010E946D337093D8056093D70560915F
:10392000D1057091D205882777FD8095982F209139
:10393000E3053091E405442737FD4095542FE0908E
:10394000E705F090E8050027F7FC0095102FEDB78C
:10395000FEB761827282838294820E946D3370937B
:10396000DA056093D9056091D3057091D405882755
:1039700077FD8095982F2091E9053091EA0544273D
:1039800037FD4095542FE090ED05F090EE050027AF
:10399000F7FC0095102FEDB7FEB76182728283822B
:1039A00094820E946D337093DE056093DD05609113
:1039B000D5057091D605882777FD8095982F2091A1
:1039C000EB053091EC05442737FD4095542FE090EE
:1039D000EF05F090F0050027F7FC0095102FEDB7EC
:1039E000FEB761827282838294820E946D3320913D
:1039F000D7053091D8050F900F900F900F90253676
:103A0000310514F024E630E037FF02C020E030E05A
:103A10003093D8052093D7052091D9053091DA0548
:103A20002536310514F024E630E037FF02C020E0EF
:103A300030E03093DA052093D9052091DD053091EF
:103A4000DE052536310514F024E630E037FF02C0EC
:103A500020E030E03093DE052093DD05653671050A
:103A600014F064E670E077FF02C060E070E07093ED
:103A7000E0056093DF0580910D0690910E06892B7D
:103A800009F046C062177307D4F482E061E00E9437
:103A9000392C83E060E00E94392C81E090E0909323
:103AA0009A038093990380EF94E06AE041E00E94DA
:103AB000F02080EF94E06CE573E00E94D92F209114
:103AC000DF053091E0058091DD059091DE058217DC
:103AD0009307D4F482E060E00E94392C83E061E037
:103AE0000E94392C82E090E090939A03809399038E
:103AF00080EF94E06AE041E00E94F02080EF94E0E3
:103B000060E673E00E94D92F1092100610920F0603
:103B1000A090D705B090D805C090D905D090DA050F
:103B2000CA14DB0424F495012C193D0903C0960145
:103B30002A193B09B901882777FD8095982F0E94A3
:103B4000BA3420E030E04AE753E40E946E357B014E
:103B50008C01CA0CDB1CB601882777FD8095982F55
:103B60000E94BA3420E030E040E05FE30E946E350E
:103B70009B01AC01C801B7010E941F340E94873429
:103B80007093DC056093DB05882777FD8095982F7F
:103B90000E94BA340E9437020E948734AB017093AE
:103BA000DC056093DB05CB0177FF04C088279927EC
:103BB000841B950B9C01220F331F8091FB05909174
:103BC000FC05280F391F3093FE052093FD058091D9
:103BD0000B0690910C06009709F091C08091DD05CD
:103BE0009091DE050A97C4F48091DF059091E0057D
:103BF0000A9794F40E948F00BC0189E095E00E942E
:103C00009C2580EF94E06FE041E00E94F02080EF7F
:103C100094E064E673E018C08091F1059091F2059C
:103C200084179507D4F00E948F00BC0189E095E0CD
:103C30000E949C2580EF94E06FE041E00E94F0201C
:103C400080EF94E066E673E00E94D92F82E390E073
:103C500090930C0680930B065DC04091D705509160
:103C6000D8058091D9059091DA05841795070CF550
:103C700080910306909104066091FF057091000603
:103C8000892B29F4621B730B89E095E005C0260F90
:103C9000371F89E095E0B9010E949C2580EF94E0F0
:103CA0006FE041E00E94F02080EF94E068E673E06E
:103CB00023C04817590774F58091030690910406B4
:103CC0006091010670910206892B31F4260F371F8F
:103CD00089E095E0B90104C0621B730B89E095E0AF
:103CE0000E949C2580EF94E06FE041E00E94F0206C
:103CF00080EF94E06AE673E00E94D92F0BC0019731
:103D000090930C0680930B0697FF04C010920C064C
:103D100010920B068091090690910A06019711F402
:103D20000E940B038091090690910A0601969093D8
:103D30000A06809309068436910521F410920A063A
:103D4000109209061F910F91FF90EF90DF90CF9096
:103D5000BF90AF909F908F907F906F9008958091CB
:103D60000506909106068130910519F0029731F40D
:103D700003C00E94C61B02C00E94251981E295E083
:103D80000E9411220895EF92FF920F931F93CF93F9
:103D9000DF9388E297E00E94D92A08E088E297E062
:103DA000602F0E94FF2988E297E00E94C42A88239E
:103DB00071F40F3321F480EF94E06FE305C0073214
:103DC00031F480EF94E067E20E94E72308E70F5F99
:103DD000083720F380EF94E060E142E020E00E94A9
:103DE0009C2480EF94E00E94CA2080EF94E00E941F
:103DF000DE208CE095E065E070E00E943B230E94AD
:103E0000FC0780EF94E060E040E00E94F02080EF4B
:103E100094E06CE673E00E94D92F80EF94E060E0BC
:103E200041E00E94F02080EF94E06CE773E00E9494
:103E3000D92F8FE090E061E070E00E94FE0384EBF8
:103E400090E069EE75E00E940F068EEB90E06BEE5D
:103E500075E00E940F0686E990E061EE75E00E9431
:103E60000F0680EA90E063EE75E00E940F068CED8D
:103E700090E06DEE75E00E940F0686EE90E06FEE2A
:103E800075E00E940F0688EC90E065EE75E00E94F8
:103E90000F0682ED90E067EE75E00E940F068EE15E
:103EA00090E063EF75E00E940F068DE290E065EF11
:103EB00075E00E940F0683E290E06BEF75E00E94D0
:103EC0000F068AEA90E061EF75E00E940F06C7EFE7
:103ED000D5E068E270E08B010F5F1F4F83E796E04B
:103EE0000E9484278993B8010C321105A1F78AE05A
:103EF00090E06FEF75E00E940F068FE090E061E0C8
:103F000076E00E940F06CFE9D3E069E170E08B0113
:103F10000F5F1F4F83E796E00E9484278993B801C3
:103F20000D311105A1F707EA13E078016AEF70E09F
:103F3000EB01219683E796E00E948427F7018193A5
:103F40007F01CE3FD10511F0BE01F2CF6AEF70E0E4
:103F5000EB01219683E796E00E948427F801819384
:103F60008F01CE3FD10511F0BE01F2CF84E190E088
:103F700063E076E00E940F0684E690E061E176E07F
:103F80000E940F068EE690E063E176E00E940F0645
:103F900088E790E065E176E00E940F0682E890E015
:103FA00067E176E00E940F068CE890E069E176E038
:103FB0000E940F068BE061E00E94FA2B8AE061E02C
:103FC0000E94FA2B86E061E00E94FA2B87E061E014
:103FD0000E94FA2B88E061E00E94FA2B89E061E000
:103FE0000E94FA2B8BE060E00E94392C8AE060E0AE
:103FF0000E94392C86E060E00E94392C87E060E066
:104000000E94392C88E060E00E94392C89E060E051
:104010000E94392C89E095E065E070E00E94BF269F
:1040200085EC97E040E855E260E070E00E94172DD3
:104030000E948F00BC0189E095E00E949C2586E0EB
:1040400061E00E94392C87E061E00E94392C88E011
:1040500061E00E94392C89E061E00E94392C609176
:10406000F5057091F6054091F3055091F40586E051
:1040700090E00E94F0046091F5057091F605409182
:10408000F3055091F40587E090E00E94F004609100
:10409000F5057091F6054091F3055091F40588E01F
:1040A00090E00E94F0046091F5057091F605409152
:1040B000F3055091F40589E090E00E94F00486E059
:1040C00061E00E94392C87E061E00E94392C88E091
:1040D00061E00E94392C89E061E00E94392C82E085
:1040E00061E00E94FA2B83E061E00E94FA2B82E0FB
:1040F00061E00E94392C83E060E00E94392C81E26B
:1041000095E048E853E160E070E02AED33E00E947A
:10411000082281E295E040E157E260E070E023E6AA
:1041200034E00E94082280EF94E00E941A2184E18A
:104130000E94D82B84E10E94D82B9093D6058093BF
:10414000D5050A9734F481E090E090930E068093B1
:104150000D060E94DA030E94590382E090E09093DA
:1041600006068093050681E090E090930806809310
:104170000706DF91CF911F910F91FF90EF90089567
:1041800008950895FC011382128289EA94E09183D4
:1041900080830895FC01A081B18118962D913C91F6
:1041A00019976FEFF90109950895DC01ED91FC91E4
:1041B0000284F385E02D40E009950895FC016681B5
:1041C0006E7F668364600E94D5200895FC0165813E
:1041D000862F846085836C60CF010E94D52008956E
:1041E000DC0117969C911797491710F0492F415001
:1041F00018968C911897803139F4943029F4E42F73
:10420000F0E0EB54FB4F04C0E42FF0E0E754FB4F29
:104210008081680F6068CD010E94D5200895DC017F
:10422000ED91FC910284F385E02D41E0099581E058
:1042300090E0089561E00E94D52080ED97E00E9413
:10424000932B0895CF93DF93EC01423018F08C81CB
:1042500088608C834F836887222329F0413019F4CA
:104260008C8184608C8364E670E080E090E00E9442
:104270003A2B6C8164FD31C0E881F9810284F385B9
:10428000E02DCE0163E042E0099584E991E10E94CE
:10429000932BE881F9810284F385E02DCE0163E060
:1042A00042E0099584E991E10E94932BE881F9812C
:1042B0000284F385E02DCE0163E042E0099586E9B2
:1042C00090E00E94932BE881F9810284F385E02D30
:1042D000CE0162E042E0099516C06062CE010E9404
:1042E000D52084E991E10E94932B6C816062CE011C
:1042F0000E94D52086E990E00E94932B6C81606239
:10430000CE010E94D5206C816062CE010E94D52032
:1043100084E08D83CE010E94E620CE010E941A2106
:1043200082E08E83CE0166E00E94D520CE010E94FD
:10433000CA20DF91CF910895EF92FF920F931F93C0
:10434000CF93DF937C018AEA90E0E80EF91EF70133
:1043500080819181E6E5FFEFEE0EFF1E0A970CF0DB
:1043600048C0F701B896C0E0D0E080819181892BE8
:1043700009F449C021963296CA30D105B1F739C047
:10438000FE013F96EE0FFF1FEE0FFF1FEE0DFF1D0C
:104390004083518362837383FE017496EE0FFF1F87
:1043A000EE0DFF1D31832083FE01F296EE0FFF1FFD
:1043B000EE0DFF1D11830083F701EC0FFD1FE45785
:1043C000FF4F81E080830E942C2BFE01EE0FFF1F28
:1043D000EE0FFF1FEE0DFF1D6083718382839383B9
:1043E000F701E655FF4F808191810196918380838B
:1043F00002C0CFEFDFEFCE01DF91CF911F910F9180
:10440000FF90EF9008952115310509F0B9CFF1CF54
:104410000F931F9300E010E00E949C211F910F91C9
:1044200008952F923F924F925F926F927F928F9258
:104430009F92AF92BF92CF92DF92EF92FF920F9333
:104440001F93CF93DF936C010E942C2B1B012C0137
:10445000F601EA56FF4FB6013CE8632E712C6C0C56
:104460007D1CE601CC59DF4F4301AA24BB241182F5
:104470001082EE56F04080819181E259FF4F892BE6
:1044800009F440C0DB01ED90FD900D911C91139754
:10449000DC962D913D914D915C91DF97D201C10148
:1044A0008E199F09A00BB10B82179307A407B507BC
:1044B00048F12E0D3F1D401F511FDB012D933D93F1
:1044C0004D935C931397D4018C918823D9F0288164
:1044D00039812115310519F441E050E011C08C8972
:1044E0009D898217930774F4A1E0B0E0B183A083A3
:1044F00001969D8B8C8B8217930724F042E050E04D
:10450000518340830894A11CB11C32966C5F7F4F8D
:104510000894811C911C22965AE0A516B10409F05A
:10452000A6CFE601A8962CE3E22EF12CEC0CFD1CA4
:10453000860108581F4F8AEA90E0C80ED91E57011D
:10454000D8015E968D919C915F978130910519F00D
:10455000029719F504C0E881F98109951EC0E88128
:10456000F9810995F6012081318121153105A9F0E4
:1045700088819981892B89F019821882D3011C9234
:10458000F7011082118212821382D8011D921C92AF
:1045900021503040F6013183208322960894611C1B
:1045A000711C44E050E0E40EF51E0E5F1F4FCA156B
:1045B000DB0531F6DF91CF911F910F91FF90EF90C6
:1045C000DF90CF90BF90AF909F908F907F906F9033
:1045D0005F904F903F902F9008950F931F93CF932C
:1045E000DF93EC010E942C2BAE0144575F4FFE017C
:1045F000B8968E0120E030E0DA011D92AD01118203
:104600001082D8016D937D938D939D938D01E05B16
:10461000FF4F118210822F5F3F4FEE54F0402A303F
:10462000310551F7C655DF4F19821882DF91CF91BE
:104630001F910F910895FC0185E090E091838083A4
:104640008091B3039091B403938382838091B503E7
:104650009091B60395838483178216821186108603
:10466000138612861586148617861686118A128A74
:10467000138A148A0895FC01718360830895EF9270
:10468000FF920F931F93CF93DF93EC010E942C2B8B
:1046900028813981442737FD4095542FE988FA88CD
:1046A0000B891C892E0D3F1D401F511F26173707F0
:1046B0004807590718F021E030E081C088859985C6
:1046C0009D878C878A810E94D82BBC019987888717
:1046D0008C859D856817790721F4188A8E859F85BA
:1046E00019C081E0888B8A859B859F878E87209162
:1046F0001106309112064C815D81C901841B950B16
:104700008617970754F4240F351F621773072CF48C
:1047100083E090E09B878A874AC0209113063091FE
:104720001406C901841B950B8617970744F4240FC0
:10473000351F621773071CF484E090E0EBCF2091E3
:10474000170630911806C901841B950B8617970729
:1047500044F4240F351F621773071CF485E090E0C2
:10476000D9CF2091150630911606C901841B950BEF
:104770008617970744F4240F351F621773071CF43C
:1047800082E090E0C7CF2091190630911A06C90146
:10479000841B950B8617970744F4240F351F621767
:1047A00073071CF481E090E0B5CF1B861A868889D8
:1047B000882319F42FEF3FEF02C02A853B85C901FA
:1047C000DF91CF911F910F91FF90EF900895FC0121
:1047D00063870895DC0181E090E002C0880F991F93
:1047E0006A95E2F71C968C931C971A965C934E93ED
:1047F0001997ED91FC9111970084F185E02DCD0181
:1048000060E009950895DF92EF92FF920F931F9356
:104810008C01D62E8EE0E82EF12CE00EF11EF80170
:1048200062896D29C7010E943F25F8016289609560
:104830006D21C7010E943F251F910F91FF90EF90BE
:10484000DF900895DC01FC0120E090E070E060FF63
:1048500002C08589282B9F5F3196943019F0759599
:104860006795F4CF413019F454964C9154971D96A6
:104870008C911D97842B282BCD01622F0E9403243D
:1048800008950F931F93CF93DF93EC01142F062FFE
:104890000F70423019F4602F40E00CC070E044E02B
:1048A000759567954A95E1F7412F0E942224CE0124
:1048B000602F412F0E942224DF91CF911F910F91F1
:1048C0000895FC012485222399F081859285009723
:1048D00019F4662329F406C0019721F4662311F424
:1048E000258701C01586CF010E9665850E943F255C
:1048F00008950F931F93CF93DF938C01EC012E96B5
:10490000CE01F80163850E946525019719F020E02A
:1049100030E00CC0CE0161E00E943425F801148221
:10492000CE0160E00E943F2521E030E0C901DF9127
:10493000CF911F910F910895DF92EF92FF920F9305
:104940001F938C01F62EE42ED22E0E947924C801EA
:104950006F2D4E2D2D2D0E9422211F910F91FF9022
:10496000EF90DF9008952F923F924F925F926F9257
:104970007F928F929F92AF92BF92CF92DF92EF92EF
:10498000FF920F931F93DF93CF93CDB7DEB73C0118
:10499000962E442E222E0E94C22081EC94E0F30138
:1049A00091838083C3010E960E942D25F301938687
:1049B000148615861286118681E090E09C0102C063
:1049C000220F331F4A94E2F7228BFC0102C0EE0F44
:1049D000FF1F2A94E2F71F01F301238A9C0102C002
:1049E000220F331F0A95E2F7248BFC0102C0EE0F61
:1049F000FF1FEA94E2F77F01F301E58A9C0102C000
:104A0000220F331FCA94E2F7268BFC0102C0EE0F7F
:104A1000FF1FAA94E2F75F01F301A78A02C0880F83
:104A2000991F8A94E2F7808FC3016D894E895F894F
:104A30000E94EA23CF91DF911F910F91FF90EF9099
:104A4000DF90CF90BF90AF909F908F907F906F90AE
:104A50005F904F903F902F900895FC0112828FEF4E
:104A60008183108213820895FC018381882331F0B1
:104A7000662319F48FEF8183089511820895CF93EF
:104A8000DF93EC018B81882319F480E090E013C060
:104A9000898180958623888388E297E06A810E94D5
:104AA000FF2988E297E068810E94812A88E297E0E6
:104AB0000E94C42A90E020E030E0892B11F421E02C
:104AC00030E0C901DF91CF910895CF93DF93EC01DE
:104AD0006A8388E297E00E94D92A88E297E06A8197
:104AE00041E00E94D52A1B82882311F081E08B834C
:104AF00088E297E00E94122A88838B8190E0DF9100
:104B0000CF910895FC0180914D068C3090F4808304
:104B10008F5F80934D06815090E0FC01EE0FFF1FE8
:104B2000E80FF91FE25BF94F88EB9BE092838183EA
:104B300008958FEF80830895FC0120812C30B8F513
:104B40008181992787FD909548E850E0481B590BD3
:104B5000440F551F440F551F6417750784F0828159
:104B6000992787FD909548E552E0481B590B440F63
:104B7000551F440F551F641775070CF4AB014250C5
:104B80005040CA01AA2797FDA095BA2F880F991FF8
:104B9000AA1FBB1F4FB7F89430E0F901EE0FFF1FBB
:104BA000E20FF31FE25BF94F928381834FBF0895B9
:104BB000AF92BF92CF92DF92EF92FF920F931F932B
:104BC000CF93DF93EC019B0182E0603278070CF019
:104BD00048C077FF03C020E030E005C0653B7105A9
:104BE00014F024EB30E000D000D0B901882777FD25
:104BF0008095982F2981332727FD3095E8E8AE2E40
:104C0000B12CA21AB30AAA0CBB1CAA0CBB1CCC2444
:104C1000B7FCC094DC2CEA81FF27E7FDF09528E57E
:104C200032E02E1B3F0B220F331F220F331F44276E
:104C300037FD4095542FEDB7FEB721833283438370
:104C4000548320E030E040E050E004EBE02EF12C13
:104C5000012D112D0E946D339B010F900F900F902D
:104C60000F90CE01B9010E949C25DF91CF911F9139
:104C70000F91FF90EF90DF90CF90BF90AF9008958D
:104C8000CF92DF92EF92FF921F93CF93DF93EC01CD
:104C9000162F7A01690188818C3008F064C0862F54
:104CA00061E00E94FA2B888190E0FC01EE0FFF1F6B
:104CB000E80FF91FE25BF94F1F738081807C812B25
:104CC000808380E292E08E199F0964E070E00E9488
:104CD0000036698380E699E08C199D0964E070E0F4
:104CE0000E9400366A83A8818A2F6CE00E94F43506
:104CF000682F70E0AB01440F551F460F571F440F3C
:104D0000551F440F551F20E030E0C901840F951F47
:104D1000FC01EE0FFF1FE80FF91FE25BF94F8081E6
:104D200086FD15C02F5F3F4F2C30310571F724C031
:104D30001092800082E08093810010928500109292
:104D40008400B19A80916F00826080936F008A2FF7
:104D500090E0FC01EE0FFF1FE80FF91FE25BF94F37
:104D60008081806480838881DF91CF911F91FF9043
:104D7000EF90DF90CF900895672BD1F2E8CF40E21B
:104D800052E020E639E00E94402608951F920F92DB
:104D90000FB60F9211242F933F934F935F936F930E
:104DA0007F938F939F93AF93BF93EF93FF938091E4
:104DB000720687FF05C010928500109284002BC0F8
:104DC00020917206332727FD309580914D0690E0A3
:104DD0002817390704F580917206992787FD909569
:104DE000FC01EE0FFF1FE80FF91FE25BF94F808116
:104DF00086FF11C080917206992787FD9095FC016E
:104E0000EE0FFF1FE80FF91FE25BF94F80818F73F0
:104E100060E00E94392C809172068F5F8093720649
:104E200020917206332727FD309580914D0690E042
:104E3000281739070CF04EC0809172068C300CF0A8
:104E400049C0209184003091850080917206992795
:104E500087FD9095FC01EE0FFF1FE80FF91FE25B45
:104E6000F94F81819281280F391F30938900209357
:104E7000880080917206992787FD9095FC01EE0FBE
:104E8000FF1FE80FF91FE25BF94F808186FF2BC0FF
:104E900080917206992787FD9095FC01EE0FFF1F08
:104EA000E80FF91FE25BF94F80818F7361E00E9488
:104EB000392C19C080E49CE905C080918400909150
:104EC0008500049690938900809388008FEF8093EB
:104ED000720609C0809184009091850004968054E8
:104EE0009C4940F3EACFFF91EF91BF91AF919F9121
:104EF0008F917F916F915F914F913F912F910F9083
:104F00000FBE0F901F901895F999FECF72BD61BD2D
:104F1000F89A80B50895F999FECF1FBA72BD61BDA8
:104F200040BD0FB6F894FA9AF99A0FBE0895382F3B
:104F3000413210F040E042C0809174068823E1F7CE
:104F400091E090937406209376068FEF8093E106AC
:104F500010929C06415040939D064F5F90937506BA
:104F600080917506330F832B8093750680917706A9
:104F7000813041F410927706809175068093BB00D2
:104F800085EC01C085EE8093BC0080917406813071
:104F9000E1F380919C06841710F440919C0620E078
:104FA00030E00AC0FB01E20FF31FD901A458B94F4A
:104FB0008C9180832F5F3F4F2417A0F3842F089597
:104FC0000F931F93582F122F413210F081E04AC0E7
:104FD000809174068823E1F782E080937406009341
:104FE00076068FEF8093E10610929C0640939D0613
:104FF000ACE7B6E0FB0102C081918D938E2F861B3A
:105000008417D0F31092750680917506550F852B85
:105010008093750680917706813041F4109277066F
:10502000809175068093BB0085EC01C085EE80936E
:10503000BC00112321F0809174068230E1F380914D
:10504000E1068F3F11F480E00DC08091E1068032CF
:1050500011F482E007C08091E106803311F084E012
:1050600001C083E01F910F910895482F613210F025
:1050700081E0089580917406843011F082E00895F3
:105080006093BF06AEE9B6E0842F9C01F90102C02F
:1050900081918D938E2F841B8617D0F380E0089525
:1050A0001F920F920FB60F9211242F933F934F939D
:1050B0005F936F937F938F939F93AF93BF93EF9380
:1050C000FF938091B90090E0887F907080369105C1
:1050D00009F4F2C081369105CCF58832910509F4C6
:1050E0007BC089329105B4F48031910509F46FC019
:1050F000813191053CF4009709F447C1089709F004
:105100004FC165C08831910509F466C0809709F0E8
:1051100047C182C08034910509F4A4C0813491054F
:1051200044F48033910509F482C0C89709F038C16E
:1051300089C08035910509F489C08835910509F445
:1051400096C08834910509F02BC1AEC0883991050D
:1051500009F413C189399105ECF48837910509F4F4
:10516000ABC0893791054CF48836910509F4A4C089
:105170008037910509F014C19FC08838910509F462
:10518000FCC08039910509F49DC08038910509F073
:1051900007C198C0803B910509F4C6C0813B9105C9
:1051A0004CF4803A910509F49FC0883A910509F0C2
:1051B000F7C0BAC0803C910509F4E3C0883C910572
:1051C00009F4DFC0883B910509F0EAC0C2C08091B4
:1051D00075068093BB00CFC090919C0680919D0680
:1051E000981768F490919C06E92FF0E0E458F94F85
:1051F00080818093BB009F5F90939C06BCC0809190
:105200007606882309F44BC085ED8093BC0080911D
:10521000BC0084FDFCCFC2C080E28093E10685ED36
:105220008093BC008091BC0084FDFCCFB7C080E3BC
:105230008093E10685ED8093BC008091BC0084FDE5
:10524000FCCFACC088E38093E1069BC080919C06B4
:105250009091BB00E82FF0E0E458F94F90838F5F06
:1052600080939C0690919C0680919D0682C08091BF
:105270009C069091BB00E82FF0E0E458F94F908332
:105280008F5F80939C0680917606882341F085EDA0
:105290008093BC008091BC0084FDFCCF7FC081E086
:1052A0008093770684EA6EC085ED8093BC00809180
:1052B000BC0084FDFCCF72C083E080937406109222
:1052C000E00659C08091E006803208F056C0809117
:1052D000E0069091BB00E82FF0E0E054F94F908396
:1052E0008F5F8093E00647C08091E006803230F403
:1052F000E091E006F0E0E054F94F108285ED8093F4
:10530000BC008091BC0084FDFCCF109274066091BB
:10531000E006E0917A06F0917B0680EC96E070E082
:1053200009951092E0062DC084E0809374061092D7
:10533000BE061092BF06E0917806F09179060995B5
:105340008091BF06882329F481E08093BF061092E4
:105350009E069091BE06E92FF0E0E256F94F80815B
:105360008093BB009F5F9093BE069091BE06809194
:10537000BF06981710F485EC01C085E88093BC0047
:105380000FC085EC8093BC0009C01092E10685ED4A
:105390008093BC008091BC0084FDFCCF1092740609
:1053A000FF91EF91BF91AF919F918F917F916F91FD
:1053B0005F914F913F912F910F900FBE0F901F90D3
:1053C00018951092740681E0809376061092770605
:1053D00082E161E00E94392C83E161E00E94392C76
:1053E000E9EBF0E080818E7F808380818D7F8083F8
:1053F00088E48093B80085E48093BC00089581E040
:1054000080932707609304071092250710922607C0
:1054100008952091030730E080910207281B31098D
:10542000C90108954091020780910307481718F0B9
:105430002FEF3FEF0AC0E42FF0E0EE51F94F8081EB
:10544000282F30E04F5F40930207C9010895E09193
:10545000020780910307E81718F0EFEFFFEF06C08F
:10546000F0E0EE51F94F8081E82FF0E0CF01089590
:10547000089510922B0710922A0788EE93E0A0E07F
:10548000B0E080932C0790932D07A0932E07B09344
:105490002F0783ED94E090932907809328070895C0
:1054A000CF92DF92EF92FF920F931F93CF93DF93F0
:1054B0007C016B018A01809127078823A1F0C0E05D
:1054C000D0E00DC0D701ED91FC91D601AC0FBD1F0E
:1054D0000190F081E02DC7016C9109952196C017CC
:1054E000D10780F304C0CB01642F0E943528C80186
:1054F000DF91CF911F910F91FF90EF90DF90CF90B0
:105500000895DF93CF930F92CDB7DEB7FC01698387
:10551000809127078823C9F080912607803238F0D0
:1055200081E090E09383828320E030E015C0809199
:105530002507E82FF0E0EB5FF84F998190838F5FAC
:10554000809325078093260705C0CE01019661E070
:105550000E94352821E030E0C9010F90CF91DF9102
:1055600008950F93062F8091040765E077E040913E
:10557000260721E00E94E0271092250710922607B7
:10558000109227070F91089561E00E94B12A0895B3
:10559000413208F040E2862F62EE76E00E949727C3
:1055A0001092020780930307089521E00E94C82A01
:1055B0000895109202071092030710922507109287
:1055C00026070E94E12908951F920F920FB60F92AD
:1055D00011242F933F938F939F93AF93BF93809109
:1055E000380790913907A0913A07B0913B07309165
:1055F0003C070196A11DB11D232F2D5F2D3720F0F3
:105600002D570196A11DB11D20933C0780933807AB
:1056100090933907A0933A07B0933B0780913407E2
:1056200090913507A0913607B09137070196A11DDB
:10563000B11D8093340790933507A0933607B0933C
:105640003707BF91AF919F918F913F912F910F900D
:105650000FBE0F901F9018958FB7F89420913807C0
:105660003091390740913A0750913B078FBFB901FC
:10567000CA0108959B01AC017FB7F894809134076B
:1056800090913507A0913607B091370766B5A89B72
:1056900005C06F3F19F00196A11DB11D7FBFBA2F44
:1056A000A92F982F8827860F911DA11DB11D62E09B
:1056B000880F991FAA1FBB1F6A95D1F7BC012DC087
:1056C000FFB7F8948091340790913507A091360781
:1056D000B0913707E6B5A89B05C0EF3F19F00196DA
:1056E000A11DB11DFFBFBA2FA92F982F88278E0F9C
:1056F000911DA11DB11DE2E0880F991FAA1FBB1FBC
:10570000EA95D1F7861B970B885E9340C8F221502B
:1057100030404040504068517C4F211531054105D3
:10572000510571F60895019739F0880F991F880F78
:10573000991F02970197F1F70895789484B58260D4
:1057400084BD84B5816084BD85B5826085BD85B525
:10575000816085BDEEE6F0E0808181608083E1E8D4
:10576000F0E010828081826080838081816080830C
:10577000E0E8F0E0808181608083E1EBF0E080810F
:1057800084608083E0EBF0E0808181608083EAE7E1
:10579000F0E080818460808380818260808380816A
:1057A000816080838081806880831092C100089529
:1057B000982F8E3008F09E5097708091A3048295A8
:1057C000880F880F807C892B80937C0080917A00E1
:1057D000806480937A0080917A0086FDFCCF2091CE
:1057E000780040917900942F80E030E0282B392B0D
:1057F000C9010895CF93DF93482F50E0CA01865620
:105800009F4FFC0134914A575F4FFA0184918823DE
:1058100069F190E0880F991FFC01E859FF4FA591AD
:10582000B491FC01EE58FF4FC591D491662351F419
:105830002FB7F8948C91932F909589238C9388811E
:1058400089230BC0623061F42FB7F8948C91932FA9
:10585000909589238C938881832B88832FBF06C0E2
:105860009FB7F8948C91832B8C939FBFDF91CF913E
:105870000895482F50E0CA0182559F4FFC012491A2
:10588000CA0186569F4FFC0194914A575F4FFA0117
:105890003491332309F440C0222351F1233071F0B5
:1058A000243028F42130A1F0223011F514C0263024
:1058B000B1F02730C1F02430D9F404C080918000C9
:1058C0008F7703C0809180008F7D8093800010C00F
:1058D00084B58F7702C084B58F7D84BD09C0809167
:1058E000B0008F7703C08091B0008F7D8093B000AF
:1058F000E32FF0E0EE0FFF1FEE58FF4FA591B4919C
:105900002FB7F894662321F48C919095892302C0D7
:105910008C91892B8C932FBF089508951F920F921D
:105920000FB60F9211242F933F934F938F939F9312
:10593000EF93FF938091C00082FD1DC04091C6008F
:1059400020917D0730917E072F5F3F4F2F7330707E
:1059500080917F07909180072817390771F0E091B7
:105960007D07F0917E07E35CF84F408330937E071C
:1059700020937D0702C08091C600FF91EF919F9117
:105980008F914F913F912F910F900FBE0F901F90CD
:105990001895E091D107F091D207E05CFF4F81911B
:1059A000919120813181821B930B8F739070892B91
:1059B00011F00E948D2C08951F920F920FB60F9236
:1059C00011242F933F938F939F93EF93FF932091F5
:1059D000C1073091C2078091C3079091C40728176F
:1059E000390731F48091C1008F7D8093C10014C0CC
:1059F000E091C307F091C407EF57F84F20818091E1
:105A0000C3079091C40701968F7390709093C40759
:105A10008093C3072093C600FF91EF919F918F91D0
:105A20003F912F910F900FBE0F901F901895AF923E
:105A3000BF92DF92EF92FF920F931F93CF93DF936A
:105A4000EC017A018B01DD24403081EE580780E0C3
:105A5000680780E0780711F0DD24D39491E0A92E47
:105A6000B12CEC89FD89DD2069F0C50108A002C0D8
:105A7000880F991F0A94E2F7808360E079E08DE354
:105A800090E005C0108260E874E88EE190E0A80123
:105A900097010E94133621503040404050405695A7
:105AA00047953795279580E12030380720F0DD2095
:105AB00011F0DD24D6CFE889F9893083EA89FB89A2
:105AC000208319A2EE89FF89408121E030E0C901DD
:105AD0000C8C02C0880F991F0A94E2F7482B408370
